{
  "contractName": "AuctionContract",
  "abi": [
    {
      "inputs": [
        {
          "internalType": "address",
          "name": "_addressContract",
          "type": "address"
        }
      ],
      "stateMutability": "nonpayable",
      "type": "constructor"
    },
    {
      "anonymous": false,
      "inputs": [
        {
          "indexed": true,
          "internalType": "address",
          "name": "addressBidder",
          "type": "address"
        },
        {
          "indexed": false,
          "internalType": "uint256",
          "name": "bid",
          "type": "uint256"
        }
      ],
      "name": "Bidders",
      "type": "event"
    },
    {
      "anonymous": false,
      "inputs": [
        {
          "indexed": true,
          "internalType": "address",
          "name": "previousOwner",
          "type": "address"
        },
        {
          "indexed": true,
          "internalType": "address",
          "name": "newOwner",
          "type": "address"
        }
      ],
      "name": "OwnershipTransferred",
      "type": "event"
    },
    {
      "inputs": [],
      "name": "owner",
      "outputs": [
        {
          "internalType": "address",
          "name": "",
          "type": "address"
        }
      ],
      "stateMutability": "view",
      "type": "function"
    },
    {
      "inputs": [],
      "name": "renounceOwnership",
      "outputs": [],
      "stateMutability": "nonpayable",
      "type": "function"
    },
    {
      "inputs": [
        {
          "internalType": "address",
          "name": "newOwner",
          "type": "address"
        }
      ],
      "name": "transferOwnership",
      "outputs": [],
      "stateMutability": "nonpayable",
      "type": "function"
    },
    {
      "inputs": [
        {
          "internalType": "string",
          "name": "keyParams",
          "type": "string"
        }
      ],
      "name": "getParamsContract",
      "outputs": [
        {
          "internalType": "uint256",
          "name": "",
          "type": "uint256"
        }
      ],
      "stateMutability": "view",
      "type": "function"
    },
    {
      "inputs": [
        {
          "internalType": "uint256",
          "name": "tokenId",
          "type": "uint256"
        }
      ],
      "name": "getTokenDetails",
      "outputs": [
        {
          "components": [
            {
              "internalType": "address",
              "name": "addrOwner",
              "type": "address"
            },
            {
              "internalType": "string",
              "name": "uri",
              "type": "string"
            },
            {
              "internalType": "uint8[]",
              "name": "params8",
              "type": "uint8[]"
            },
            {
              "internalType": "uint256[]",
              "name": "params256",
              "type": "uint256[]"
            }
          ],
          "internalType": "struct TokenContract.Token",
          "name": "",
          "type": "tuple"
        }
      ],
      "stateMutability": "view",
      "type": "function"
    },
    {
      "inputs": [],
      "name": "getAllToken",
      "outputs": [
        {
          "components": [
            {
              "internalType": "address",
              "name": "addrOwner",
              "type": "address"
            },
            {
              "internalType": "string",
              "name": "uri",
              "type": "string"
            },
            {
              "internalType": "uint8[]",
              "name": "params8",
              "type": "uint8[]"
            },
            {
              "internalType": "uint256[]",
              "name": "params256",
              "type": "uint256[]"
            }
          ],
          "internalType": "struct TokenContract.Token[]",
          "name": "",
          "type": "tuple[]"
        }
      ],
      "stateMutability": "view",
      "type": "function"
    },
    {
      "inputs": [],
      "name": "bidding",
      "outputs": [],
      "stateMutability": "payable",
      "type": "function"
    },
    {
      "inputs": [],
      "name": "getAllBidders",
      "outputs": [
        {
          "components": [
            {
              "internalType": "address",
              "name": "addressBidder",
              "type": "address"
            },
            {
              "internalType": "uint256",
              "name": "bid",
              "type": "uint256"
            }
          ],
          "internalType": "struct AuctionContract.Bidder[]",
          "name": "",
          "type": "tuple[]"
        }
      ],
      "stateMutability": "view",
      "type": "function"
    },
    {
      "inputs": [
        {
          "internalType": "string",
          "name": "uri",
          "type": "string"
        }
      ],
      "name": "lazyMint",
      "outputs": [],
      "stateMutability": "payable",
      "type": "function"
    },
    {
      "inputs": [],
      "name": "multipleMint",
      "outputs": [],
      "stateMutability": "nonpayable",
      "type": "function"
    },
    {
      "inputs": [
        {
          "internalType": "uint256",
          "name": "bidderId",
          "type": "uint256"
        }
      ],
      "name": "getBidderDetails",
      "outputs": [
        {
          "components": [
            {
              "internalType": "address",
              "name": "addressBidder",
              "type": "address"
            },
            {
              "internalType": "uint256",
              "name": "bid",
              "type": "uint256"
            }
          ],
          "internalType": "struct AuctionContract.Bidder",
          "name": "",
          "type": "tuple"
        }
      ],
      "stateMutability": "view",
      "type": "function"
    },
    {
      "inputs": [
        {
          "internalType": "address",
          "name": "_address",
          "type": "address"
        }
      ],
      "name": "setRoyaltiesAdress",
      "outputs": [],
      "stateMutability": "nonpayable",
      "type": "function"
    },
    {
      "inputs": [
        {
          "internalType": "address",
          "name": "_address",
          "type": "address"
        }
      ],
      "name": "removeRoyaltiesAdress",
      "outputs": [],
      "stateMutability": "nonpayable",
      "type": "function"
    },
    {
      "inputs": [
        {
          "internalType": "address",
          "name": "_addressContract",
          "type": "address"
        }
      ],
      "name": "setAddressContract",
      "outputs": [],
      "stateMutability": "nonpayable",
      "type": "function"
    },
    {
      "inputs": [
        {
          "internalType": "address",
          "name": "_addressContract",
          "type": "address"
        }
      ],
      "name": "getAddressContract",
      "outputs": [
        {
          "internalType": "address",
          "name": "",
          "type": "address"
        }
      ],
      "stateMutability": "view",
      "type": "function"
    },
    {
      "inputs": [
        {
          "internalType": "string",
          "name": "keyParams",
          "type": "string"
        },
        {
          "internalType": "uint256",
          "name": "valueParams",
          "type": "uint256"
        }
      ],
      "name": "setParamsContract",
      "outputs": [],
      "stateMutability": "nonpayable",
      "type": "function"
    },
    {
      "inputs": [],
      "name": "startAuction",
      "outputs": [],
      "stateMutability": "nonpayable",
      "type": "function"
    },
    {
      "inputs": [],
      "name": "endAuction",
      "outputs": [],
      "stateMutability": "nonpayable",
      "type": "function"
    },
    {
      "inputs": [
        {
          "internalType": "bool",
          "name": "_state",
          "type": "bool"
        }
      ],
      "name": "pause",
      "outputs": [],
      "stateMutability": "nonpayable",
      "type": "function"
    },
    {
      "inputs": [],
      "name": "kill",
      "outputs": [],
      "stateMutability": "nonpayable",
      "type": "function"
    }
  ],
  "bytecode": "0x60806040526007805462ff00001916905534801561001c57600080fd5b5060405162001d1238038062001d1283398101604081905261003d9161019c565b6100463361014c565b600480546001600160a01b0319166001600160a01b03831617905560405162189a5960ea1b815267016345785d8a0000906003908101908152604051908190036020018120919091556b39ba30b93a20bab1ba34b7b760a11b8152600090600390600c01908152604051908190036020018120919091556b1c185c985b5cce10dbdd5b9d60a21b8152600590600390600c01908152604051908190036020018120919091556d1c185c985b5ccc8d4d90dbdd5b9d60921b8152600590600390600e01908152604051908190036020018120919091556a3a34b6b2a0bab1ba34b7b760a91b8152610e1090600390600b0190815260405190819003602001902055506101cc565b600080546001600160a01b038381166001600160a01b0319831681178455604051919092169283917f8be0079c531659141344cd1fd0a4f28419497f9722a3daafe3b4186f6b6457e09190a35050565b6000602082840312156101ae57600080fd5b81516001600160a01b03811681146101c557600080fd5b9392505050565b611b3680620001dc6000396000f3fe60806040526004361061011f5760003560e01c80638da5cb5b116100a0578063db774c7911610064578063db774c791461031d578063e984dfd814610325578063f26bf0b714610345578063f2fde38b14610373578063fe67a54b1461039357600080fd5b80638da5cb5b1461023a5780639c344cf21461026c578063b0b34e17146102b0578063c1e03728146102d0578063d6b730d2146102fd57600080fd5b80635c70bac3116100e75780635c70bac3146101b95780636b64c769146101d9578063715018a6146101ee5780638307dd451461020357806385e3c1d41461021857600080fd5b806302329a291461012457806326fa33ec146101465780633a79d2e5146101595780633cb119441461018457806341c0e1b5146101a4575b600080fd5b34801561013057600080fd5b5061014461013f3660046115d7565b6103a8565b005b6101446101543660046115f9565b6103f7565b34801561016557600080fd5b5061016e610553565b60405161017b9190611837565b60405180910390f35b34801561019057600080fd5b5061014461019f366004611636565b610636565b3480156101b057600080fd5b50610144610685565b3480156101c557600080fd5b506101446101d43660046114e5565b610769565b3480156101e557600080fd5b5061014461082c565b3480156101fa57600080fd5b5061014461088a565b34801561020f57600080fd5b506101446108c0565b34801561022457600080fd5b5061022d6108ea565b60405161017b9190611897565b34801561024657600080fd5b506000546001600160a01b03165b6040516001600160a01b03909116815260200161017b565b34801561027857600080fd5b5061028c6102873660046116b0565b610972565b6040805182516001600160a01b03168152602092830151928101929092520161017b565b3480156102bc57600080fd5b506102546102cb3660046114e5565b6109e3565b3480156102dc57600080fd5b506102f06102eb3660046116b0565b610a1f565b60405161017b919061192e565b34801561030957600080fd5b506101446103183660046114e5565b610ada565b610144610b26565b34801561033157600080fd5b506101446103403660046114e5565b610d6a565b34801561035157600080fd5b506103656103603660046115f9565b610e1a565b60405190815260200161017b565b34801561037f57600080fd5b5061014461038e3660046114e5565b610e42565b34801561039f57600080fd5b50610144610edd565b6000546001600160a01b031633146103db5760405162461bcd60e51b81526004016103d2906118f9565b60405180910390fd5b60078054911515620100000262ff000019909216919091179055565b6000600360405161041a906b1c185c985b5cce10dbdd5b9d60a21b8152600c0190565b90815260200160405180910390205467ffffffffffffffff81111561044157610441611ad5565b60405190808252806020026020018201604052801561046a578160200160208202803683370190505b50905060006003604051610492906d1c185c985b5ccc8d4d90dbdd5b9d60921b8152600e0190565b90815260200160405180910390205467ffffffffffffffff8111156104b9576104b9611ad5565b6040519080825280602002602001820160405280156104e2578160200160208202803683370190505b506004805460405163330dc9cd60e21b81529293506001600160a01b031691829163cc3727349161051b913391899189918991016117e2565b600060405180830381600087803b15801561053557600080fd5b505af1158015610549573d6000803e3d6000fd5b5050505050505050565b6060600060065467ffffffffffffffff81111561057257610572611ad5565b6040519080825280602002602001820160405280156105b757816020015b60408051808201909152600080825260208201528152602001906001900390816105905790505b50905060005b60065481101561063057600081815260026020908152604091829020825180840190935280546001600160a01b03168352600181015491830191909152835190919084908490811061061157610611611abf565b602002602001018190525050808061062890611a6e565b9150506105bd565b50919050565b6000546001600160a01b031633146106605760405162461bcd60e51b81526004016103d2906118f9565b8060038360405161067191906117c6565b908152604051908190036020019020555050565b6000546001600160a01b031633146106af5760405162461bcd60e51b81526004016103d2906118f9565b6040516a3a34b6b2a0bab1ba34b7b760a91b8152600390600b01908152604051908190036020018120546b39ba30b93a20bab1ba34b7b760a11b825290600390600c0190815260200160405180910390205461070b91906119e7565b42111561075a5760405162461bcd60e51b815260206004820152601760248201527f41756374696f6e206973206e6f742066696e697368656400000000000000000060448201526064016103d2565b6000546001600160a01b031680ff5b6000546001600160a01b031633146107935760405162461bcd60e51b81526004016103d2906118f9565b60005b60075460ff908116908216116108285760ff81166000908152600160205260409020546001600160a01b03838116911614156108165760ff8082166000908152600160205260408120805460ff60a01b191690556007805490921691906107fc83611a51565b91906101000a81548160ff021916908360ff160217905550505b8061082081611a89565b915050610796565b5050565b6000546001600160a01b031633146108565760405162461bcd60e51b81526004016103d2906118f9565b426003604051610878906b39ba30b93a20bab1ba34b7b760a11b8152600c0190565b90815260405190819003602001902055565b6000546001600160a01b031633146108b45760405162461bcd60e51b81526004016103d2906118f9565b6108be60006111c4565b565b6000546001600160a01b031633146108be5760405162461bcd60e51b81526004016103d2906118f9565b6004805460408051632178f07560e21b815290516060936001600160a01b039093169283926385e3c1d49281830192600092829003018186803b15801561093057600080fd5b505afa158015610944573d6000803e3d6000fd5b505050506040513d6000823e601f3d908101601f1916820160405261096c919081019061151f565b91505090565b60408051808201909152600080825260208201819052546001600160a01b031633146109b05760405162461bcd60e51b81526004016103d2906118f9565b50600090815260026020908152604091829020825180840190935280546001600160a01b03168352600101549082015290565b600080546001600160a01b03163314610a0e5760405162461bcd60e51b81526004016103d2906118f9565b50506004546001600160a01b031690565b610a53604051806080016040528060006001600160a01b031681526020016060815260200160608152602001606081525090565b6004805460405163183c06e560e31b81529182018490526001600160a01b031690819063c1e037289060240160006040518083038186803b158015610a9757600080fd5b505afa158015610aab573d6000803e3d6000fd5b505050506040513d6000823e601f3d908101601f19168201604052610ad3919081019061167b565b9392505050565b6000546001600160a01b03163314610b045760405162461bcd60e51b81526004016103d2906118f9565b600480546001600160a01b0319166001600160a01b0392909216919091179055565b60405162189a5960ea1b815260039081019081526020016040518091039020543411610b945760405162461bcd60e51b815260206004820152601c60248201527f52657175697265206d6f72652045544820666f722062696464696e670000000060448201526064016103d2565b604080516b39ba30b93a20bab1ba34b7b760a11b81526003600c820152905190819003602c01902054610bff5760405162461bcd60e51b8152602060048201526013602482015272105d58dd1a5bdb881b9bdd081cdd185c9d1959606a1b60448201526064016103d2565b6040516a3a34b6b2a0bab1ba34b7b760a91b8152600390600b01908152604051908190036020018120546b39ba30b93a20bab1ba34b7b760a11b825290600390600c01908152602001604051809103902054610c5b91906119e7565b4210610c9f5760405162461bcd60e51b8152602060048201526013602482015272105d58dd1a5bdb881a5cc8199a5b9a5cda1959606a1b60448201526064016103d2565b346003604051610cb89062189a5960ea1b815260030190565b9081526040805191829003602090810183209390935581810181523380835234848401818152600654600090815260028752849020945185546001600160a01b039091166001600160a01b031991821617865590516001909501949094556005805490941682179093559051918252917fe254e1bfba15aa47e1722f8875e9129681f2762faf4442f643cd2e2043bd27ab910160405180910390a260068054906000610d6383611a6e565b9190505550565b6000546001600160a01b03163314610d945760405162461bcd60e51b81526004016103d2906118f9565b6040805180820182526001600160a01b038084168252600160208084018281526007805460ff9081166000908152949093529583209451855491511515600160a01b026001600160a81b0319909216941693909317929092179092558254169190610dfe83611a89565b91906101000a81548160ff021916908360ff1602179055505050565b6000600382604051610e2c91906117c6565b9081526020016040518091039020549050919050565b6000546001600160a01b03163314610e6c5760405162461bcd60e51b81526004016103d2906118f9565b6001600160a01b038116610ed15760405162461bcd60e51b815260206004820152602660248201527f4f776e61626c653a206e6577206f776e657220697320746865207a65726f206160448201526564647265737360d01b60648201526084016103d2565b610eda816111c4565b50565b6000546001600160a01b03163314610f075760405162461bcd60e51b81526004016103d2906118f9565b6040516a3a34b6b2a0bab1ba34b7b760a91b8152600390600b01908152604051908190036020018120546b39ba30b93a20bab1ba34b7b760a11b825290600390600c01908152602001604051809103902054610f6391906119e7565b421015610fa85760405162461bcd60e51b8152602060048201526013602482015272105d58dd1a5bdb881a5cc8199a5b9a5cda1959606a1b60448201526064016103d2565b600754610100900460ff1615610ff45760405162461bcd60e51b815260206004820152601160248201527018dbdb1b1958dd1a5bdb881cd95b1b1959607a1b60448201526064016103d2565b6004546001600160a01b031660005b60065481116111ac576000818152600260205260409020546005546001600160a01b039081169116141561114d5760005b600a81101561114757604051630836387160e41b8152600481018290526001600160a01b0384169063beabacc890829063836387109060240160206040518083038186803b15801561108557600080fd5b505afa158015611099573d6000803e3d6000fd5b505050506040513d601f19601f820116820180604052508101906110bd9190611502565b6000858152600260205260409081902054905160e084901b6001600160e01b03191681526001600160a01b0392831660048201529116602482015260448101849052606401600060405180830381600087803b15801561111c57600080fd5b505af1158015611130573d6000803e3d6000fd5b50505050808061113f90611a6e565b915050611034565b5061119a565b600081815260026020526040808220805460019091015491516001600160a01b039091169282156108fc02929190818181858888f19350505050158015611198573d6000803e3d6000fd5b505b806111a481611a6e565b915050611003565b506007805461ff001916610100179055610eda611214565b600080546001600160a01b038381166001600160a01b0319831681178455604051919092169283917f8be0079c531659141344cd1fd0a4f28419497f9722a3daafe3b4186f6b6457e09190a35050565b6007546000906112279060ff16476119ff565b905060005b60075460ff908116908216116108285760ff808216600090815260016020819052604090912054600160a01b9004909116151514156112af5760ff81166000908152600160205260408082205490516001600160a01b039091169184156108fc02918591818181858888f193505050501580156112ad573d6000803e3d6000fd5b505b806112b981611a89565b91505061122c565b600082601f8301126112d257600080fd5b815160206112e76112e28361199b565b61196a565b80838252828201915082860187848660051b890101111561130757600080fd5b60005b858110156113265781518452928401929084019060010161130a565b5090979650505050505050565b600082601f83011261134457600080fd5b815160206113546112e28361199b565b80838252828201915082860187848660051b890101111561137457600080fd5b6000805b868110156113a257825160ff81168114611390578283fd5b85529385019391850191600101611378565b509198975050505050505050565b600082601f8301126113c157600080fd5b81356113cf6112e2826119bf565b8181528460208386010111156113e457600080fd5b816020850160208301376000918101602001919091529392505050565b60006080828403121561141357600080fd5b61141b611941565b9050815161142881611aeb565b8152602082015167ffffffffffffffff8082111561144557600080fd5b818401915084601f83011261145957600080fd5b81516114676112e2826119bf565b81815286602083860101111561147c57600080fd5b61148d826020830160208701611a21565b60208501525060408401519150808211156114a757600080fd5b6114b385838601611333565b604084015260608401519150808211156114cc57600080fd5b506114d9848285016112c1565b60608301525092915050565b6000602082840312156114f757600080fd5b8135610ad381611aeb565b60006020828403121561151457600080fd5b8151610ad381611aeb565b6000602080838503121561153257600080fd5b825167ffffffffffffffff8082111561154a57600080fd5b818501915085601f83011261155e57600080fd5b815161156c6112e28261199b565b80828252858201915085850189878560051b880101111561158c57600080fd5b6000805b858110156115c7578251878111156115a6578283fd5b6115b48d8b838c0101611401565b8652509388019391880191600101611590565b50919a9950505050505050505050565b6000602082840312156115e957600080fd5b81358015158114610ad357600080fd5b60006020828403121561160b57600080fd5b813567ffffffffffffffff81111561162257600080fd5b61162e848285016113b0565b949350505050565b6000806040838503121561164957600080fd5b823567ffffffffffffffff81111561166057600080fd5b61166c858286016113b0565b95602094909401359450505050565b60006020828403121561168d57600080fd5b815167ffffffffffffffff8111156116a457600080fd5b61162e84828501611401565b6000602082840312156116c257600080fd5b5035919050565b600081518084526020808501945080840160005b838110156116f9578151875295820195908201906001016116dd565b509495945050505050565b600081518084526020808501945080840160005b838110156116f957815160ff1687529582019590820190600101611718565b6000815180845261174f816020860160208601611a21565b601f01601f19169290920160200192915050565b60018060a01b038151168252600060208201516080602085015261178a6080850182611737565b9050604083015184820360408601526117a38282611704565b915050606083015184820360608601526117bd82826116c9565b95945050505050565b600082516117d8818460208701611a21565b9190910192915050565b6001600160a01b038516815260806020820181905260009061180690830186611737565b82810360408401526118188186611704565b9050828103606084015261182c81856116c9565b979650505050505050565b602080825282518282018190526000919060409081850190868401855b8281101561188a5761187a84835180516001600160a01b03168252602090810151910152565b9284019290850190600101611854565b5091979650505050505050565b6000602080830181845280855180835260408601915060408160051b870101925083870160005b828110156118ec57603f198886030184526118da858351611763565b945092850192908501906001016118be565b5092979650505050505050565b6020808252818101527f4f776e61626c653a2063616c6c6572206973206e6f7420746865206f776e6572604082015260600190565b602081526000610ad36020830184611763565b6040516080810167ffffffffffffffff8111828210171561196457611964611ad5565b60405290565b604051601f8201601f1916810167ffffffffffffffff8111828210171561199357611993611ad5565b604052919050565b600067ffffffffffffffff8211156119b5576119b5611ad5565b5060051b60200190565b600067ffffffffffffffff8211156119d9576119d9611ad5565b50601f01601f191660200190565b600082198211156119fa576119fa611aa9565b500190565b600082611a1c57634e487b7160e01b600052601260045260246000fd5b500490565b60005b83811015611a3c578181015183820152602001611a24565b83811115611a4b576000848401525b50505050565b600060ff821680611a6457611a64611aa9565b6000190192915050565b6000600019821415611a8257611a82611aa9565b5060010190565b600060ff821660ff811415611aa057611aa0611aa9565b60010192915050565b634e487b7160e01b600052601160045260246000fd5b634e487b7160e01b600052603260045260246000fd5b634e487b7160e01b600052604160045260246000fd5b6001600160a01b0381168114610eda57600080fdfea264697066735822122021a46b77b2799a506d49a36e7eb94c369d4c27876e12025b201bd9812626098864736f6c63430008060033",
  "immutableReferences": {},
  "source": "// SPDX-License-Identifier: MIT\r\n// ADMIN CONTROLLER\r\npragma solidity ^0.8.0;\r\n\r\nimport './TokenContract.sol';\r\nimport '@openzeppelin/contracts/access/Ownable.sol';\r\n\r\ncontract AuctionContract is Ownable {\r\n\r\n\r\n    struct RoyaltiesAddresses {\r\n        address addressRoyalties;\r\n        bool valid;\r\n    }\r\n\r\n    struct Bidder {\r\n        address addressBidder;\r\n        uint256 bid;\r\n    }\r\n    \r\n    event Bidders(address indexed addressBidder, uint256 bid);\r\n\r\n    mapping( uint8 => RoyaltiesAddresses ) private _addressRoyalties;\r\n    mapping( uint256 => Bidder ) private _bidders;\r\n    mapping( string => uint ) paramsContract;//Allows great scalability, you can add or remove as many variables as you want\r\n    address addressContractToken;\r\n    address lastBidder;\r\n    uint256 countBidder;\r\n    uint8 countAddressRoyalties;\r\n    bool endedAndTransfered;\r\n    bool paused = false;\r\n\r\n\r\n    constructor(address _addressContract) {\r\n        addressContractToken = _addressContract;\r\n        paramsContract[\"bid\"] = 100000000000000000;//set minimum price\r\n        paramsContract[\"startAuction\"] = 0;//start auction date\r\n        paramsContract[\"params8Count\"] = 5;\r\n        paramsContract[\"params256Count\"] = 5;\r\n        paramsContract[\"timeAuction\"] = 60 minutes;\r\n    }\r\n\r\n    /**\r\n    Get value of one element of array parameter of contract  \r\n    */\r\n    function getParamsContract(string memory keyParams) external view returns (uint256){\r\n        return paramsContract[keyParams];\r\n    }\r\n\r\n    /**\r\n    Recover the details of a token by passing its id\r\n     */\r\n    function getTokenDetails(uint256 tokenId) external view returns  (TokenContract.Token memory){\r\n        TokenContract contrat = TokenContract(addressContractToken);\r\n        return contrat.getTokenDetails(tokenId);\r\n    }\r\n\r\n    function getAllToken() external view returns (TokenContract.Token[] memory){\r\n        TokenContract contrat = TokenContract(addressContractToken);\r\n        return contrat.getAllToken();\r\n    }\r\n\r\n    /**\r\n    Bid for the collection\r\n    Verify that the bidder has sent more ETH than the initial and the last auction\r\n    Check that the auction has started and is not yet finished\r\n     */\r\n    function bidding() payable external {\r\n        require(msg.value>paramsContract[\"bid\"],\"Require more ETH for bidding\");\r\n        require(paramsContract[\"startAuction\"]!=0,\"Auction not started\");\r\n        require(block.timestamp<(paramsContract[\"startAuction\"]+paramsContract[\"timeAuction\"]),\"Auction is finished\");\r\n        paramsContract[\"bid\"] = msg.value;\r\n        _bidders[countBidder] = Bidder(msg.sender,msg.value);\r\n        lastBidder = msg.sender;\r\n        emit Bidders(msg.sender,msg.value);\r\n        countBidder++;\r\n    }\r\n\r\n    function getAllBidders() external view returns (Bidder[] memory){\r\n        Bidder[] memory result = new Bidder[](countBidder);\r\n        for(uint256 i = 0; i < countBidder; i++){\r\n            Bidder storage _bidder = _bidders[i];\r\n            result[i] = _bidder;\r\n        }\r\n        return result;\r\n    }\r\n\r\n    function lazyMint(string memory uri) payable external{\r\n        uint8[] memory params8 = new uint8[](paramsContract[\"params8Count\"]);\r\n        uint256[] memory params256 = new uint256[](paramsContract[\"params256Count\"]);\r\n        TokenContract contrat = TokenContract(addressContractToken);\r\n        contrat.mint(msg.sender, uri, params8, params256);\r\n    }\r\n\r\n    function multipleMint() external onlyOwner {\r\n\r\n    }\r\n\r\n    function getBidderDetails(uint256 bidderId) external onlyOwner view returns (Bidder memory){\r\n        return _bidders[bidderId];\r\n    }\r\n    \r\n    /**\r\n    Create addresses to which to send royalties and the percentages they will receive\r\n     */\r\n    function setRoyaltiesAdress(address _address) external onlyOwner {\r\n        _addressRoyalties[countAddressRoyalties] = RoyaltiesAddresses(_address,true);\r\n        countAddressRoyalties++;\r\n    }\r\n\r\n    /**\r\n    Remove addresses to which to send royalties and the percentages they will receive\r\n     */\r\n    function removeRoyaltiesAdress(address _address) external onlyOwner {\r\n        for (uint8 iRoyalties = 0; iRoyalties <= countAddressRoyalties; iRoyalties++) {\r\n            if(_addressRoyalties[iRoyalties].addressRoyalties == _address){\r\n                _addressRoyalties[iRoyalties].valid = false;\r\n                countAddressRoyalties--;\r\n            }\r\n        }\r\n    }\r\n\r\n    /**\r\n    Update address of token\r\n    */\r\n    function setAddressContract(address _addressContract) external onlyOwner {\r\n        addressContractToken = _addressContract;\r\n    }\r\n\r\n    /**\r\n    get address of token\r\n    */\r\n    function getAddressContract(address _addressContract) external onlyOwner view returns(address) {\r\n        return addressContractToken;\r\n    }\r\n\r\n    /**\r\n    Update dynamic array of params of this contract\r\n     */\r\n    function setParamsContract(string memory keyParams, uint valueParams) external onlyOwner {\r\n        paramsContract[keyParams] = valueParams;\r\n    }\r\n\r\n    /**\r\n    Start the auction now !\r\n     */\r\n    function startAuction() external onlyOwner {\r\n        paramsContract[\"startAuction\"] = block.timestamp;\r\n    }\r\n\r\n    /**\r\n    We refund all those who are not the last to bid\r\n    We send the collection to the winner of the auction\r\n    And we send royalties percent at address setted\r\n     */\r\n    function endAuction() external onlyOwner {\r\n        require(block.timestamp>=(paramsContract[\"startAuction\"]+paramsContract[\"timeAuction\"]),\"Auction is finished\");\r\n        require(endedAndTransfered==false,\"collection selled\");\r\n        TokenContract contrat = TokenContract(addressContractToken);\r\n        for(uint256 i = 0; i <= countBidder; i++){\r\n            if(lastBidder == _bidders[i].addressBidder){\r\n                for (uint256 iToken = 0; iToken < 10; iToken++) {\r\n                    contrat.transfer(contrat.getOwnerOf(iToken), _bidders[i].addressBidder, iToken);\r\n                }\r\n            }else{\r\n                payable(_bidders[i].addressBidder).transfer(_bidders[i].bid);\r\n            }\r\n        }\r\n        endedAndTransfered = true;\r\n        payRoyalties();\r\n    }\r\n\r\n    /**\r\n    Pay royalties\r\n    */\r\n    function payRoyalties() internal {\r\n        uint256 percent = address(this).balance/countAddressRoyalties;\r\n        for (uint8 iRoyalties = 0; iRoyalties <= countAddressRoyalties; iRoyalties++) {\r\n            if(_addressRoyalties[iRoyalties].valid == true){\r\n                payable(_addressRoyalties[iRoyalties].addressRoyalties).transfer(percent);\r\n            }\r\n        }\r\n    }\r\n\r\n    /**\r\n    Temporarily lock the contract\r\n     */\r\n    function pause(bool _state) external onlyOwner {\r\n        paused = _state;\r\n    }\r\n\r\n    function kill() external onlyOwner {\r\n        require(block.timestamp<=(paramsContract[\"startAuction\"]+paramsContract[\"timeAuction\"]),\"Auction is not finished\");\r\n        address payable addr = payable(address(owner()));\r\n        selfdestruct(addr);\r\n    }\r\n\r\n    /**\r\n    Handling of funds, just in case\r\n     */\r\n    /*function withdraw() external byOwner {\r\n        payable(msg.sender).transfer(address(this).balance);\r\n    }\r\n\r\n    function deposit(uint256 amount) payable external byOwner {\r\n        require(msg.value == amount);\r\n    }*/\r\n\r\n}\r\n\r\n",
  "sourcePath": "C:\\Users\\KevinDell'ova\\Desktop\\Inverse contracts\\contracts\\AuctionContract.sol",
  "compiler": {
    "name": "solc",
    "version": "0.8.6+commit.11564f7e.Emscripten.clang"
  },
  "schemaVersion": "3.4.4",
  "updatedAt": "2022-03-06T15:42:15.660Z",
  "devdoc": {
    "kind": "dev",
    "methods": {
      "owner()": {
        "details": "Returns the address of the current owner."
      },
      "renounceOwnership()": {
        "details": "Leaves the contract without owner. It will not be possible to call `onlyOwner` functions anymore. Can only be called by the current owner. NOTE: Renouncing ownership will leave the contract without an owner, thereby removing any functionality that is only available to the owner."
      },
      "transferOwnership(address)": {
        "details": "Transfers ownership of the contract to a new account (`newOwner`). Can only be called by the current owner."
      }
    },
    "version": 1
  },
  "userdoc": {
    "kind": "user",
    "methods": {
      "bidding()": {
        "notice": "Bid for the collection Verify that the bidder has sent more ETH than the initial and the last auction Check that the auction has started and is not yet finished"
      },
      "endAuction()": {
        "notice": "We refund all those who are not the last to bid We send the collection to the winner of the auction And we send royalties percent at address setted"
      },
      "getAddressContract(address)": {
        "notice": "get address of token"
      },
      "getParamsContract(string)": {
        "notice": "Get value of one element of array parameter of contract  "
      },
      "getTokenDetails(uint256)": {
        "notice": "Recover the details of a token by passing its id"
      },
      "pause(bool)": {
        "notice": "Temporarily lock the contract"
      },
      "removeRoyaltiesAdress(address)": {
        "notice": "Remove addresses to which to send royalties and the percentages they will receive"
      },
      "setAddressContract(address)": {
        "notice": "Update address of token"
      },
      "setParamsContract(string,uint256)": {
        "notice": "Update dynamic array of params of this contract"
      },
      "setRoyaltiesAdress(address)": {
        "notice": "Create addresses to which to send royalties and the percentages they will receive"
      },
      "startAuction()": {
        "notice": "Start the auction now !"
      }
    },
    "version": 1
  }
}