{
  "contractName": "TokenContract",
  "abi": [
    {
      "inputs": [
        {
          "internalType": "string",
          "name": "name",
          "type": "string"
        },
        {
          "internalType": "string",
          "name": "symbol",
          "type": "string"
        },
        {
          "internalType": "string",
          "name": "_initBaseURI",
          "type": "string"
        },
        {
          "internalType": "uint256",
          "name": "mintNumber",
          "type": "uint256"
        }
      ],
      "stateMutability": "nonpayable",
      "type": "constructor"
    },
    {
      "anonymous": false,
      "inputs": [
        {
          "indexed": true,
          "internalType": "address",
          "name": "owner",
          "type": "address"
        },
        {
          "indexed": true,
          "internalType": "address",
          "name": "approved",
          "type": "address"
        },
        {
          "indexed": true,
          "internalType": "uint256",
          "name": "tokenId",
          "type": "uint256"
        }
      ],
      "name": "Approval",
      "type": "event"
    },
    {
      "anonymous": false,
      "inputs": [
        {
          "indexed": true,
          "internalType": "address",
          "name": "owner",
          "type": "address"
        },
        {
          "indexed": true,
          "internalType": "address",
          "name": "operator",
          "type": "address"
        },
        {
          "indexed": false,
          "internalType": "bool",
          "name": "approved",
          "type": "bool"
        }
      ],
      "name": "ApprovalForAll",
      "type": "event"
    },
    {
      "anonymous": false,
      "inputs": [
        {
          "indexed": true,
          "internalType": "address",
          "name": "previousOwner",
          "type": "address"
        },
        {
          "indexed": true,
          "internalType": "address",
          "name": "newOwner",
          "type": "address"
        }
      ],
      "name": "OwnershipTransferred",
      "type": "event"
    },
    {
      "anonymous": false,
      "inputs": [
        {
          "indexed": true,
          "internalType": "address",
          "name": "from",
          "type": "address"
        },
        {
          "indexed": true,
          "internalType": "address",
          "name": "to",
          "type": "address"
        },
        {
          "indexed": true,
          "internalType": "uint256",
          "name": "tokenId",
          "type": "uint256"
        }
      ],
      "name": "Transfer",
      "type": "event"
    },
    {
      "inputs": [
        {
          "internalType": "address",
          "name": "to",
          "type": "address"
        },
        {
          "internalType": "uint256",
          "name": "tokenId",
          "type": "uint256"
        }
      ],
      "name": "approve",
      "outputs": [],
      "stateMutability": "nonpayable",
      "type": "function"
    },
    {
      "inputs": [
        {
          "internalType": "address",
          "name": "owner",
          "type": "address"
        }
      ],
      "name": "balanceOf",
      "outputs": [
        {
          "internalType": "uint256",
          "name": "",
          "type": "uint256"
        }
      ],
      "stateMutability": "view",
      "type": "function",
      "constant": true
    },
    {
      "inputs": [],
      "name": "baseExtension",
      "outputs": [
        {
          "internalType": "string",
          "name": "",
          "type": "string"
        }
      ],
      "stateMutability": "view",
      "type": "function",
      "constant": true
    },
    {
      "inputs": [],
      "name": "baseURI",
      "outputs": [
        {
          "internalType": "string",
          "name": "",
          "type": "string"
        }
      ],
      "stateMutability": "view",
      "type": "function",
      "constant": true
    },
    {
      "inputs": [
        {
          "internalType": "uint256",
          "name": "tokenId",
          "type": "uint256"
        }
      ],
      "name": "getApproved",
      "outputs": [
        {
          "internalType": "address",
          "name": "",
          "type": "address"
        }
      ],
      "stateMutability": "view",
      "type": "function",
      "constant": true
    },
    {
      "inputs": [
        {
          "internalType": "address",
          "name": "owner",
          "type": "address"
        },
        {
          "internalType": "address",
          "name": "operator",
          "type": "address"
        }
      ],
      "name": "isApprovedForAll",
      "outputs": [
        {
          "internalType": "bool",
          "name": "",
          "type": "bool"
        }
      ],
      "stateMutability": "view",
      "type": "function",
      "constant": true
    },
    {
      "inputs": [],
      "name": "name",
      "outputs": [
        {
          "internalType": "string",
          "name": "",
          "type": "string"
        }
      ],
      "stateMutability": "view",
      "type": "function",
      "constant": true
    },
    {
      "inputs": [],
      "name": "owner",
      "outputs": [
        {
          "internalType": "address",
          "name": "",
          "type": "address"
        }
      ],
      "stateMutability": "view",
      "type": "function",
      "constant": true
    },
    {
      "inputs": [
        {
          "internalType": "uint256",
          "name": "tokenId",
          "type": "uint256"
        }
      ],
      "name": "ownerOf",
      "outputs": [
        {
          "internalType": "address",
          "name": "",
          "type": "address"
        }
      ],
      "stateMutability": "view",
      "type": "function",
      "constant": true
    },
    {
      "inputs": [],
      "name": "renounceOwnership",
      "outputs": [],
      "stateMutability": "nonpayable",
      "type": "function"
    },
    {
      "inputs": [
        {
          "internalType": "address",
          "name": "from",
          "type": "address"
        },
        {
          "internalType": "address",
          "name": "to",
          "type": "address"
        },
        {
          "internalType": "uint256",
          "name": "tokenId",
          "type": "uint256"
        }
      ],
      "name": "safeTransferFrom",
      "outputs": [],
      "stateMutability": "nonpayable",
      "type": "function"
    },
    {
      "inputs": [
        {
          "internalType": "address",
          "name": "from",
          "type": "address"
        },
        {
          "internalType": "address",
          "name": "to",
          "type": "address"
        },
        {
          "internalType": "uint256",
          "name": "tokenId",
          "type": "uint256"
        },
        {
          "internalType": "bytes",
          "name": "_data",
          "type": "bytes"
        }
      ],
      "name": "safeTransferFrom",
      "outputs": [],
      "stateMutability": "nonpayable",
      "type": "function"
    },
    {
      "inputs": [
        {
          "internalType": "address",
          "name": "operator",
          "type": "address"
        },
        {
          "internalType": "bool",
          "name": "approved",
          "type": "bool"
        }
      ],
      "name": "setApprovalForAll",
      "outputs": [],
      "stateMutability": "nonpayable",
      "type": "function"
    },
    {
      "inputs": [
        {
          "internalType": "bytes4",
          "name": "interfaceId",
          "type": "bytes4"
        }
      ],
      "name": "supportsInterface",
      "outputs": [
        {
          "internalType": "bool",
          "name": "",
          "type": "bool"
        }
      ],
      "stateMutability": "view",
      "type": "function",
      "constant": true
    },
    {
      "inputs": [],
      "name": "symbol",
      "outputs": [
        {
          "internalType": "string",
          "name": "",
          "type": "string"
        }
      ],
      "stateMutability": "view",
      "type": "function",
      "constant": true
    },
    {
      "inputs": [
        {
          "internalType": "uint256",
          "name": "tokenId",
          "type": "uint256"
        }
      ],
      "name": "tokenURI",
      "outputs": [
        {
          "internalType": "string",
          "name": "",
          "type": "string"
        }
      ],
      "stateMutability": "view",
      "type": "function",
      "constant": true
    },
    {
      "inputs": [
        {
          "internalType": "address",
          "name": "from",
          "type": "address"
        },
        {
          "internalType": "address",
          "name": "to",
          "type": "address"
        },
        {
          "internalType": "uint256",
          "name": "tokenId",
          "type": "uint256"
        }
      ],
      "name": "transferFrom",
      "outputs": [],
      "stateMutability": "nonpayable",
      "type": "function"
    },
    {
      "inputs": [
        {
          "internalType": "address",
          "name": "newOwner",
          "type": "address"
        }
      ],
      "name": "transferOwnership",
      "outputs": [],
      "stateMutability": "nonpayable",
      "type": "function"
    },
    {
      "inputs": [
        {
          "internalType": "string",
          "name": "_newBaseURI",
          "type": "string"
        }
      ],
      "name": "setBaseURI",
      "outputs": [],
      "stateMutability": "nonpayable",
      "type": "function"
    },
    {
      "inputs": [
        {
          "internalType": "bool",
          "name": "_state",
          "type": "bool"
        }
      ],
      "name": "pause",
      "outputs": [],
      "stateMutability": "nonpayable",
      "type": "function"
    },
    {
      "inputs": [
        {
          "internalType": "address",
          "name": "sender",
          "type": "address"
        },
        {
          "internalType": "string",
          "name": "uri",
          "type": "string"
        },
        {
          "internalType": "uint8[]",
          "name": "params8",
          "type": "uint8[]"
        },
        {
          "internalType": "uint256[]",
          "name": "params256",
          "type": "uint256[]"
        }
      ],
      "name": "mint",
      "outputs": [],
      "stateMutability": "nonpayable",
      "type": "function"
    },
    {
      "inputs": [
        {
          "internalType": "uint256",
          "name": "number",
          "type": "uint256"
        }
      ],
      "name": "multipleMint",
      "outputs": [],
      "stateMutability": "nonpayable",
      "type": "function"
    },
    {
      "inputs": [
        {
          "internalType": "address",
          "name": "from",
          "type": "address"
        },
        {
          "internalType": "address",
          "name": "to",
          "type": "address"
        },
        {
          "internalType": "uint256",
          "name": "tokenId",
          "type": "uint256"
        }
      ],
      "name": "transfer",
      "outputs": [],
      "stateMutability": "nonpayable",
      "type": "function"
    },
    {
      "inputs": [
        {
          "internalType": "string",
          "name": "keyParams",
          "type": "string"
        },
        {
          "internalType": "uint256",
          "name": "valueParams",
          "type": "uint256"
        }
      ],
      "name": "setParamsContract",
      "outputs": [],
      "stateMutability": "nonpayable",
      "type": "function"
    },
    {
      "inputs": [
        {
          "internalType": "string",
          "name": "keyParams",
          "type": "string"
        }
      ],
      "name": "getParamsContract",
      "outputs": [
        {
          "internalType": "uint256",
          "name": "",
          "type": "uint256"
        }
      ],
      "stateMutability": "view",
      "type": "function",
      "constant": true
    },
    {
      "inputs": [
        {
          "internalType": "address",
          "name": "_adress",
          "type": "address"
        }
      ],
      "name": "setAdressDelegateContract",
      "outputs": [],
      "stateMutability": "nonpayable",
      "type": "function"
    },
    {
      "inputs": [],
      "name": "getAdressDelegateContract",
      "outputs": [
        {
          "internalType": "address",
          "name": "",
          "type": "address"
        }
      ],
      "stateMutability": "view",
      "type": "function",
      "constant": true
    },
    {
      "inputs": [
        {
          "internalType": "uint256",
          "name": "tokenId",
          "type": "uint256"
        }
      ],
      "name": "getTokenDetails",
      "outputs": [
        {
          "components": [
            {
              "internalType": "address",
              "name": "addrOwner",
              "type": "address"
            },
            {
              "internalType": "string",
              "name": "uri",
              "type": "string"
            },
            {
              "internalType": "uint8[]",
              "name": "params8",
              "type": "uint8[]"
            },
            {
              "internalType": "uint256[]",
              "name": "params256",
              "type": "uint256[]"
            }
          ],
          "internalType": "struct TokenContract.Token",
          "name": "",
          "type": "tuple"
        }
      ],
      "stateMutability": "view",
      "type": "function",
      "constant": true
    },
    {
      "inputs": [],
      "name": "getAllToken",
      "outputs": [
        {
          "components": [
            {
              "internalType": "address",
              "name": "addrOwner",
              "type": "address"
            },
            {
              "internalType": "string",
              "name": "uri",
              "type": "string"
            },
            {
              "internalType": "uint8[]",
              "name": "params8",
              "type": "uint8[]"
            },
            {
              "internalType": "uint256[]",
              "name": "params256",
              "type": "uint256[]"
            }
          ],
          "internalType": "struct TokenContract.Token[]",
          "name": "",
          "type": "tuple[]"
        }
      ],
      "stateMutability": "view",
      "type": "function",
      "constant": true
    },
    {
      "inputs": [
        {
          "internalType": "uint256",
          "name": "tokenId",
          "type": "uint256"
        }
      ],
      "name": "getOwnerOf",
      "outputs": [
        {
          "internalType": "address",
          "name": "",
          "type": "address"
        }
      ],
      "stateMutability": "view",
      "type": "function",
      "constant": true
    },
    {
      "inputs": [
        {
          "components": [
            {
              "internalType": "address",
              "name": "addrOwner",
              "type": "address"
            },
            {
              "internalType": "string",
              "name": "uri",
              "type": "string"
            },
            {
              "internalType": "uint8[]",
              "name": "params8",
              "type": "uint8[]"
            },
            {
              "internalType": "uint256[]",
              "name": "params256",
              "type": "uint256[]"
            }
          ],
          "internalType": "struct TokenContract.Token",
          "name": "_token",
          "type": "tuple"
        },
        {
          "internalType": "uint256",
          "name": "tokenId",
          "type": "uint256"
        },
        {
          "internalType": "address",
          "name": "owner",
          "type": "address"
        }
      ],
      "name": "updateToken",
      "outputs": [],
      "stateMutability": "nonpayable",
      "type": "function"
    },
    {
      "inputs": [
        {
          "internalType": "uint256",
          "name": "tokenId",
          "type": "uint256"
        }
      ],
      "name": "burn",
      "outputs": [],
      "stateMutability": "nonpayable",
      "type": "function"
    }
  ],
  "bytecode": "0x60c06040526005608081905264173539b7b760d91b60a09081526200002891600c9190620001f7565b50600d805460ff191690553480156200004057600080fd5b5060405162002f4538038062002f45833981016040819052620000639162000354565b8351849084906200007c906000906020850190620001f7565b50805162000092906001906020840190620001f7565b505050620000af620000a96200012960201b60201c565b6200012d565b620000ba826200017f565b60056009604051620000de906b1c185c985b5cce10dbdd5b9d60a21b8152600c0190565b908152604051908190036020018120919091556d1c185c985b5ccc8d4d90dbdd5b9d60921b8152600590600990600e0190815260405190819003602001902055506200044092505050565b3390565b600780546001600160a01b038381166001600160a01b0319831681179093556040519116919082907f8be0079c531659141344cd1fd0a4f28419497f9722a3daafe3b4186f6b6457e090600090a35050565b6007546001600160a01b03163314620001de5760405162461bcd60e51b815260206004820181905260248201527f4f776e61626c653a2063616c6c6572206973206e6f7420746865206f776e6572604482015260640160405180910390fd5b8051620001f390600b906020840190620001f7565b5050565b8280546200020590620003ed565b90600052602060002090601f01602090048101928262000229576000855562000274565b82601f106200024457805160ff191683800117855562000274565b8280016001018555821562000274579182015b828111156200027457825182559160200191906001019062000257565b506200028292915062000286565b5090565b5b8082111562000282576000815560010162000287565b600082601f830112620002af57600080fd5b81516001600160401b0380821115620002cc57620002cc6200042a565b604051601f8301601f19908116603f01168101908282118183101715620002f757620002f76200042a565b816040528381526020925086838588010111156200031457600080fd5b600091505b8382101562000338578582018301518183018401529082019062000319565b838211156200034a5760008385830101525b9695505050505050565b600080600080608085870312156200036b57600080fd5b84516001600160401b03808211156200038357600080fd5b62000391888389016200029d565b95506020870151915080821115620003a857600080fd5b620003b6888389016200029d565b94506040870151915080821115620003cd57600080fd5b50620003dc878288016200029d565b606096909601519497939650505050565b600181811c908216806200040257607f821691505b602082108114156200042457634e487b7160e01b600052602260045260246000fd5b50919050565b634e487b7160e01b600052604160045260246000fd5b612af580620004506000396000f3fe608060405234801561001057600080fd5b50600436106101f05760003560e01c8063836387101161010f578063c6682862116100a2578063db7e9f1011610071578063db7e9f101461042c578063e985e9c51461043f578063f26bf0b71461047b578063f2fde38b1461048e57600080fd5b8063c6682862146103e8578063c87b56dd146103f0578063c8fe534414610403578063cc3727341461041957600080fd5b8063a22cb465116100de578063a22cb4651461038f578063b88d4fde146103a2578063beabacc8146103b5578063c1e03728146103c857600080fd5b8063836387101461034e57806385e3c1d4146103615780638da5cb5b1461037657806395d89b411461038757600080fd5b806342966c68116101875780636c0360eb116101565780636c0360eb1461030a57806370a0823114610312578063715018a61461033357806375895b131461033b57600080fd5b806342966c68146102be57806348972034146102d157806355f804b3146102e45780636352211e146102f757600080fd5b8063095ea7b3116101c3578063095ea7b31461027257806323b872dd146102855780633cb119441461029857806342842e0e146102ab57600080fd5b806301ffc9a7146101f557806302329a291461021d57806306fdde0314610232578063081812fc14610247575b600080fd5b610208610203366004612432565b6104a1565b60405190151581526020015b60405180910390f35b61023061022b366004612417565b6104f3565b005b61023a610539565b60405161021491906127c0565b61025a6102553660046125c6565b6105cb565b6040516001600160a01b039091168152602001610214565b6102306102803660046123ed565b610653565b61023061029336600461227e565b610769565b6102306102a63660046124a1565b61079a565b6102306102b936600461227e565b6107e9565b6102306102cc3660046125c6565b610804565b6102306102df366004612230565b610867565b6102306102f236600461246c565b6108b9565b61025a6103053660046125c6565b6108fa565b61023a610971565b610325610320366004612230565b6109ff565b604051908152602001610214565b610230610a86565b6102306103493660046125c6565b610abc565b61025a61035c3660046125c6565b610b23565b610369610b2e565b604051610214919061275e565b6007546001600160a01b031661025a565b61023a610d90565b61023061039d366004612336565b610d9f565b6102306103b03660046122ba565b610daa565b6102306103c336600461227e565b610de2565b6103db6103d63660046125c6565b610e54565b60405161021491906128ed565b61023a61101b565b61023a6103fe3660046125c6565b611028565b600d5461010090046001600160a01b031661025a565b610230610427366004612360565b611192565b61023061043a3660046124e6565b6112d0565b61020861044d36600461224b565b6001600160a01b03918216600090815260056020908152604080832093909416825291909152205460ff1690565b61032561048936600461246c565b611407565b61023061049c366004612230565b61142f565b60006001600160e01b031982166380ac58cd60e01b14806104d257506001600160e01b03198216635b5e139f60e01b145b806104ed57506301ffc9a760e01b6001600160e01b03198316145b92915050565b6007546001600160a01b031633146105265760405162461bcd60e51b815260040161051d90612867565b60405180910390fd5b600d805460ff1916911515919091179055565b606060008054610548906129ed565b80601f0160208091040260200160405190810160405280929190818152602001828054610574906129ed565b80156105c15780601f10610596576101008083540402835291602001916105c1565b820191906000526020600020905b8154815290600101906020018083116105a457829003601f168201915b5050505050905090565b60006105d6826114c7565b6106375760405162461bcd60e51b815260206004820152602c60248201527f4552433732313a20617070726f76656420717565727920666f72206e6f6e657860448201526b34b9ba32b73a103a37b5b2b760a11b606482015260840161051d565b506000908152600460205260409020546001600160a01b031690565b600061065e826108fa565b9050806001600160a01b0316836001600160a01b031614156106cc5760405162461bcd60e51b815260206004820152602160248201527f4552433732313a20617070726f76616c20746f2063757272656e74206f776e656044820152603960f91b606482015260840161051d565b336001600160a01b03821614806106e857506106e8813361044d565b61075a5760405162461bcd60e51b815260206004820152603860248201527f4552433732313a20617070726f76652063616c6c6572206973206e6f74206f7760448201527f6e6572206e6f7220617070726f76656420666f7220616c6c0000000000000000606482015260840161051d565b61076483836114e4565b505050565b6107733382611552565b61078f5760405162461bcd60e51b815260040161051d9061289c565b610764838383611638565b6007546001600160a01b031633146107c45760405162461bcd60e51b815260040161051d90612867565b806009836040516107d591906126d6565b908152604051908190036020019020555050565b61076483838360405180602001604052806000815250610daa565b600d5461010090046001600160a01b03163314806108305750600d5461010090046001600160a01b0316155b801561083f5750600d5460ff16155b61085b5760405162461bcd60e51b815260040161051d906127d3565b610864816117d4565b50565b6007546001600160a01b031633146108915760405162461bcd60e51b815260040161051d90612867565b600d80546001600160a01b0390921661010002610100600160a81b0319909216919091179055565b6007546001600160a01b031633146108e35760405162461bcd60e51b815260040161051d90612867565b80516108f690600b906020840190611ef3565b5050565b6000818152600260205260408120546001600160a01b0316806104ed5760405162461bcd60e51b815260206004820152602960248201527f4552433732313a206f776e657220717565727920666f72206e6f6e657869737460448201526832b73a103a37b5b2b760b91b606482015260840161051d565b600b805461097e906129ed565b80601f01602080910402602001604051908101604052809291908181526020018280546109aa906129ed565b80156109f75780601f106109cc576101008083540402835291602001916109f7565b820191906000526020600020905b8154815290600101906020018083116109da57829003601f168201915b505050505081565b60006001600160a01b038216610a6a5760405162461bcd60e51b815260206004820152602a60248201527f4552433732313a2062616c616e636520717565727920666f7220746865207a65604482015269726f206164647265737360b01b606482015260840161051d565b506001600160a01b031660009081526003602052604090205490565b6007546001600160a01b03163314610ab05760405162461bcd60e51b815260040161051d90612867565b610aba6000611814565b565b6007546001600160a01b03163314610ae65760405162461bcd60e51b815260040161051d90612867565b60005b818110156108f657610b0333610afe60085490565b611866565b610b11600880546001019055565b80610b1b81612a22565b915050610ae9565b60006104ed826108fa565b60606000610b3b60085490565b67ffffffffffffffff811115610b5357610b53612a93565b604051908082528060200260200182016040528015610bb857816020015b610ba5604051806080016040528060006001600160a01b031681526020016060815260200160608152602001606081525090565b815260200190600190039081610b715790505b50905060005b600854811015610d8a576000818152600a602090815260409182902082516080810190935280546001600160a01b0316835260018101805491939284929084019190610c09906129ed565b80601f0160208091040260200160405190810160405280929190818152602001828054610c35906129ed565b8015610c825780601f10610c5757610100808354040283529160200191610c82565b820191906000526020600020905b815481529060010190602001808311610c6557829003601f168201915b5050505050815260200160028201805480602002602001604051908101604052809291908181526020018280548015610cf857602002820191906000526020600020906000905b825461010083900a900460ff16815260206001928301818104948501949093039092029101808411610cc95790505b5050505050815260200160038201805480602002602001604051908101604052809291908181526020018280548015610d5057602002820191906000526020600020905b815481526020019060010190808311610d3c575b505050505081525050838381518110610d6b57610d6b612a7d565b6020026020010181905250508080610d8290612a22565b915050610bbe565b50919050565b606060018054610548906129ed565b6108f6338383611880565b610db43383611552565b610dd05760405162461bcd60e51b815260040161051d9061289c565b610ddc8484848461194f565b50505050565b600d5461010090046001600160a01b0316331480610e0e5750600d5461010090046001600160a01b0316155b8015610e1d5750600d5460ff16155b610e395760405162461bcd60e51b815260040161051d906127d3565b6107648383836040518060200160405280600081525061194f565b610e88604051806080016040528060006001600160a01b031681526020016060815260200160608152602001606081525090565b6000828152600a602090815260409182902082516080810190935280546001600160a01b031683526001810180549192840191610ec4906129ed565b80601f0160208091040260200160405190810160405280929190818152602001828054610ef0906129ed565b8015610f3d5780601f10610f1257610100808354040283529160200191610f3d565b820191906000526020600020905b815481529060010190602001808311610f2057829003601f168201915b5050505050815260200160028201805480602002602001604051908101604052809291908181526020018280548015610fb357602002820191906000526020600020906000905b825461010083900a900460ff16815260206001928301818104948501949093039092029101808411610f845790505b505050505081526020016003820180548060200260200160405190810160405280929190818152602001828054801561100b57602002820191906000526020600020905b815481526020019060010190808311610ff7575b5050505050815250509050919050565b600c805461097e906129ed565b6060611033826114c7565b6110995760405162461bcd60e51b815260206004820152603160248201527f45524337323155524953746f726167653a2055524920717565727920666f72206044820152703737b732bc34b9ba32b73a103a37b5b2b760791b606482015260840161051d565b600082815260066020526040812080546110b2906129ed565b80601f01602080910402602001604051908101604052809291908181526020018280546110de906129ed565b801561112b5780601f106111005761010080835404028352916020019161112b565b820191906000526020600020905b81548152906001019060200180831161110e57829003601f168201915b50505050509050600061113c611982565b905080516000141561114f575092915050565b8151156111815780826040516020016111699291906126f2565b60405160208183030381529060405292505050919050565b61118a84611991565b949350505050565b600d5461010090046001600160a01b03163314806111be5750600d5461010090046001600160a01b0316155b80156111cd5750600d5460ff16155b6111e95760405162461bcd60e51b815260040161051d906127d3565b6040518060800160405280856001600160a01b0316815260200184815260200183815260200182815250600a600061122060085490565b8152602080820192909252604001600020825181546001600160a01b0319166001600160a01b03909116178155828201518051919261126792600185019290910190611ef3565b5060408201518051611283916002840191602090910190611f77565b506060820151805161129f916003840191602090910190612018565b509050506112b084610afe60085490565b6112c26112bc60085490565b84611a5c565b610ddc600880546001019055565b600d5461010090046001600160a01b03163314806112fc5750600d5461010090046001600160a01b0316155b801561130b5750600d5460ff16155b6113275760405162461bcd60e51b815260040161051d906127d3565b806001600160a01b031661133a836108fa565b6001600160a01b0316146113815760405162461bcd60e51b815260206004820152600e60248201526d2737ba102cb7bab9103a37b5b2b760911b604482015260640161051d565b6000828152600a60209081526040909120845181546001600160a01b0319166001600160a01b0390911617815584820151805186936113c7926001850192910190611ef3565b50604082015180516113e3916002840191602090910190611f77565b50606082015180516113ff916003840191602090910190612018565b505050505050565b600060098260405161141991906126d6565b9081526020016040518091039020549050919050565b6007546001600160a01b031633146114595760405162461bcd60e51b815260040161051d90612867565b6001600160a01b0381166114be5760405162461bcd60e51b815260206004820152602660248201527f4f776e61626c653a206e6577206f776e657220697320746865207a65726f206160448201526564647265737360d01b606482015260840161051d565b61086481611814565b6000908152600260205260409020546001600160a01b0316151590565b600081815260046020526040902080546001600160a01b0319166001600160a01b0384169081179091558190611519826108fa565b6001600160a01b03167f8c5be1e5ebec7d5bd14f71427d1e84f3dd0314c0f7b2291e5b200ac8c7c3b92560405160405180910390a45050565b600061155d826114c7565b6115be5760405162461bcd60e51b815260206004820152602c60248201527f4552433732313a206f70657261746f7220717565727920666f72206e6f6e657860448201526b34b9ba32b73a103a37b5b2b760a11b606482015260840161051d565b60006115c9836108fa565b9050806001600160a01b0316846001600160a01b031614806116045750836001600160a01b03166115f9846105cb565b6001600160a01b0316145b8061118a57506001600160a01b0380821660009081526005602090815260408083209388168352929052205460ff1661118a565b826001600160a01b031661164b826108fa565b6001600160a01b0316146116af5760405162461bcd60e51b815260206004820152602560248201527f4552433732313a207472616e736665722066726f6d20696e636f72726563742060448201526437bbb732b960d91b606482015260840161051d565b6001600160a01b0382166117115760405162461bcd60e51b8152602060048201526024808201527f4552433732313a207472616e7366657220746f20746865207a65726f206164646044820152637265737360e01b606482015260840161051d565b61171c6000826114e4565b6001600160a01b03831660009081526003602052604081208054600192906117459084906129aa565b90915550506001600160a01b038216600090815260036020526040812080546001929061177390849061297e565b909155505060008181526002602052604080822080546001600160a01b0319166001600160a01b0386811691821790925591518493918716917fddf252ad1be2c89b69c2b068fc378daa952ba7f163c4a11628f55a4df523b3ef91a4505050565b6117dd81611ae7565b600081815260066020526040902080546117f6906129ed565b15905061086457600081815260066020526040812061086491612052565b600780546001600160a01b038381166001600160a01b0319831681179093556040519116919082907f8be0079c531659141344cd1fd0a4f28419497f9722a3daafe3b4186f6b6457e090600090a35050565b6108f6828260405180602001604052806000815250611b82565b816001600160a01b0316836001600160a01b031614156118e25760405162461bcd60e51b815260206004820152601960248201527f4552433732313a20617070726f766520746f2063616c6c657200000000000000604482015260640161051d565b6001600160a01b03838116600081815260056020908152604080832094871680845294825291829020805460ff191686151590811790915591519182527f17307eab39ab6107e8899845ad3d59bd9653f200f220920489ca2b5937696c31910160405180910390a3505050565b61195a848484611638565b61196684848484611bb5565b610ddc5760405162461bcd60e51b815260040161051d90612815565b6060600b8054610548906129ed565b606061199c826114c7565b611a005760405162461bcd60e51b815260206004820152602f60248201527f4552433732314d657461646174613a2055524920717565727920666f72206e6f60448201526e3732bc34b9ba32b73a103a37b5b2b760891b606482015260840161051d565b6000611a0a611982565b90506000815111611a2a5760405180602001604052806000815250611a55565b80611a3484611cc2565b604051602001611a459291906126f2565b6040516020818303038152906040525b9392505050565b611a65826114c7565b611ac85760405162461bcd60e51b815260206004820152602e60248201527f45524337323155524953746f726167653a2055524920736574206f66206e6f6e60448201526d32bc34b9ba32b73a103a37b5b2b760911b606482015260840161051d565b6000828152600660209081526040909120825161076492840190611ef3565b6000611af2826108fa565b9050611aff6000836114e4565b6001600160a01b0381166000908152600360205260408120805460019290611b289084906129aa565b909155505060008281526002602052604080822080546001600160a01b0319169055518391906001600160a01b038416907fddf252ad1be2c89b69c2b068fc378daa952ba7f163c4a11628f55a4df523b3ef908390a45050565b611b8c8383611dc0565b611b996000848484611bb5565b6107645760405162461bcd60e51b815260040161051d90612815565b60006001600160a01b0384163b15611cb757604051630a85bd0160e11b81526001600160a01b0385169063150b7a0290611bf9903390899088908890600401612721565b602060405180830381600087803b158015611c1357600080fd5b505af1925050508015611c43575060408051601f3d908101601f19168201909252611c409181019061244f565b60015b611c9d573d808015611c71576040519150601f19603f3d011682016040523d82523d6000602084013e611c76565b606091505b508051611c955760405162461bcd60e51b815260040161051d90612815565b805181602001fd5b6001600160e01b031916630a85bd0160e11b14905061118a565b506001949350505050565b606081611ce65750506040805180820190915260018152600360fc1b602082015290565b8160005b8115611d105780611cfa81612a22565b9150611d099050600a83612996565b9150611cea565b60008167ffffffffffffffff811115611d2b57611d2b612a93565b6040519080825280601f01601f191660200182016040528015611d55576020820181803683370190505b5090505b841561118a57611d6a6001836129aa565b9150611d77600a86612a3d565b611d8290603061297e565b60f81b818381518110611d9757611d97612a7d565b60200101906001600160f81b031916908160001a905350611db9600a86612996565b9450611d59565b6001600160a01b038216611e165760405162461bcd60e51b815260206004820181905260248201527f4552433732313a206d696e7420746f20746865207a65726f2061646472657373604482015260640161051d565b611e1f816114c7565b15611e6c5760405162461bcd60e51b815260206004820152601c60248201527f4552433732313a20746f6b656e20616c7265616479206d696e74656400000000604482015260640161051d565b6001600160a01b0382166000908152600360205260408120805460019290611e9590849061297e565b909155505060008181526002602052604080822080546001600160a01b0319166001600160a01b03861690811790915590518392907fddf252ad1be2c89b69c2b068fc378daa952ba7f163c4a11628f55a4df523b3ef908290a45050565b828054611eff906129ed565b90600052602060002090601f016020900481019282611f215760008555611f67565b82601f10611f3a57805160ff1916838001178555611f67565b82800160010185558215611f67579182015b82811115611f67578251825591602001919060010190611f4c565b50611f73929150612088565b5090565b82805482825590600052602060002090601f01602090048101928215611f675791602002820160005b83821115611fde57835183826101000a81548160ff021916908360ff1602179055509260200192600101602081600001049283019260010302611fa0565b801561200b5782816101000a81549060ff0219169055600101602081600001049283019260010302611fde565b5050611f73929150612088565b828054828255906000526020600020908101928215611f675791602002820182811115611f67578251825591602001919060010190611f4c565b50805461205e906129ed565b6000825580601f1061206e575050565b601f01602090049060005260206000209081019061086491905b5b80821115611f735760008155600101612089565b600067ffffffffffffffff8311156120b7576120b7612a93565b6120ca601f8401601f1916602001612929565b90508281528383830111156120de57600080fd5b828260208301376000602084830101529392505050565b80356001600160a01b038116811461210c57600080fd5b919050565b600082601f83011261212257600080fd5b813560206121376121328361295a565b612929565b80838252828201915082860187848660051b890101111561215757600080fd5b60005b858110156121765781358452928401929084019060010161215a565b5090979650505050505050565b600082601f83011261219457600080fd5b813560206121a46121328361295a565b80838252828201915082860187848660051b89010111156121c457600080fd5b6000805b868110156121f257823560ff811681146121e0578283fd5b855293850193918501916001016121c8565b509198975050505050505050565b8035801515811461210c57600080fd5b600082601f83011261222157600080fd5b611a558383356020850161209d565b60006020828403121561224257600080fd5b611a55826120f5565b6000806040838503121561225e57600080fd5b612267836120f5565b9150612275602084016120f5565b90509250929050565b60008060006060848603121561229357600080fd5b61229c846120f5565b92506122aa602085016120f5565b9150604084013590509250925092565b600080600080608085870312156122d057600080fd5b6122d9856120f5565b93506122e7602086016120f5565b925060408501359150606085013567ffffffffffffffff81111561230a57600080fd5b8501601f8101871361231b57600080fd5b61232a8782356020840161209d565b91505092959194509250565b6000806040838503121561234957600080fd5b612352836120f5565b915061227560208401612200565b6000806000806080858703121561237657600080fd5b61237f856120f5565b9350602085013567ffffffffffffffff8082111561239c57600080fd5b6123a888838901612210565b945060408701359150808211156123be57600080fd5b6123ca88838901612183565b935060608701359150808211156123e057600080fd5b5061232a87828801612111565b6000806040838503121561240057600080fd5b612409836120f5565b946020939093013593505050565b60006020828403121561242957600080fd5b611a5582612200565b60006020828403121561244457600080fd5b8135611a5581612aa9565b60006020828403121561246157600080fd5b8151611a5581612aa9565b60006020828403121561247e57600080fd5b813567ffffffffffffffff81111561249557600080fd5b61118a84828501612210565b600080604083850312156124b457600080fd5b823567ffffffffffffffff8111156124cb57600080fd5b6124d785828601612210565b95602094909401359450505050565b6000806000606084860312156124fb57600080fd5b833567ffffffffffffffff8082111561251357600080fd5b908501906080828803121561252757600080fd5b61252f612900565b612538836120f5565b815260208301358281111561254c57600080fd5b61255889828601612210565b60208301525060408301358281111561257057600080fd5b61257c89828601612183565b60408301525060608301358281111561259457600080fd5b6125a089828601612111565b60608301525094505050602084013591506125bd604085016120f5565b90509250925092565b6000602082840312156125d857600080fd5b5035919050565b600081518084526020808501945080840160005b8381101561260f578151875295820195908201906001016125f3565b509495945050505050565b600081518084526126328160208601602086016129c1565b601f01601f19169290920160200192915050565b60018060a01b038151168252600060208083015160808286015261266d608086018261261a565b60408581015187830391880191909152805180835290840192506000918401905b808310156126b157835160ff16825292840192600192909201919084019061268e565b506060860151935086810360608801526126cb81856125df565b979650505050505050565b600082516126e88184602087016129c1565b9190910192915050565b600083516127048184602088016129c1565b8351908301906127188183602088016129c1565b01949350505050565b6001600160a01b03858116825284166020820152604081018390526080606082018190526000906127549083018461261a565b9695505050505050565b6000602080830181845280855180835260408601915060408160051b870101925083870160005b828110156127b357603f198886030184526127a1858351612646565b94509285019290850190600101612785565b5092979650505050505050565b602081526000611a55602083018461261a565b60208082526022908201527f4e6f7420676f6f6420616464726573732064656c656761746520636f6e74726160408201526118dd60f21b606082015260800190565b60208082526032908201527f4552433732313a207472616e7366657220746f206e6f6e20455243373231526560408201527131b2b4bb32b91034b6b83632b6b2b73a32b960711b606082015260800190565b6020808252818101527f4f776e61626c653a2063616c6c6572206973206e6f7420746865206f776e6572604082015260600190565b60208082526031908201527f4552433732313a207472616e736665722063616c6c6572206973206e6f74206f6040820152701ddb995c881b9bdc88185c1c1c9bdd9959607a1b606082015260800190565b602081526000611a556020830184612646565b6040516080810167ffffffffffffffff8111828210171561292357612923612a93565b60405290565b604051601f8201601f1916810167ffffffffffffffff8111828210171561295257612952612a93565b604052919050565b600067ffffffffffffffff82111561297457612974612a93565b5060051b60200190565b6000821982111561299157612991612a51565b500190565b6000826129a5576129a5612a67565b500490565b6000828210156129bc576129bc612a51565b500390565b60005b838110156129dc5781810151838201526020016129c4565b83811115610ddc5750506000910152565b600181811c90821680612a0157607f821691505b60208210811415610d8a57634e487b7160e01b600052602260045260246000fd5b6000600019821415612a3657612a36612a51565b5060010190565b600082612a4c57612a4c612a67565b500690565b634e487b7160e01b600052601160045260246000fd5b634e487b7160e01b600052601260045260246000fd5b634e487b7160e01b600052603260045260246000fd5b634e487b7160e01b600052604160045260246000fd5b6001600160e01b03198116811461086457600080fdfea2646970667358221220986bffe967e49a5fe5e364c212ef4054862a75a5df7215e70cc598367a1d9fe364736f6c63430008060033",
  "immutableReferences": {},
  "source": "// SPDX-License-Identifier: MIT\r\n// ADMIN CONTROLLER\r\npragma solidity ^0.8.0;\r\n\r\nimport '@openzeppelin/contracts/token/ERC721/extensions/ERC721URIStorage.sol';\r\nimport '@openzeppelin/contracts/access/Ownable.sol';\r\nimport '@openzeppelin/contracts/utils/Counters.sol';\r\nimport './AuctionContract.sol';\r\n\r\ncontract TokenContract is ERC721URIStorage, Ownable {\r\n    using Strings for uint256;\r\n    using Counters for Counters.Counter;\r\n    Counters.Counter private _tokenIdTracker;\r\n    \r\n    /*\r\n    Object of Token\r\n     */\r\n    struct Token {\r\n        address addrOwner;\r\n        string uri;\r\n        uint8[] params8;\r\n        uint256[] params256;\r\n    }\r\n\r\n    mapping( string => uint ) paramsContract;\r\n    mapping( uint256 => Token ) private _tokenDetails;\r\n    string public baseURI;\r\n    string public baseExtension = \".json\";\r\n    bool paused = false;\r\n    address adressDelegateContract;\r\n\r\n    constructor(string memory name, string memory symbol, string memory _initBaseURI,uint256 mintNumber) ERC721(name, symbol){\r\n        setBaseURI(_initBaseURI);\r\n        paramsContract[\"params8Count\"] = 5;\r\n        paramsContract[\"params256Count\"] = 5;\r\n        //multipleMint(mintNumber);\r\n    }\r\n\r\n    function _baseURI() internal view virtual override returns (string memory) {\r\n        return baseURI;\r\n    }\r\n\r\n    function setBaseURI(string memory _newBaseURI) public onlyOwner {\r\n        baseURI = _newBaseURI;\r\n    }\r\n\r\n    /*function tokenURI(uint256 tokenId) public view virtual override returns (string memory) {\r\n        require( _exists(tokenId), \"ERC721Metadata: URI query for nonexistent token\" );\r\n        string memory currentBaseURI = _baseURI();\r\n        return bytes(currentBaseURI).length > 0 ? string(abi.encodePacked(currentBaseURI, tokenId.toString(), baseExtension)) : \"\";\r\n    }*/\r\n\r\n    /**\r\n    All functions using this modifier can only be called by the delegation contract\r\n     */\r\n    modifier byDelegate() {\r\n        require((msg.sender == adressDelegateContract || adressDelegateContract == address(0))&& !paused,\"Not good address delegate contract\");\r\n        _;\r\n    }\r\n\r\n    /**\r\n    Temporarily lock the contract\r\n     */\r\n    function pause(bool _state) external onlyOwner {\r\n        paused = _state;\r\n    }\r\n\r\n    /**\r\n    Mint a token with parameter send in function argument \r\n     */\r\n    function mint(address sender, string memory uri, uint8[] memory params8, uint256[] memory params256) external byDelegate {\r\n        _tokenDetails[_tokenIdTracker.current()] = Token(sender,uri,params8,params256);\r\n        _safeMint(sender, _tokenIdTracker.current());\r\n        _setTokenURI(_tokenIdTracker.current(),uri);\r\n        _tokenIdTracker.increment();\r\n    }\r\n\r\n    function multipleMint(uint256 number) external onlyOwner {\r\n        //uint8[] memory params8 = new uint8[](paramsContract[\"params8Count\"]);\r\n        //uint256[] memory params256 = new uint256[](paramsContract[\"params256Count\"]);\r\n        for (uint256 index = 0; index < number; index++) {\r\n            //_tokenDetails[_tokenIdTracker.current()] = Token(msg.sender,uri,params8,params256);\r\n            _safeMint(msg.sender, _tokenIdTracker.current());\r\n            //_setTokenURI(_tokenIdTracker.current(),uri);\r\n            _tokenIdTracker.increment();\r\n        }\r\n    }\r\n\r\n    /**\r\n    Safe transfer one token to another address\r\n     */\r\n    function transfer(address from, address to ,uint256 tokenId) external byDelegate {\r\n        _safeTransfer(from, to, tokenId, \"\");\r\n    }\r\n\r\n    /**\r\n    Set array of contract's parameter dynamicaly, possibility of add an infinite of parameters\r\n     */\r\n    function setParamsContract(string memory keyParams, uint valueParams) external onlyOwner {\r\n        paramsContract[keyParams] = valueParams;\r\n    }\r\n\r\n    /**\r\n    Get value of one element of array parameter of contract\r\n     */\r\n    function getParamsContract(string memory keyParams) external view returns (uint){\r\n        return paramsContract[keyParams];\r\n    }\r\n\r\n    /**\r\n    Update the only address that will be able to call on the token contract \r\n    */\r\n    function setAdressDelegateContract(address _adress) external onlyOwner {\r\n        adressDelegateContract = _adress;\r\n    }\r\n\r\n    function getAdressDelegateContract() external view returns (address){\r\n        return adressDelegateContract;\r\n    }\r\n\r\n    function getTokenDetails(uint256 tokenId) external view returns (Token memory){\r\n        return _tokenDetails[tokenId];\r\n    }\r\n\r\n    function getAllToken() external view returns (Token[] memory){\r\n        Token[] memory result = new Token[](_tokenIdTracker.current());\r\n        for(uint256 i = 0; i < _tokenIdTracker.current(); i++){\r\n            Token storage _token = _tokenDetails[i];\r\n            result[i] = _token;\r\n        }\r\n        return result;\r\n    }\r\n\r\n    function getOwnerOf(uint256 tokenId) external view returns (address) {\r\n        return ownerOf(tokenId);\r\n    }\r\n\r\n    /**\r\n    update the values of the token structure dynamicaly\r\n    */\r\n    function updateToken(Token memory _token,uint256 tokenId,address owner) external byDelegate {\r\n        require(ownerOf(tokenId) == owner,\"Not Your token\");\r\n        _tokenDetails[tokenId] = _token;\r\n    }\r\n    \r\n    /**\r\n    Burn a token (Useless for this project, but it's always good to have one)\r\n     */\r\n    function burn(uint256 tokenId) external byDelegate {\r\n        _burn(tokenId);\r\n    }\r\n\r\n}\r\n",
  "sourcePath": "C:\\Users\\KevinDell'ova\\Desktop\\Inverse contracts\\contracts\\TokenContract.sol",
  "compiler": {
    "name": "solc",
    "version": "0.8.6+commit.11564f7e.Emscripten.clang"
  },
  "schemaVersion": "3.4.4",
  "updatedAt": "2022-03-08T10:34:37.664Z",
  "networkType": "ethereum",
  "devdoc": {
    "kind": "dev",
    "methods": {
      "approve(address,uint256)": {
        "details": "See {IERC721-approve}."
      },
      "balanceOf(address)": {
        "details": "See {IERC721-balanceOf}."
      },
      "getApproved(uint256)": {
        "details": "See {IERC721-getApproved}."
      },
      "isApprovedForAll(address,address)": {
        "details": "See {IERC721-isApprovedForAll}."
      },
      "name()": {
        "details": "See {IERC721Metadata-name}."
      },
      "owner()": {
        "details": "Returns the address of the current owner."
      },
      "ownerOf(uint256)": {
        "details": "See {IERC721-ownerOf}."
      },
      "renounceOwnership()": {
        "details": "Leaves the contract without owner. It will not be possible to call `onlyOwner` functions anymore. Can only be called by the current owner. NOTE: Renouncing ownership will leave the contract without an owner, thereby removing any functionality that is only available to the owner."
      },
      "safeTransferFrom(address,address,uint256)": {
        "details": "See {IERC721-safeTransferFrom}."
      },
      "safeTransferFrom(address,address,uint256,bytes)": {
        "details": "See {IERC721-safeTransferFrom}."
      },
      "setApprovalForAll(address,bool)": {
        "details": "See {IERC721-setApprovalForAll}."
      },
      "supportsInterface(bytes4)": {
        "details": "See {IERC165-supportsInterface}."
      },
      "symbol()": {
        "details": "See {IERC721Metadata-symbol}."
      },
      "tokenURI(uint256)": {
        "details": "See {IERC721Metadata-tokenURI}."
      },
      "transferFrom(address,address,uint256)": {
        "details": "See {IERC721-transferFrom}."
      },
      "transferOwnership(address)": {
        "details": "Transfers ownership of the contract to a new account (`newOwner`). Can only be called by the current owner."
      }
    },
    "version": 1
  },
  "userdoc": {
    "kind": "user",
    "methods": {
      "burn(uint256)": {
        "notice": "Burn a token (Useless for this project, but it's always good to have one)"
      },
      "getParamsContract(string)": {
        "notice": "Get value of one element of array parameter of contract"
      },
      "mint(address,string,uint8[],uint256[])": {
        "notice": "Mint a token with parameter send in function argument "
      },
      "pause(bool)": {
        "notice": "Temporarily lock the contract"
      },
      "setAdressDelegateContract(address)": {
        "notice": "Update the only address that will be able to call on the token contract "
      },
      "setParamsContract(string,uint256)": {
        "notice": "Set array of contract's parameter dynamicaly, possibility of add an infinite of parameters"
      },
      "transfer(address,address,uint256)": {
        "notice": "Safe transfer one token to another address"
      },
      "updateToken((address,string,uint8[],uint256[]),uint256,address)": {
        "notice": "update the values of the token structure dynamicaly"
      }
    },
    "version": 1
  }
}