{
  "contractName": "INERC1155",
  "abi": [
    {
      "inputs": [
        {
          "internalType": "string",
          "name": "_initBaseURI",
          "type": "string"
        },
        {
          "internalType": "bool",
          "name": "_lazy",
          "type": "bool"
        },
        {
          "internalType": "address",
          "name": "_addressLoger",
          "type": "address"
        }
      ],
      "stateMutability": "nonpayable",
      "type": "constructor"
    },
    {
      "anonymous": false,
      "inputs": [
        {
          "indexed": true,
          "internalType": "address",
          "name": "account",
          "type": "address"
        },
        {
          "indexed": true,
          "internalType": "address",
          "name": "operator",
          "type": "address"
        },
        {
          "indexed": false,
          "internalType": "bool",
          "name": "approved",
          "type": "bool"
        }
      ],
      "name": "ApprovalForAll",
      "type": "event"
    },
    {
      "anonymous": false,
      "inputs": [
        {
          "indexed": true,
          "internalType": "address",
          "name": "_to",
          "type": "address"
        },
        {
          "indexed": false,
          "internalType": "uint256",
          "name": "_tokenId",
          "type": "uint256"
        },
        {
          "indexed": false,
          "internalType": "string",
          "name": "uri",
          "type": "string"
        },
        {
          "indexed": false,
          "internalType": "uint256",
          "name": "amount",
          "type": "uint256"
        }
      ],
      "name": "Mints",
      "type": "event"
    },
    {
      "anonymous": false,
      "inputs": [
        {
          "indexed": true,
          "internalType": "address",
          "name": "previousOwner",
          "type": "address"
        },
        {
          "indexed": true,
          "internalType": "address",
          "name": "newOwner",
          "type": "address"
        }
      ],
      "name": "OwnershipTransferred",
      "type": "event"
    },
    {
      "anonymous": false,
      "inputs": [
        {
          "indexed": false,
          "internalType": "uint256",
          "name": "tokenId",
          "type": "uint256"
        },
        {
          "components": [
            {
              "internalType": "address payable",
              "name": "account",
              "type": "address"
            },
            {
              "internalType": "uint96",
              "name": "value",
              "type": "uint96"
            }
          ],
          "indexed": false,
          "internalType": "struct LibPart.Part[]",
          "name": "royalties",
          "type": "tuple[]"
        }
      ],
      "name": "RoyaltiesSet",
      "type": "event"
    },
    {
      "anonymous": false,
      "inputs": [
        {
          "indexed": true,
          "internalType": "address",
          "name": "operator",
          "type": "address"
        },
        {
          "indexed": true,
          "internalType": "address",
          "name": "from",
          "type": "address"
        },
        {
          "indexed": true,
          "internalType": "address",
          "name": "to",
          "type": "address"
        },
        {
          "indexed": false,
          "internalType": "uint256[]",
          "name": "ids",
          "type": "uint256[]"
        },
        {
          "indexed": false,
          "internalType": "uint256[]",
          "name": "values",
          "type": "uint256[]"
        }
      ],
      "name": "TransferBatch",
      "type": "event"
    },
    {
      "anonymous": false,
      "inputs": [
        {
          "indexed": true,
          "internalType": "address",
          "name": "operator",
          "type": "address"
        },
        {
          "indexed": true,
          "internalType": "address",
          "name": "from",
          "type": "address"
        },
        {
          "indexed": true,
          "internalType": "address",
          "name": "to",
          "type": "address"
        },
        {
          "indexed": false,
          "internalType": "uint256",
          "name": "id",
          "type": "uint256"
        },
        {
          "indexed": false,
          "internalType": "uint256",
          "name": "value",
          "type": "uint256"
        }
      ],
      "name": "TransferSingle",
      "type": "event"
    },
    {
      "anonymous": false,
      "inputs": [
        {
          "indexed": false,
          "internalType": "string",
          "name": "value",
          "type": "string"
        },
        {
          "indexed": true,
          "internalType": "uint256",
          "name": "id",
          "type": "uint256"
        }
      ],
      "name": "URI",
      "type": "event"
    },
    {
      "inputs": [
        {
          "internalType": "address",
          "name": "account",
          "type": "address"
        },
        {
          "internalType": "uint256",
          "name": "id",
          "type": "uint256"
        }
      ],
      "name": "balanceOf",
      "outputs": [
        {
          "internalType": "uint256",
          "name": "",
          "type": "uint256"
        }
      ],
      "stateMutability": "view",
      "type": "function"
    },
    {
      "inputs": [
        {
          "internalType": "address[]",
          "name": "accounts",
          "type": "address[]"
        },
        {
          "internalType": "uint256[]",
          "name": "ids",
          "type": "uint256[]"
        }
      ],
      "name": "balanceOfBatch",
      "outputs": [
        {
          "internalType": "uint256[]",
          "name": "",
          "type": "uint256[]"
        }
      ],
      "stateMutability": "view",
      "type": "function"
    },
    {
      "inputs": [],
      "name": "baseExtension",
      "outputs": [
        {
          "internalType": "bytes16",
          "name": "",
          "type": "bytes16"
        }
      ],
      "stateMutability": "view",
      "type": "function"
    },
    {
      "inputs": [],
      "name": "baseURI",
      "outputs": [
        {
          "internalType": "string",
          "name": "",
          "type": "string"
        }
      ],
      "stateMutability": "view",
      "type": "function"
    },
    {
      "inputs": [
        {
          "internalType": "uint256",
          "name": "id",
          "type": "uint256"
        }
      ],
      "name": "getRaribleV2Royalties",
      "outputs": [
        {
          "components": [
            {
              "internalType": "address payable",
              "name": "account",
              "type": "address"
            },
            {
              "internalType": "uint96",
              "name": "value",
              "type": "uint96"
            }
          ],
          "internalType": "struct LibPart.Part[]",
          "name": "",
          "type": "tuple[]"
        }
      ],
      "stateMutability": "view",
      "type": "function"
    },
    {
      "inputs": [
        {
          "internalType": "address",
          "name": "account",
          "type": "address"
        },
        {
          "internalType": "address",
          "name": "operator",
          "type": "address"
        }
      ],
      "name": "isApprovedForAll",
      "outputs": [
        {
          "internalType": "bool",
          "name": "",
          "type": "bool"
        }
      ],
      "stateMutability": "view",
      "type": "function"
    },
    {
      "inputs": [],
      "name": "owner",
      "outputs": [
        {
          "internalType": "address",
          "name": "",
          "type": "address"
        }
      ],
      "stateMutability": "view",
      "type": "function"
    },
    {
      "inputs": [],
      "name": "renounceOwnership",
      "outputs": [],
      "stateMutability": "nonpayable",
      "type": "function"
    },
    {
      "inputs": [
        {
          "internalType": "uint256",
          "name": "",
          "type": "uint256"
        },
        {
          "internalType": "uint256",
          "name": "",
          "type": "uint256"
        }
      ],
      "name": "royalties",
      "outputs": [
        {
          "internalType": "address payable",
          "name": "account",
          "type": "address"
        },
        {
          "internalType": "uint96",
          "name": "value",
          "type": "uint96"
        }
      ],
      "stateMutability": "view",
      "type": "function"
    },
    {
      "inputs": [
        {
          "internalType": "address",
          "name": "from",
          "type": "address"
        },
        {
          "internalType": "address",
          "name": "to",
          "type": "address"
        },
        {
          "internalType": "uint256[]",
          "name": "ids",
          "type": "uint256[]"
        },
        {
          "internalType": "uint256[]",
          "name": "amounts",
          "type": "uint256[]"
        },
        {
          "internalType": "bytes",
          "name": "data",
          "type": "bytes"
        }
      ],
      "name": "safeBatchTransferFrom",
      "outputs": [],
      "stateMutability": "nonpayable",
      "type": "function"
    },
    {
      "inputs": [
        {
          "internalType": "address",
          "name": "from",
          "type": "address"
        },
        {
          "internalType": "address",
          "name": "to",
          "type": "address"
        },
        {
          "internalType": "uint256",
          "name": "id",
          "type": "uint256"
        },
        {
          "internalType": "uint256",
          "name": "amount",
          "type": "uint256"
        },
        {
          "internalType": "bytes",
          "name": "data",
          "type": "bytes"
        }
      ],
      "name": "safeTransferFrom",
      "outputs": [],
      "stateMutability": "nonpayable",
      "type": "function"
    },
    {
      "inputs": [
        {
          "internalType": "address",
          "name": "operator",
          "type": "address"
        },
        {
          "internalType": "bool",
          "name": "approved",
          "type": "bool"
        }
      ],
      "name": "setApprovalForAll",
      "outputs": [],
      "stateMutability": "nonpayable",
      "type": "function"
    },
    {
      "inputs": [
        {
          "internalType": "address",
          "name": "newOwner",
          "type": "address"
        }
      ],
      "name": "transferOwnership",
      "outputs": [],
      "stateMutability": "nonpayable",
      "type": "function"
    },
    {
      "inputs": [],
      "name": "getLazyMint",
      "outputs": [
        {
          "internalType": "bool",
          "name": "",
          "type": "bool"
        }
      ],
      "stateMutability": "view",
      "type": "function"
    },
    {
      "inputs": [
        {
          "internalType": "bytes4",
          "name": "interfaceId",
          "type": "bytes4"
        }
      ],
      "name": "supportsInterface",
      "outputs": [
        {
          "internalType": "bool",
          "name": "",
          "type": "bool"
        }
      ],
      "stateMutability": "view",
      "type": "function"
    },
    {
      "inputs": [],
      "name": "contractURI",
      "outputs": [
        {
          "internalType": "string",
          "name": "",
          "type": "string"
        }
      ],
      "stateMutability": "view",
      "type": "function"
    },
    {
      "inputs": [
        {
          "internalType": "string",
          "name": "_URI",
          "type": "string"
        }
      ],
      "name": "setContractURI",
      "outputs": [],
      "stateMutability": "nonpayable",
      "type": "function"
    },
    {
      "inputs": [
        {
          "internalType": "uint256",
          "name": "_tokenId",
          "type": "uint256"
        },
        {
          "internalType": "address payable",
          "name": "_royaltiesReceipientAddress",
          "type": "address"
        },
        {
          "internalType": "uint96",
          "name": "_percentageBasisPoints",
          "type": "uint96"
        }
      ],
      "name": "setRoyalties",
      "outputs": [],
      "stateMutability": "nonpayable",
      "type": "function"
    },
    {
      "inputs": [],
      "name": "paused",
      "outputs": [],
      "stateMutability": "nonpayable",
      "type": "function"
    },
    {
      "inputs": [
        {
          "internalType": "uint256",
          "name": "quantity",
          "type": "uint256"
        },
        {
          "internalType": "address",
          "name": "_to",
          "type": "address"
        },
        {
          "internalType": "uint256",
          "name": "_tokenId",
          "type": "uint256"
        }
      ],
      "name": "lazyMint",
      "outputs": [],
      "stateMutability": "nonpayable",
      "type": "function"
    },
    {
      "inputs": [
        {
          "internalType": "uint256",
          "name": "_tokenId",
          "type": "uint256"
        }
      ],
      "name": "uri",
      "outputs": [
        {
          "internalType": "string",
          "name": "",
          "type": "string"
        }
      ],
      "stateMutability": "view",
      "type": "function"
    },
    {
      "inputs": [
        {
          "internalType": "address",
          "name": "account",
          "type": "address"
        },
        {
          "internalType": "uint256",
          "name": "id",
          "type": "uint256"
        },
        {
          "internalType": "uint256",
          "name": "value",
          "type": "uint256"
        }
      ],
      "name": "burn",
      "outputs": [],
      "stateMutability": "nonpayable",
      "type": "function"
    }
  ],
  "bytecode": "0x6080604052600b80546001600160801b0319166f2e6a736f6e00000000000000000000001790553480156200003357600080fd5b50604051620026f6380380620026f68339810160408190526200005691620001eb565b826200006281620000ac565b506200006e33620000c5565b600980546001600160a81b031916600160a01b931515939093026001600160a01b031916929092176001600160a01b03919091161790555062000341565b8051620000c190600290602084019062000117565b5050565b600380546001600160a01b038381166001600160a01b0319831681179093556040519116919082907f8be0079c531659141344cd1fd0a4f28419497f9722a3daafe3b4186f6b6457e090600090a35050565b8280546200012590620002ee565b90600052602060002090601f01602090048101928262000149576000855562000194565b82601f106200016457805160ff191683800117855562000194565b8280016001018555821562000194579182015b828111156200019457825182559160200191906001019062000177565b50620001a2929150620001a6565b5090565b5b80821115620001a25760008155600101620001a7565b80516001600160a01b0381168114620001d557600080fd5b919050565b80518015158114620001d557600080fd5b6000806000606084860312156200020157600080fd5b83516001600160401b03808211156200021957600080fd5b818601915086601f8301126200022e57600080fd5b8151818111156200024357620002436200032b565b604051601f8201601f19908116603f011681019083821181831017156200026e576200026e6200032b565b816040528281526020935089848487010111156200028b57600080fd5b600091505b82821015620002af578482018401518183018501529083019062000290565b82821115620002c15760008484830101525b9650620002d3915050868201620001da565b93505050620002e560408501620001bd565b90509250925092565b600181811c908216806200030357607f821691505b602082108114156200032557634e487b7160e01b600052602260045260246000fd5b50919050565b634e487b7160e01b600052604160045260246000fd5b6123a580620003516000396000f3fe608060405234801561001057600080fd5b50600436106101415760003560e01c80638924af74116100b8578063cad96cca1161007c578063cad96cca146102de578063e8a3d485146102fe578063e985e9c514610306578063f242432a14610342578063f2fde38b14610355578063f5298aca1461036857600080fd5b80638924af74146102345780638da5cb5b1461026e578063938e3d7b14610289578063a22cb4651461029c578063c6682862146102af57600080fd5b80632eb2c2d61161010a5780632eb2c2d6146101d75780634e1273f4146101ea5780635c975abb1461020a5780636c0360eb14610212578063715018a61461021a5780637fa0d0ea1461022257600080fd5b8062fdd58e1461014657806301ffc9a71461016c5780630e89341c1461018f578063143094db146101af5780632e72cfed146101c4575b600080fd5b610159610154366004611bbf565b61037b565b6040519081526020015b60405180910390f35b61017f61017a366004611cf3565b610412565b6040519015158152602001610163565b6101a261019d366004611d7e565b610465565b6040516101639190612065565b6101c26101bd366004611d97565b610507565b005b6101c26101d2366004611de5565b6105e5565b6101c26101e5366004611a75565b6106ca565b6101fd6101f8366004611c20565b610761565b6040516101639190612024565b6101c261088b565b6101a26108d6565b6101c2610964565b600954600160a01b900460ff1661017f565b610247610242366004611e1d565b61099a565b604080516001600160a01b0390931683526001600160601b03909116602083015201610163565b6003546040516001600160a01b039091168152602001610163565b6101c2610297366004611d2d565b6109e3565b6101c26102aa366004611b8c565b6109fa565b600b546102bc9060801b81565b6040516fffffffffffffffffffffffffffffffff199091168152602001610163565b6102f16102ec366004611d7e565b610a05565b6040516101639190612011565b6101a2610a94565b61017f610314366004611a3c565b6001600160a01b03918216600090815260016020908152604080832093909416825291909152205460ff1690565b6101c2610350366004611b23565b610b26565b6101c2610363366004611a1f565b610bad565b6101c2610376366004611beb565b610c48565b60006001600160a01b0383166103ec5760405162461bcd60e51b815260206004820152602b60248201527f455243313135353a2062616c616e636520717565727920666f7220746865207a60448201526a65726f206164647265737360a81b60648201526084015b60405180910390fd5b506000908152602081815260408083206001600160a01b03949094168352929052205490565b60006001600160e01b03198216631131d2f360e21b141561043557506001919050565b6001600160e01b0319821663152a902d60e11b141561045657506001919050565b61045f82610c7d565b92915050565b6000818152600a60205260409020805460609190610482906121d9565b80601f01602080910402602001604051908101604052809291908181526020018280546104ae906121d9565b80156104fb5780601f106104d0576101008083540402835291602001916104fb565b820191906000526020600020905b8154815290600101906020018083116104de57829003601f168201915b50505050509050919050565b6003546001600160a01b031633146105315760405162461bcd60e51b81526004016103e39061214f565b604080516001808252818301909252600091816020015b6040805180820190915260008082526020820152815260200190600190039081610548579050509050818160008151811061058557610585612272565b6020026020010151602001906001600160601b031690816001600160601b03168152505082816000815181106105bd576105bd612272565b60209081029190910101516001600160a01b0390911690526105df8482610ccd565b50505050565b6003546001600160a01b0316331461060f5760405162461bcd60e51b81526004016103e39061214f565b600954600160a01b900460ff161515600114156106c55761064182828560405180602001604052806000815250610e51565b600954604051635df2ffe760e11b8152306004820152602481018390526001600160a01b03848116604483015260648201869052664552433131353560c81b60848301529091169063bbe5ffce9060a401600060405180830381600087803b1580156106ac57600080fd5b505af11580156106c0573d6000803e3d6000fd5b505050505b505050565b6001600160a01b0385163314806106e657506106e68533610314565b61074d5760405162461bcd60e51b815260206004820152603260248201527f455243313135353a207472616e736665722063616c6c6572206973206e6f74206044820152711bdddb995c881b9bdc88185c1c1c9bdd995960721b60648201526084016103e3565b61075a8585858585610f61565b5050505050565b606081518351146107c65760405162461bcd60e51b815260206004820152602960248201527f455243313135353a206163636f756e747320616e6420696473206c656e677468604482015268040dad2e6dac2e8c6d60bb1b60648201526084016103e3565b6000835167ffffffffffffffff8111156107e2576107e2612288565b60405190808252806020026020018201604052801561080b578160200160208202803683370190505b50905060005b84518110156108835761085685828151811061082f5761082f612272565b602002602001015185838151811061084957610849612272565b602002602001015161037b565b82828151811061086857610868612272565b602090810291909101015261087c81612241565b9050610811565b509392505050565b6003546001600160a01b031633146108b55760405162461bcd60e51b81526004016103e39061214f565b6009805460ff60a81b198116600160a81b9182900460ff1615909102179055565b600580546108e3906121d9565b80601f016020809104026020016040519081016040528092919081815260200182805461090f906121d9565b801561095c5780601f106109315761010080835404028352916020019161095c565b820191906000526020600020905b81548152906001019060200180831161093f57829003601f168201915b505050505081565b6003546001600160a01b0316331461098e5760405162461bcd60e51b81526004016103e39061214f565b610998600061114c565b565b600460205281600052604060002081815481106109b657600080fd5b6000918252602090912001546001600160a01b0381169250600160a01b90046001600160601b0316905082565b80516109f690600690602084019061188a565b5050565b6109f633838361119e565b606060046000838152602001908152602001600020805480602002602001604051908101604052809291908181526020016000905b82821015610a8957600084815260209081902060408051808201909152908401546001600160a01b0381168252600160a01b90046001600160601b031681830152825260019092019101610a3a565b505050509050919050565b606060068054610aa3906121d9565b80601f0160208091040260200160405190810160405280929190818152602001828054610acf906121d9565b8015610b1c5780601f10610af157610100808354040283529160200191610b1c565b820191906000526020600020905b815481529060010190602001808311610aff57829003601f168201915b5050505050905090565b6001600160a01b038516331480610b425750610b428533610314565b610ba05760405162461bcd60e51b815260206004820152602960248201527f455243313135353a2063616c6c6572206973206e6f74206f776e6572206e6f7260448201526808185c1c1c9bdd995960ba1b60648201526084016103e3565b61075a858585858561127f565b6003546001600160a01b03163314610bd75760405162461bcd60e51b81526004016103e39061214f565b6001600160a01b038116610c3c5760405162461bcd60e51b815260206004820152602660248201527f4f776e61626c653a206e6577206f776e657220697320746865207a65726f206160448201526564647265737360d01b60648201526084016103e3565b610c458161114c565b50565b6003546001600160a01b03163314610c725760405162461bcd60e51b81526004016103e39061214f565b6106c5838383611393565b60006001600160e01b03198216636cdb3d1360e11b1480610cae57506001600160e01b031982166303a24d0760e21b145b8061045f57506301ffc9a760e01b6001600160e01b031983161461045f565b60005b8151811015610e465760006001600160a01b0316828281518110610cf657610cf6612272565b6020026020010151600001516001600160a01b03161415610d595760405162461bcd60e51b815260206004820152601b60248201527f526563697069656e742073686f756c642062652070726573656e74000000000060448201526064016103e3565b818181518110610d6b57610d6b612272565b6020026020010151602001516001600160601b031660001415610dd05760405162461bcd60e51b815260206004820181905260248201527f526f79616c74792076616c75652073686f756c6420626520706f73697469766560448201526064016103e3565b60008381526004602052604090208251839083908110610df257610df2612272565b6020908102919091018101518254600181018455600093845292829020815191909201516001600160601b0316600160a01b026001600160a01b039091161791015580610e3e81612241565b915050610cd0565b506109f6828261150c565b6001600160a01b038416610eb15760405162461bcd60e51b815260206004820152602160248201527f455243313135353a206d696e7420746f20746865207a65726f206164647265736044820152607360f81b60648201526084016103e3565b33610ed181600087610ec288611549565b610ecb88611549565b87611594565b6000848152602081815260408083206001600160a01b038916845290915281208054859290610f019084906121c1565b909155505060408051858152602081018590526001600160a01b0380881692600092918516917fc3d58168c5ae7397731d063d5bbf3d657854427343f4c083240f7aacaa2d0f62910160405180910390a461075a81600087878787611655565b8151835114610fc35760405162461bcd60e51b815260206004820152602860248201527f455243313135353a2069647320616e6420616d6f756e7473206c656e677468206044820152670dad2e6dac2e8c6d60c31b60648201526084016103e3565b6001600160a01b038416610fe95760405162461bcd60e51b81526004016103e3906120c0565b33610ff8818787878787611594565b60005b84518110156110de57600085828151811061101857611018612272565b60200260200101519050600085838151811061103657611036612272565b602090810291909101810151600084815280835260408082206001600160a01b038e1683529093529190912054909150818110156110865760405162461bcd60e51b81526004016103e390612105565b6000838152602081815260408083206001600160a01b038e8116855292528083208585039055908b168252812080548492906110c39084906121c1565b92505081905550505050806110d790612241565b9050610ffb565b50846001600160a01b0316866001600160a01b0316826001600160a01b03167f4a39dc06d4c0dbc64b70af90fd698a233a518aa5d07e595d983b8c0526c8f7fb878760405161112e929190612037565b60405180910390a46111448187878787876117c0565b505050505050565b600380546001600160a01b038381166001600160a01b0319831681179093556040519116919082907f8be0079c531659141344cd1fd0a4f28419497f9722a3daafe3b4186f6b6457e090600090a35050565b816001600160a01b0316836001600160a01b031614156112125760405162461bcd60e51b815260206004820152602960248201527f455243313135353a2073657474696e6720617070726f76616c20737461747573604482015268103337b91039b2b63360b91b60648201526084016103e3565b6001600160a01b03838116600081815260016020908152604080832094871680845294825291829020805460ff191686151590811790915591519182527f17307eab39ab6107e8899845ad3d59bd9653f200f220920489ca2b5937696c31910160405180910390a3505050565b6001600160a01b0384166112a55760405162461bcd60e51b81526004016103e3906120c0565b336112b5818787610ec288611549565b6000848152602081815260408083206001600160a01b038a168452909152902054838110156112f65760405162461bcd60e51b81526004016103e390612105565b6000858152602081815260408083206001600160a01b038b81168552925280832087850390559088168252812080548692906113339084906121c1565b909155505060408051868152602081018690526001600160a01b03808916928a821692918616917fc3d58168c5ae7397731d063d5bbf3d657854427343f4c083240f7aacaa2d0f62910160405180910390a46106c0828888888888611655565b6001600160a01b0383166113f55760405162461bcd60e51b815260206004820152602360248201527f455243313135353a206275726e2066726f6d20746865207a65726f206164647260448201526265737360e81b60648201526084016103e3565b336114248185600061140687611549565b61140f87611549565b60405180602001604052806000815250611594565b6000838152602081815260408083206001600160a01b0388168452909152902054828110156114a15760405162461bcd60e51b8152602060048201526024808201527f455243313135353a206275726e20616d6f756e7420657863656564732062616c604482015263616e636560e01b60648201526084016103e3565b6000848152602081815260408083206001600160a01b03898116808652918452828520888703905582518981529384018890529092908616917fc3d58168c5ae7397731d063d5bbf3d657854427343f4c083240f7aacaa2d0f62910160405180910390a45050505050565b7f3fa96d7b6bcbfe71ef171666d84db3cf52fa2d1c8afdb1cc8e486177f208b7df828260405161153d929190612184565b60405180910390a15050565b6040805160018082528183019092526060916000919060208083019080368337019050509050828160008151811061158357611583612272565b602090810291909101015292915050565b600954600160a81b900460ff16156115e15760405162461bcd60e51b815260206004820152601060248201526f14185d5cd8589b194e881c185d5cd95960821b60448201526064016103e3565b600954604051633482116160e21b81526001600160a01b039091169063d20845849061161b90899089908990899089904390600401611f14565b600060405180830381600087803b15801561163557600080fd5b505af1158015611649573d6000803e3d6000fd5b50505050505050505050565b6001600160a01b0384163b156111445760405163f23a6e6160e01b81526001600160a01b0385169063f23a6e61906116999089908990889088908890600401611fcc565b602060405180830381600087803b1580156116b357600080fd5b505af19250505080156116e3575060408051601f3d908101601f191682019092526116e091810190611d10565b60015b611790576116ef61229e565b806308c379a0141561172957506117046122ba565b8061170f575061172b565b8060405162461bcd60e51b81526004016103e39190612065565b505b60405162461bcd60e51b815260206004820152603460248201527f455243313135353a207472616e7366657220746f206e6f6e20455243313135356044820152732932b1b2b4bb32b91034b6b83632b6b2b73a32b960611b60648201526084016103e3565b6001600160e01b0319811663f23a6e6160e01b146106c05760405162461bcd60e51b81526004016103e390612078565b6001600160a01b0384163b156111445760405163bc197c8160e01b81526001600160a01b0385169063bc197c81906118049089908990889088908890600401611f6e565b602060405180830381600087803b15801561181e57600080fd5b505af192505050801561184e575060408051601f3d908101601f1916820190925261184b91810190611d10565b60015b61185a576116ef61229e565b6001600160e01b0319811663bc197c8160e01b146106c05760405162461bcd60e51b81526004016103e390612078565b828054611896906121d9565b90600052602060002090601f0160209004810192826118b857600085556118fe565b82601f106118d157805160ff19168380011785556118fe565b828001600101855582156118fe579182015b828111156118fe5782518255916020019190600101906118e3565b5061190a92915061190e565b5090565b5b8082111561190a576000815560010161190f565b600067ffffffffffffffff83111561193d5761193d612288565b604051611954601f8501601f191660200182612214565b80915083815284848401111561196957600080fd5b83836020830137600060208583010152509392505050565b600082601f83011261199257600080fd5b8135602061199f8261219d565b6040516119ac8282612214565b8381528281019150858301600585901b870184018810156119cc57600080fd5b60005b858110156119eb578135845292840192908401906001016119cf565b5090979650505050505050565b600082601f830112611a0957600080fd5b611a1883833560208501611923565b9392505050565b600060208284031215611a3157600080fd5b8135611a1881612344565b60008060408385031215611a4f57600080fd5b8235611a5a81612344565b91506020830135611a6a81612344565b809150509250929050565b600080600080600060a08688031215611a8d57600080fd5b8535611a9881612344565b94506020860135611aa881612344565b9350604086013567ffffffffffffffff80821115611ac557600080fd5b611ad189838a01611981565b94506060880135915080821115611ae757600080fd5b611af389838a01611981565b93506080880135915080821115611b0957600080fd5b50611b16888289016119f8565b9150509295509295909350565b600080600080600060a08688031215611b3b57600080fd5b8535611b4681612344565b94506020860135611b5681612344565b93506040860135925060608601359150608086013567ffffffffffffffff811115611b8057600080fd5b611b16888289016119f8565b60008060408385031215611b9f57600080fd5b8235611baa81612344565b915060208301358015158114611a6a57600080fd5b60008060408385031215611bd257600080fd5b8235611bdd81612344565b946020939093013593505050565b600080600060608486031215611c0057600080fd5b8335611c0b81612344565b95602085013595506040909401359392505050565b60008060408385031215611c3357600080fd5b823567ffffffffffffffff80821115611c4b57600080fd5b818501915085601f830112611c5f57600080fd5b81356020611c6c8261219d565b604051611c798282612214565b8381528281019150858301600585901b870184018b1015611c9957600080fd5b600096505b84871015611cc5578035611cb181612344565b835260019690960195918301918301611c9e565b5096505086013592505080821115611cdc57600080fd5b50611ce985828601611981565b9150509250929050565b600060208284031215611d0557600080fd5b8135611a1881612359565b600060208284031215611d2257600080fd5b8151611a1881612359565b600060208284031215611d3f57600080fd5b813567ffffffffffffffff811115611d5657600080fd5b8201601f81018413611d6757600080fd5b611d7684823560208401611923565b949350505050565b600060208284031215611d9057600080fd5b5035919050565b600080600060608486031215611dac57600080fd5b833592506020840135611dbe81612344565b915060408401356001600160601b0381168114611dda57600080fd5b809150509250925092565b600080600060608486031215611dfa57600080fd5b833592506020840135611e0c81612344565b929592945050506040919091013590565b60008060408385031215611e3057600080fd5b50508035926020909101359150565b600081518084526020808501945080840160005b83811015611e8c57815180516001600160a01b031688528301516001600160601b03168388015260409096019590820190600101611e53565b509495945050505050565b600081518084526020808501945080840160005b83811015611e8c57815187529582019590820190600101611eab565b6000815180845260005b81811015611eed57602081850181015186830182015201611ed1565b81811115611eff576000602083870101525b50601f01601f19169290920160200192915050565b6001600160a01b03878116825286811660208301528516604082015260c060608201819052600090611f4890830186611e97565b8281036080840152611f5a8186611e97565b9150508260a0830152979650505050505050565b6001600160a01b0386811682528516602082015260a060408201819052600090611f9a90830186611e97565b8281036060840152611fac8186611e97565b90508281036080840152611fc08185611ec7565b98975050505050505050565b6001600160a01b03868116825285166020820152604081018490526060810183905260a06080820181905260009061200690830184611ec7565b979650505050505050565b602081526000611a186020830184611e3f565b602081526000611a186020830184611e97565b60408152600061204a6040830185611e97565b828103602084015261205c8185611e97565b95945050505050565b602081526000611a186020830184611ec7565b60208082526028908201527f455243313135353a204552433131353552656365697665722072656a656374656040820152676420746f6b656e7360c01b606082015260800190565b60208082526025908201527f455243313135353a207472616e7366657220746f20746865207a65726f206164604082015264647265737360d81b606082015260800190565b6020808252602a908201527f455243313135353a20696e73756666696369656e742062616c616e636520666f60408201526939103a3930b739b332b960b11b606082015260800190565b6020808252818101527f4f776e61626c653a2063616c6c6572206973206e6f7420746865206f776e6572604082015260600190565b828152604060208201526000611d766040830184611e3f565b600067ffffffffffffffff8211156121b7576121b7612288565b5060051b60200190565b600082198211156121d4576121d461225c565b500190565b600181811c908216806121ed57607f821691505b6020821081141561220e57634e487b7160e01b600052602260045260246000fd5b50919050565b601f8201601f1916810167ffffffffffffffff8111828210171561223a5761223a612288565b6040525050565b60006000198214156122555761225561225c565b5060010190565b634e487b7160e01b600052601160045260246000fd5b634e487b7160e01b600052603260045260246000fd5b634e487b7160e01b600052604160045260246000fd5b600060033d11156122b75760046000803e5060005160e01c5b90565b600060443d10156122c85790565b6040516003193d81016004833e81513d67ffffffffffffffff81602484011181841117156122f857505050505090565b82850191508151818111156123105750505050505090565b843d870101602082850101111561232a5750505050505090565b61233960208286010187612214565b509095945050505050565b6001600160a01b0381168114610c4557600080fd5b6001600160e01b031981168114610c4557600080fdfea26469706673582212206788c57a35ab9bc69f258b6f432b06ee8a76fd1f3230eb21c291ed668c1ec6de64736f6c63430008060033",
  "immutableReferences": {},
  "source": "// SPDX-License-Identifier: MIT\r\n// In erc1155\r\npragma solidity ^0.8.0;\r\n\r\nimport '@openzeppelin/contracts/access/Ownable.sol';\r\nimport '@openzeppelin/contracts/token/ERC1155/ERC1155.sol';\r\nimport './Logger.sol';\r\n\r\n//Rarible has seperate smarts contracts called the Royalties Registry that is used to track/set the royalties of each NFT.\r\nimport \"./@rarible/royalties/contracts/impl/RoyaltiesV2Impl.sol\";\r\nimport \"./@rarible/royalties/contracts/LibPart.sol\";\r\nimport \"./@rarible/royalties/contracts/LibRoyaltiesV2.sol\";\r\n\r\ncontract INERC1155 is ERC1155, Ownable, RoyaltiesV2Impl {\r\n    //using Strings for uint256;\r\n    \r\n    string public baseURI;\r\n    string _contractURI;\r\n    uint256 countToken;\r\n    uint256 baseCollectionPrice;\r\n    address addressLoger;\r\n    bool _lazyMint;\r\n    bool pause;\r\n    mapping(uint256 => string) private _tokenURI;\r\n    bytes4 private constant _INTERFACE_ID_ERC2981 = 0x2a55205a;\r\n    bytes16 public baseExtension = \".json\";\r\n\r\n    event Mints(address indexed _to, uint256 _tokenId, string uri, uint256 amount);\r\n\r\n    constructor(string memory _initBaseURI, bool _lazy, address _addressLoger) ERC1155(_initBaseURI){//https://gateway.pinata.cloud/ipfs/QmTN32qBKYqnyvatqfnU8ra6cYUGNxpYziSddCatEmopLR/metadata/api/item/{id}.json\r\n        //setBaseURI(_initBaseURI);\r\n        _lazyMint = _lazy;\r\n        addressLoger = _addressLoger;\r\n    }\r\n\r\n    function getLazyMint() external view returns (bool){\r\n        return _lazyMint;\r\n    }\r\n\r\n    function supportsInterface(bytes4 interfaceId) public view virtual override(ERC1155) returns (bool) {\r\n        if(interfaceId == LibRoyaltiesV2._INTERFACE_ID_ROYALTIES) {\r\n            return true;\r\n        }\r\n        if(interfaceId == _INTERFACE_ID_ERC2981) {\r\n            return true;\r\n        }\r\n        return super.supportsInterface(interfaceId);\r\n    }\r\n\r\n    ///@dev for Opensea metadata\r\n    function contractURI() public view returns (string memory) {\r\n        return _contractURI;\r\n    }\r\n\r\n    ///@dev set metadata opensea\r\n    function setContractURI(string memory _URI) external {\r\n        _contractURI = _URI;\r\n    }\r\n\r\n    /*function _baseURI() internal view virtual override returns (string memory) {\r\n        return baseURI;\r\n    }\r\n\r\n    function setBaseURI(string memory _newBaseURI) public onlyOwner {\r\n        baseURI = _newBaseURI;\r\n    }*/\r\n\r\n    function setRoyalties(\r\n        uint256 _tokenId,\r\n        address payable _royaltiesReceipientAddress,\r\n        uint96 _percentageBasisPoints\r\n    ) public onlyOwner {\r\n        LibPart.Part[] memory _royalties = new LibPart.Part[](1);\r\n        _royalties[0].value = _percentageBasisPoints;\r\n        _royalties[0].account = _royaltiesReceipientAddress;\r\n        _saveRoyalties(_tokenId, _royalties);\r\n    }\r\n\r\n    /**\r\n    All functions using this modifier can only be called by the delegation contract\r\n     */\r\n    /*modifier byDelegate() {\r\n        require((msg.sender == adressMarketPlace || adressMarketPlace == address(0))&& !paused,\"Not good address delegate contract\");\r\n        _;\r\n    }*/\r\n\r\n    ///@dev Temporarily lock the contract\r\n    function paused() external onlyOwner {\r\n        pause=!pause;\r\n    }\r\n\r\n    function _mintTo(address _to,  string calldata _uri, uint256 _tokenId, uint256 _amount ) internal onlyOwner {\r\n        if(_lazyMint==false){\r\n            if (bytes(_tokenURI[_tokenId]).length == 0) {\r\n                require(bytes(_uri).length > 0, \"empty uri.\");\r\n                _tokenURI[_tokenId] = _uri;\r\n            }\r\n\r\n            _mint(_to, _tokenId, _amount, \"\");\r\n            Logger(addressLoger)._Mints(address(this),countToken,_to, _amount,\"ERC1155\");\r\n        }\r\n    }\r\n\r\n    function lazyMint(uint256 quantity, address _to, uint256 _tokenId) external onlyOwner {\r\n        if(_lazyMint==true){\r\n            _mint(_to,_tokenId, quantity, \"\");\r\n            Logger(addressLoger)._Mints(address(this),_tokenId,_to, quantity,\"ERC1155\");\r\n        }\r\n    }\r\n    \r\n    /// @dev Returns the URI for a tokenId\r\n    function uri(uint256 _tokenId) public view override returns (string memory) {\r\n        return _tokenURI[_tokenId];\r\n    }\r\n\r\n    /**\r\n    Burn a token (Useless for this project, but it's always good to have one)\r\n     */\r\n    function burn(address account, uint256 id, uint256 value ) external onlyOwner {\r\n        _burn(account, id, value);\r\n    }\r\n\r\n    function _beforeTokenTransfer(\r\n        address operator,\r\n        address from,\r\n        address to,\r\n        uint256[] memory ids,\r\n        uint256[] memory amounts,\r\n        bytes memory data\r\n    ) internal virtual override(ERC1155) {\r\n        require(!pause, \"Pausable: paused\");\r\n        super._beforeTokenTransfer(operator, from, to, ids, amounts, data);\r\n        Logger(addressLoger)._TransferERC1155(operator, from, to, ids, amounts, block.number);\r\n        // do stuff before every transfer\r\n        // e.g. check that vote (other than when minted) \r\n        // being transferred to registered candidate\r\n    }\r\n\r\n}\r\n",
  "sourcePath": "C:\\Users\\KevinDell'ova\\Desktop\\Inverse contracts\\contracts\\INERC1155.sol",
  "compiler": {
    "name": "solc",
    "version": "0.8.6+commit.11564f7e.Emscripten.clang"
  },
  "schemaVersion": "3.4.4",
  "updatedAt": "2022-03-23T15:04:16.833Z",
  "devdoc": {
    "kind": "dev",
    "methods": {
      "balanceOf(address,uint256)": {
        "details": "See {IERC1155-balanceOf}. Requirements: - `account` cannot be the zero address."
      },
      "balanceOfBatch(address[],uint256[])": {
        "details": "See {IERC1155-balanceOfBatch}. Requirements: - `accounts` and `ids` must have the same length."
      },
      "contractURI()": {
        "details": "for Opensea metadata"
      },
      "isApprovedForAll(address,address)": {
        "details": "See {IERC1155-isApprovedForAll}."
      },
      "owner()": {
        "details": "Returns the address of the current owner."
      },
      "paused()": {
        "details": "Temporarily lock the contract"
      },
      "renounceOwnership()": {
        "details": "Leaves the contract without owner. It will not be possible to call `onlyOwner` functions anymore. Can only be called by the current owner. NOTE: Renouncing ownership will leave the contract without an owner, thereby removing any functionality that is only available to the owner."
      },
      "safeBatchTransferFrom(address,address,uint256[],uint256[],bytes)": {
        "details": "See {IERC1155-safeBatchTransferFrom}."
      },
      "safeTransferFrom(address,address,uint256,uint256,bytes)": {
        "details": "See {IERC1155-safeTransferFrom}."
      },
      "setApprovalForAll(address,bool)": {
        "details": "See {IERC1155-setApprovalForAll}."
      },
      "setContractURI(string)": {
        "details": "set metadata opensea"
      },
      "supportsInterface(bytes4)": {
        "details": "See {IERC165-supportsInterface}."
      },
      "transferOwnership(address)": {
        "details": "Transfers ownership of the contract to a new account (`newOwner`). Can only be called by the current owner."
      },
      "uri(uint256)": {
        "details": "Returns the URI for a tokenId"
      }
    },
    "version": 1
  },
  "userdoc": {
    "kind": "user",
    "methods": {
      "burn(address,uint256,uint256)": {
        "notice": "Burn a token (Useless for this project, but it's always good to have one)"
      }
    },
    "version": 1
  }
}