{
  "contractName": "INERC721A",
  "abi": [
    {
      "inputs": [
        {
          "internalType": "string",
          "name": "name",
          "type": "string"
        },
        {
          "internalType": "string",
          "name": "symbol",
          "type": "string"
        },
        {
          "internalType": "string",
          "name": "_initBaseURI",
          "type": "string"
        },
        {
          "internalType": "bool",
          "name": "_lazy",
          "type": "bool"
        },
        {
          "internalType": "address",
          "name": "_addressLoger",
          "type": "address"
        },
        {
          "internalType": "uint16",
          "name": "__maxMint",
          "type": "uint16"
        }
      ],
      "stateMutability": "nonpayable",
      "type": "constructor"
    },
    {
      "inputs": [],
      "name": "ApprovalCallerNotOwnerNorApproved",
      "type": "error"
    },
    {
      "inputs": [],
      "name": "ApprovalQueryForNonexistentToken",
      "type": "error"
    },
    {
      "inputs": [],
      "name": "ApprovalToCurrentOwner",
      "type": "error"
    },
    {
      "inputs": [],
      "name": "ApproveToCaller",
      "type": "error"
    },
    {
      "inputs": [],
      "name": "BalanceQueryForZeroAddress",
      "type": "error"
    },
    {
      "inputs": [],
      "name": "MintToZeroAddress",
      "type": "error"
    },
    {
      "inputs": [],
      "name": "MintZeroQuantity",
      "type": "error"
    },
    {
      "inputs": [],
      "name": "OwnerQueryForNonexistentToken",
      "type": "error"
    },
    {
      "inputs": [],
      "name": "TransferCallerNotOwnerNorApproved",
      "type": "error"
    },
    {
      "inputs": [],
      "name": "TransferFromIncorrectOwner",
      "type": "error"
    },
    {
      "inputs": [],
      "name": "TransferToNonERC721ReceiverImplementer",
      "type": "error"
    },
    {
      "inputs": [],
      "name": "TransferToZeroAddress",
      "type": "error"
    },
    {
      "inputs": [],
      "name": "URIQueryForNonexistentToken",
      "type": "error"
    },
    {
      "anonymous": false,
      "inputs": [
        {
          "indexed": true,
          "internalType": "address",
          "name": "owner",
          "type": "address"
        },
        {
          "indexed": true,
          "internalType": "address",
          "name": "approved",
          "type": "address"
        },
        {
          "indexed": true,
          "internalType": "uint256",
          "name": "tokenId",
          "type": "uint256"
        }
      ],
      "name": "Approval",
      "type": "event"
    },
    {
      "anonymous": false,
      "inputs": [
        {
          "indexed": true,
          "internalType": "address",
          "name": "owner",
          "type": "address"
        },
        {
          "indexed": true,
          "internalType": "address",
          "name": "operator",
          "type": "address"
        },
        {
          "indexed": false,
          "internalType": "bool",
          "name": "approved",
          "type": "bool"
        }
      ],
      "name": "ApprovalForAll",
      "type": "event"
    },
    {
      "anonymous": false,
      "inputs": [
        {
          "indexed": true,
          "internalType": "address",
          "name": "previousOwner",
          "type": "address"
        },
        {
          "indexed": true,
          "internalType": "address",
          "name": "newOwner",
          "type": "address"
        }
      ],
      "name": "OwnershipTransferred",
      "type": "event"
    },
    {
      "anonymous": false,
      "inputs": [
        {
          "indexed": false,
          "internalType": "uint256",
          "name": "tokenId",
          "type": "uint256"
        },
        {
          "components": [
            {
              "internalType": "address payable",
              "name": "account",
              "type": "address"
            },
            {
              "internalType": "uint96",
              "name": "value",
              "type": "uint96"
            }
          ],
          "indexed": false,
          "internalType": "struct LibPart.Part[]",
          "name": "royalties",
          "type": "tuple[]"
        }
      ],
      "name": "RoyaltiesSet",
      "type": "event"
    },
    {
      "anonymous": false,
      "inputs": [
        {
          "indexed": true,
          "internalType": "address",
          "name": "from",
          "type": "address"
        },
        {
          "indexed": true,
          "internalType": "address",
          "name": "to",
          "type": "address"
        },
        {
          "indexed": true,
          "internalType": "uint256",
          "name": "tokenId",
          "type": "uint256"
        }
      ],
      "name": "Transfer",
      "type": "event"
    },
    {
      "inputs": [
        {
          "internalType": "address",
          "name": "to",
          "type": "address"
        },
        {
          "internalType": "uint256",
          "name": "tokenId",
          "type": "uint256"
        }
      ],
      "name": "approve",
      "outputs": [],
      "stateMutability": "nonpayable",
      "type": "function"
    },
    {
      "inputs": [
        {
          "internalType": "address",
          "name": "owner",
          "type": "address"
        }
      ],
      "name": "balanceOf",
      "outputs": [
        {
          "internalType": "uint256",
          "name": "",
          "type": "uint256"
        }
      ],
      "stateMutability": "view",
      "type": "function",
      "constant": true
    },
    {
      "inputs": [],
      "name": "baseURI",
      "outputs": [
        {
          "internalType": "string",
          "name": "",
          "type": "string"
        }
      ],
      "stateMutability": "view",
      "type": "function",
      "constant": true
    },
    {
      "inputs": [
        {
          "internalType": "uint256",
          "name": "tokenId",
          "type": "uint256"
        }
      ],
      "name": "getApproved",
      "outputs": [
        {
          "internalType": "address",
          "name": "",
          "type": "address"
        }
      ],
      "stateMutability": "view",
      "type": "function",
      "constant": true
    },
    {
      "inputs": [
        {
          "internalType": "uint256",
          "name": "id",
          "type": "uint256"
        }
      ],
      "name": "getRaribleV2Royalties",
      "outputs": [
        {
          "components": [
            {
              "internalType": "address payable",
              "name": "account",
              "type": "address"
            },
            {
              "internalType": "uint96",
              "name": "value",
              "type": "uint96"
            }
          ],
          "internalType": "struct LibPart.Part[]",
          "name": "",
          "type": "tuple[]"
        }
      ],
      "stateMutability": "view",
      "type": "function",
      "constant": true
    },
    {
      "inputs": [
        {
          "internalType": "address",
          "name": "owner",
          "type": "address"
        },
        {
          "internalType": "address",
          "name": "operator",
          "type": "address"
        }
      ],
      "name": "isApprovedForAll",
      "outputs": [
        {
          "internalType": "bool",
          "name": "",
          "type": "bool"
        }
      ],
      "stateMutability": "view",
      "type": "function",
      "constant": true
    },
    {
      "inputs": [],
      "name": "name",
      "outputs": [
        {
          "internalType": "string",
          "name": "",
          "type": "string"
        }
      ],
      "stateMutability": "view",
      "type": "function",
      "constant": true
    },
    {
      "inputs": [],
      "name": "owner",
      "outputs": [
        {
          "internalType": "address",
          "name": "",
          "type": "address"
        }
      ],
      "stateMutability": "view",
      "type": "function",
      "constant": true
    },
    {
      "inputs": [
        {
          "internalType": "uint256",
          "name": "tokenId",
          "type": "uint256"
        }
      ],
      "name": "ownerOf",
      "outputs": [
        {
          "internalType": "address",
          "name": "",
          "type": "address"
        }
      ],
      "stateMutability": "view",
      "type": "function",
      "constant": true
    },
    {
      "inputs": [],
      "name": "renounceOwnership",
      "outputs": [],
      "stateMutability": "nonpayable",
      "type": "function"
    },
    {
      "inputs": [
        {
          "internalType": "uint256",
          "name": "",
          "type": "uint256"
        },
        {
          "internalType": "uint256",
          "name": "",
          "type": "uint256"
        }
      ],
      "name": "royalties",
      "outputs": [
        {
          "internalType": "address payable",
          "name": "account",
          "type": "address"
        },
        {
          "internalType": "uint96",
          "name": "value",
          "type": "uint96"
        }
      ],
      "stateMutability": "view",
      "type": "function",
      "constant": true
    },
    {
      "inputs": [
        {
          "internalType": "address",
          "name": "from",
          "type": "address"
        },
        {
          "internalType": "address",
          "name": "to",
          "type": "address"
        },
        {
          "internalType": "uint256",
          "name": "tokenId",
          "type": "uint256"
        }
      ],
      "name": "safeTransferFrom",
      "outputs": [],
      "stateMutability": "nonpayable",
      "type": "function"
    },
    {
      "inputs": [
        {
          "internalType": "address",
          "name": "from",
          "type": "address"
        },
        {
          "internalType": "address",
          "name": "to",
          "type": "address"
        },
        {
          "internalType": "uint256",
          "name": "tokenId",
          "type": "uint256"
        },
        {
          "internalType": "bytes",
          "name": "_data",
          "type": "bytes"
        }
      ],
      "name": "safeTransferFrom",
      "outputs": [],
      "stateMutability": "nonpayable",
      "type": "function"
    },
    {
      "inputs": [
        {
          "internalType": "address",
          "name": "operator",
          "type": "address"
        },
        {
          "internalType": "bool",
          "name": "approved",
          "type": "bool"
        }
      ],
      "name": "setApprovalForAll",
      "outputs": [],
      "stateMutability": "nonpayable",
      "type": "function"
    },
    {
      "inputs": [],
      "name": "symbol",
      "outputs": [
        {
          "internalType": "string",
          "name": "",
          "type": "string"
        }
      ],
      "stateMutability": "view",
      "type": "function",
      "constant": true
    },
    {
      "inputs": [
        {
          "internalType": "uint256",
          "name": "tokenId",
          "type": "uint256"
        }
      ],
      "name": "tokenURI",
      "outputs": [
        {
          "internalType": "string",
          "name": "",
          "type": "string"
        }
      ],
      "stateMutability": "view",
      "type": "function",
      "constant": true
    },
    {
      "inputs": [],
      "name": "totalSupply",
      "outputs": [
        {
          "internalType": "uint256",
          "name": "",
          "type": "uint256"
        }
      ],
      "stateMutability": "view",
      "type": "function",
      "constant": true
    },
    {
      "inputs": [
        {
          "internalType": "address",
          "name": "from",
          "type": "address"
        },
        {
          "internalType": "address",
          "name": "to",
          "type": "address"
        },
        {
          "internalType": "uint256",
          "name": "tokenId",
          "type": "uint256"
        }
      ],
      "name": "transferFrom",
      "outputs": [],
      "stateMutability": "nonpayable",
      "type": "function"
    },
    {
      "inputs": [
        {
          "internalType": "address",
          "name": "newOwner",
          "type": "address"
        }
      ],
      "name": "transferOwnership",
      "outputs": [],
      "stateMutability": "nonpayable",
      "type": "function"
    },
    {
      "inputs": [],
      "name": "getLazyMint",
      "outputs": [
        {
          "internalType": "bool",
          "name": "",
          "type": "bool"
        }
      ],
      "stateMutability": "view",
      "type": "function",
      "constant": true
    },
    {
      "inputs": [
        {
          "internalType": "address",
          "name": "wallet",
          "type": "address"
        },
        {
          "internalType": "uint256[]",
          "name": "_tokensId",
          "type": "uint256[]"
        },
        {
          "internalType": "uint256",
          "name": "_timestamp",
          "type": "uint256"
        },
        {
          "internalType": "bytes",
          "name": "_signature",
          "type": "bytes"
        }
      ],
      "name": "signatureWallet",
      "outputs": [
        {
          "internalType": "address",
          "name": "",
          "type": "address"
        }
      ],
      "stateMutability": "pure",
      "type": "function",
      "constant": true
    },
    {
      "inputs": [
        {
          "internalType": "bytes4",
          "name": "interfaceId",
          "type": "bytes4"
        }
      ],
      "name": "supportsInterface",
      "outputs": [
        {
          "internalType": "bool",
          "name": "",
          "type": "bool"
        }
      ],
      "stateMutability": "view",
      "type": "function",
      "constant": true
    },
    {
      "inputs": [],
      "name": "contractURI",
      "outputs": [
        {
          "internalType": "string",
          "name": "",
          "type": "string"
        }
      ],
      "stateMutability": "view",
      "type": "function",
      "constant": true
    },
    {
      "inputs": [
        {
          "internalType": "string",
          "name": "_URI",
          "type": "string"
        }
      ],
      "name": "setContractURI",
      "outputs": [],
      "stateMutability": "nonpayable",
      "type": "function"
    },
    {
      "inputs": [
        {
          "internalType": "string",
          "name": "_newBaseURI",
          "type": "string"
        }
      ],
      "name": "setBaseURI",
      "outputs": [],
      "stateMutability": "nonpayable",
      "type": "function"
    },
    {
      "inputs": [
        {
          "internalType": "uint256",
          "name": "_tokenId",
          "type": "uint256"
        },
        {
          "internalType": "address payable",
          "name": "_royaltiesReceipientAddress",
          "type": "address"
        },
        {
          "internalType": "uint96",
          "name": "_percentageBasisPoints",
          "type": "uint96"
        }
      ],
      "name": "setRoyalties",
      "outputs": [],
      "stateMutability": "nonpayable",
      "type": "function"
    },
    {
      "inputs": [
        {
          "internalType": "uint256",
          "name": "_tokenId",
          "type": "uint256"
        },
        {
          "internalType": "uint256",
          "name": "_salePrice",
          "type": "uint256"
        }
      ],
      "name": "royaltyInfo",
      "outputs": [
        {
          "internalType": "address",
          "name": "receiver",
          "type": "address"
        },
        {
          "internalType": "uint256",
          "name": "royaltyAmount",
          "type": "uint256"
        }
      ],
      "stateMutability": "view",
      "type": "function",
      "constant": true
    },
    {
      "inputs": [],
      "name": "paused",
      "outputs": [],
      "stateMutability": "nonpayable",
      "type": "function"
    },
    {
      "inputs": [
        {
          "internalType": "uint256",
          "name": "quantity",
          "type": "uint256"
        }
      ],
      "name": "mint",
      "outputs": [],
      "stateMutability": "nonpayable",
      "type": "function"
    },
    {
      "inputs": [
        {
          "internalType": "uint256",
          "name": "quantity",
          "type": "uint256"
        },
        {
          "internalType": "address",
          "name": "_to",
          "type": "address"
        },
        {
          "internalType": "uint256",
          "name": "idToken",
          "type": "uint256"
        }
      ],
      "name": "lazyMint",
      "outputs": [],
      "stateMutability": "nonpayable",
      "type": "function"
    },
    {
      "inputs": [
        {
          "internalType": "uint256",
          "name": "tokenId",
          "type": "uint256"
        }
      ],
      "name": "burn",
      "outputs": [],
      "stateMutability": "nonpayable",
      "type": "function"
    },
    {
      "inputs": [
        {
          "internalType": "uint256",
          "name": "tokenId",
          "type": "uint256"
        }
      ],
      "name": "exists",
      "outputs": [
        {
          "internalType": "bool",
          "name": "",
          "type": "bool"
        }
      ],
      "stateMutability": "view",
      "type": "function",
      "constant": true
    }
  ],
  "bytecode": "0x60806040523480156200001157600080fd5b5060405162002c9938038062002c9983398101604081905262000034916200032a565b8551869086906200004d9060029060208501906200019d565b508051620000639060039060208401906200019d565b505060008055506200007533620000d3565b620000808462000125565b600c805493151560ff1990941693909317909255600e805461ffff90931661ffff196001600160a01b039093166201000002929092166001600160b01b031990931692909217179055506200044b915050565b600880546001600160a01b038381166001600160a01b0319831681179093556040519116919082907f8be0079c531659141344cd1fd0a4f28419497f9722a3daafe3b4186f6b6457e090600090a35050565b6008546001600160a01b03163314620001845760405162461bcd60e51b815260206004820181905260248201527f4f776e61626c653a2063616c6c6572206973206e6f7420746865206f776e6572604482015260640160405180910390fd5b80516200019990600a9060208401906200019d565b5050565b828054620001ab90620003f8565b90600052602060002090601f016020900481019282620001cf57600085556200021a565b82601f10620001ea57805160ff19168380011785556200021a565b828001600101855582156200021a579182015b828111156200021a578251825591602001919060010190620001fd565b50620002289291506200022c565b5090565b5b808211156200022857600081556001016200022d565b80516001600160a01b03811681146200025b57600080fd5b919050565b600082601f8301126200027257600080fd5b81516001600160401b03808211156200028f576200028f62000435565b604051601f8301601f19908116603f01168101908282118183101715620002ba57620002ba62000435565b81604052838152602092508683858801011115620002d757600080fd5b600091505b83821015620002fb5785820183015181830184015290820190620002dc565b838211156200030d5760008385830101525b9695505050505050565b805161ffff811681146200025b57600080fd5b60008060008060008060c087890312156200034457600080fd5b86516001600160401b03808211156200035c57600080fd5b6200036a8a838b0162000260565b975060208901519150808211156200038157600080fd5b6200038f8a838b0162000260565b96506040890151915080821115620003a657600080fd5b50620003b589828a0162000260565b94505060608701518015158114620003cc57600080fd5b9250620003dc6080880162000243565b9150620003ec60a0880162000317565b90509295509295509295565b600181811c908216806200040d57607f821691505b602082108114156200042f57634e487b7160e01b600052602260045260246000fd5b50919050565b634e487b7160e01b600052604160045260246000fd5b61283e806200045b6000396000f3fe608060405234801561001057600080fd5b50600436106101f05760003560e01c80636c0360eb1161010f578063a0712d68116100a2578063cad96cca11610071578063cad96cca1461044d578063e8a3d4851461046d578063e985e9c514610475578063f2fde38b146104b157600080fd5b8063a0712d6814610401578063a22cb46514610414578063b88d4fde14610427578063c87b56dd1461043a57600080fd5b80638924af74116100de5780638924af741461039b5780638da5cb5b146103d5578063938e3d7b146103e657806395d89b41146103f957600080fd5b80636c0360eb1461036d57806370a0823114610375578063715018a6146103885780637fa0d0ea1461039057600080fd5b80632e72cfed1161018757806355f804b31161015657806355f804b31461032c5780635c975abb1461033f5780636352211e1461034757806364c1933a1461035a57600080fd5b80632e72cfed146102e057806342842e0e146102f357806342966c68146103065780634f558e791461031957600080fd5b8063143094db116101c3578063143094db1461027257806318160ddd1461028557806323b872dd1461029b5780632a55205a146102ae57600080fd5b806301ffc9a7146101f557806306fdde031461021d578063081812fc14610232578063095ea7b31461025d575b600080fd5b6102086102033660046122f8565b6104c4565b60405190151581526020015b60405180910390f35b610225610517565b60405161021491906125c6565b61024561024036600461237a565b6105a9565b6040516001600160a01b039091168152602001610214565b61027061026b3660046122cc565b6105ed565b005b610270610280366004612393565b61067b565b600154600054035b604051908152602001610214565b6102706102a936600461210d565b610762565b6102c16102bc366004612408565b61076d565b604080516001600160a01b039093168352602083019190915201610214565b6102706102ee3660046123e1565b610873565b61027061030136600461210d565b610953565b61027061031436600461237a565b61096e565b61020861032736600461237a565b6109a4565b61027061033a366004612332565b6109cf565b610270610a10565b61024561035536600461237a565b610a57565b6102456103683660046121b9565b610a69565b610225610aaa565b61028d6103833660046120b7565b610b38565b610270610b86565b600c5460ff16610208565b6103ae6103a9366004612408565b610bbc565b604080516001600160a01b0390931683526001600160601b03909116602083015201610214565b6008546001600160a01b0316610245565b6102706103f4366004612332565b610c05565b610225610c18565b61027061040f36600461237a565b610c27565b610270610422366004612299565b610d42565b61027061043536600461214e565b610dd8565b61022561044836600461237a565b610e23565b61046061045b36600461237a565b610ea8565b60405161021491906125b3565b610225610f37565b6102086104833660046120d4565b6001600160a01b03918216600090815260076020908152604080832093909416825291909152205460ff1690565b6102706104bf3660046120b7565b610f46565b60006001600160e01b03198216631131d2f360e21b14156104e757506001919050565b6001600160e01b0319821663152a902d60e11b141561050857506001919050565b61051182610fde565b92915050565b606060028054610526906126e5565b80601f0160208091040260200160405190810160405280929190818152602001828054610552906126e5565b801561059f5780601f106105745761010080835404028352916020019161059f565b820191906000526020600020905b81548152906001019060200180831161058257829003601f168201915b5050505050905090565b60006105b4826109a4565b6105d1576040516333d1c03960e21b815260040160405180910390fd5b506000908152600660205260409020546001600160a01b031690565b60006105f882610a57565b9050806001600160a01b0316836001600160a01b0316141561062d5760405163250fdee360e21b815260040160405180910390fd5b336001600160a01b0382161480159061064d575061064b8133610483565b155b1561066b576040516367d9dca160e11b815260040160405180910390fd5b61067683838361102e565b505050565b6008546001600160a01b031633146106ae5760405162461bcd60e51b81526004016106a5906125d9565b60405180910390fd5b604080516001808252818301909252600091816020015b60408051808201909152600080825260208201528152602001906001900390816106c5579050509050818160008151811061070257610702612791565b6020026020010151602001906001600160601b031690816001600160601b031681525050828160008151811061073a5761073a612791565b60209081029190910101516001600160a01b03909116905261075c848261108a565b50505050565b61067683838361120e565b6000828152600960209081526040808320805482518185028101850190935280835284938493929190849084015b828210156107ea57600084815260209081902060408051808201909152908401546001600160a01b0381168252600160a01b90046001600160601b03168183015282526001909201910161079b565b505050509050600081511115610863578060008151811061080d5761080d612791565b6020026020010151600001516127108260008151811061082f5761082f612791565b6020026020010151602001516001600160601b03168661084f9190612683565b610859919061266f565b925092505061086c565b60008092509250505b9250929050565b600c5460ff1615156001141561067657600e54600d5461ffff9091169061089b908590612657565b11156108d75760405162461bcd60e51b815260206004820152600b60248201526a155c081b585e081b5a5b9d60aa1b60448201526064016106a5565b6108e182846113f7565b600e54604051635df2ffe760e11b8152620100009091046001600160a01b03169063bbe5ffce9061091c903090859087908990600401612579565b600060405180830381600087803b15801561093657600080fd5b505af115801561094a573d6000803e3d6000fd5b50505050505050565b61067683838360405180602001604052806000815250610dd8565b6008546001600160a01b031633146109985760405162461bcd60e51b81526004016106a5906125d9565b6109a181611411565b50565b6000805482108015610511575050600090815260046020526040902054600160e01b900460ff161590565b6008546001600160a01b031633146109f95760405162461bcd60e51b81526004016106a5906125d9565b8051610a0c90600a906020840190611fa7565b5050565b6008546001600160a01b03163314610a3a5760405162461bcd60e51b81526004016106a5906125d9565b600c805461ff001981166101009182900460ff1615909102179055565b6000610a628261141c565b5192915050565b6000610a9f858585604051602001610a839392919061251a565b6040516020818303038152906040528051906020012083611536565b90505b949350505050565b600a8054610ab7906126e5565b80601f0160208091040260200160405190810160405280929190818152602001828054610ae3906126e5565b8015610b305780601f10610b0557610100808354040283529160200191610b30565b820191906000526020600020905b815481529060010190602001808311610b1357829003601f168201915b505050505081565b60006001600160a01b038216610b61576040516323d3ad8160e21b815260040160405180910390fd5b506001600160a01b03166000908152600560205260409020546001600160401b031690565b6008546001600160a01b03163314610bb05760405162461bcd60e51b81526004016106a5906125d9565b610bba600061155a565b565b60096020528160005260406000208181548110610bd857600080fd5b6000918252602090912001546001600160a01b0381169250600160a01b90046001600160601b0316905082565b8051610a0c90600b906020840190611fa7565b606060038054610526906126e5565b6008546001600160a01b03163314610c515760405162461bcd60e51b81526004016106a5906125d9565b600e54600d5461ffff90911690610c69908390612657565b1115610ca55760405162461bcd60e51b815260206004820152600b60248201526a155c081b585e081b5a5b9d60aa1b60448201526064016106a5565b600c5460ff166109a157610cb933826113f7565b600e54600d54604051635df2ffe760e11b8152620100009092046001600160a01b03169163bbe5ffce91610cf69130919033908790600401612579565b600060405180830381600087803b158015610d1057600080fd5b505af1158015610d24573d6000803e3d6000fd5b5050505080600d6000828254610d3a9190612657565b909155505050565b6001600160a01b038216331415610d6c5760405163b06307db60e01b815260040160405180910390fd5b3360008181526007602090815260408083206001600160a01b03871680855290835292819020805460ff191686151590811790915590519081529192917f17307eab39ab6107e8899845ad3d59bd9653f200f220920489ca2b5937696c31910160405180910390a35050565b610de384848461120e565b6001600160a01b0383163b15158015610e055750610e03848484846115ac565b155b1561075c576040516368d2bf6b60e11b815260040160405180910390fd5b6060610e2e826109a4565b610e4b57604051630a14c4b560e41b815260040160405180910390fd5b6000610e556116a0565b9050805160001415610e765760405180602001604052806000815250610ea1565b80610e80846116af565b604051602001610e919291906124ae565b6040516020818303038152906040525b9392505050565b606060096000838152602001908152602001600020805480602002602001604051908101604052809291908181526020016000905b82821015610f2c57600084815260209081902060408051808201909152908401546001600160a01b0381168252600160a01b90046001600160601b031681830152825260019092019101610edd565b505050509050919050565b6060600b8054610526906126e5565b6008546001600160a01b03163314610f705760405162461bcd60e51b81526004016106a5906125d9565b6001600160a01b038116610fd55760405162461bcd60e51b815260206004820152602660248201527f4f776e61626c653a206e6577206f776e657220697320746865207a65726f206160448201526564647265737360d01b60648201526084016106a5565b6109a18161155a565b60006001600160e01b031982166380ac58cd60e01b148061100f57506001600160e01b03198216635b5e139f60e01b145b8061051157506301ffc9a760e01b6001600160e01b0319831614610511565b60008281526006602052604080822080546001600160a01b0319166001600160a01b0387811691821790925591518593918516917f8c5be1e5ebec7d5bd14f71427d1e84f3dd0314c0f7b2291e5b200ac8c7c3b92591a4505050565b60005b81518110156112035760006001600160a01b03168282815181106110b3576110b3612791565b6020026020010151600001516001600160a01b031614156111165760405162461bcd60e51b815260206004820152601b60248201527f526563697069656e742073686f756c642062652070726573656e74000000000060448201526064016106a5565b81818151811061112857611128612791565b6020026020010151602001516001600160601b03166000141561118d5760405162461bcd60e51b815260206004820181905260248201527f526f79616c74792076616c75652073686f756c6420626520706f73697469766560448201526064016106a5565b600083815260096020526040902082518390839081106111af576111af612791565b6020908102919091018101518254600181018455600093845292829020815191909201516001600160601b0316600160a01b026001600160a01b0390911617910155806111fb81612720565b91505061108d565b50610a0c82826117ac565b60006112198261141c565b9050836001600160a01b031681600001516001600160a01b0316146112505760405162a1148160e81b815260040160405180910390fd5b6000336001600160a01b038616148061126e575061126e8533610483565b8061128957503361127e846105a9565b6001600160a01b0316145b9050806112a957604051632ce44b5f60e11b815260040160405180910390fd5b6001600160a01b0384166112d057604051633a954ecd60e21b815260040160405180910390fd5b6112dd85858560016117e9565b6112e96000848761102e565b6001600160a01b038581166000908152600560209081526040808320805467ffffffffffffffff198082166001600160401b0392831660001901831617909255898616808652838620805493841693831660019081018416949094179055898652600490945282852080546001600160e01b031916909417600160a01b429092169190910217835587018084529220805491939091166113bd5760005482146113bd57805460208601516001600160401b0316600160a01b026001600160e01b03199091166001600160a01b038a16171781555b50505082846001600160a01b0316866001600160a01b03166000805160206127e983398151915260405160405180910390a45b5050505050565b610a0c8282604051806020016040528060008152506118d2565b6109a18160006118df565b60408051606081018252600080825260208201819052918101919091528160005481101561151d57600081815260046020908152604091829020825160608101845290546001600160a01b0381168252600160a01b81046001600160401b031692820192909252600160e01b90910460ff1615159181018290529061151b5780516001600160a01b0316156114b2579392505050565b5060001901600081815260046020908152604091829020825160608101845290546001600160a01b038116808352600160a01b82046001600160401b031693830193909352600160e01b900460ff1615159281019290925215611516579392505050565b6114b2565b505b604051636f96cda160e11b815260040160405180910390fd5b60008060006115458585611aa0565b9150915061155281611b0d565b509392505050565b600880546001600160a01b038381166001600160a01b0319831681179093556040519116919082907f8be0079c531659141344cd1fd0a4f28419497f9722a3daafe3b4186f6b6457e090600090a35050565b604051630a85bd0160e11b81526000906001600160a01b0385169063150b7a02906115e19033908990889088906004016124dd565b602060405180830381600087803b1580156115fb57600080fd5b505af192505050801561162b575060408051601f3d908101601f1916820190925261162891810190612315565b60015b611686573d808015611659576040519150601f19603f3d011682016040523d82523d6000602084013e61165e565b606091505b50805161167e576040516368d2bf6b60e11b815260040160405180910390fd5b805181602001fd5b6001600160e01b031916630a85bd0160e11b149050610aa2565b6060600a8054610526906126e5565b6060816116d35750506040805180820190915260018152600360fc1b602082015290565b8160005b81156116fd57806116e781612720565b91506116f69050600a8361266f565b91506116d7565b6000816001600160401b03811115611717576117176127a7565b6040519080825280601f01601f191660200182016040528015611741576020820181803683370190505b5090505b8415610aa2576117566001836126a2565b9150611763600a8661273b565b61176e906030612657565b60f81b81838151811061178357611783612791565b60200101906001600160f81b031916908160001a9053506117a5600a8661266f565b9450611745565b7f3fa96d7b6bcbfe71ef171666d84db3cf52fa2d1c8afdb1cc8e486177f208b7df82826040516117dd92919061260e565b60405180910390a15050565b600c54610100900460ff16156118345760405162461bcd60e51b815260206004820152601060248201526f14185d5cd8589b194e881c185d5cd95960821b60448201526064016106a5565b600e5460405163d98a966f60e01b81523060048201526001600160a01b038681166024830152858116604483015260648201859052608482018490524360a4830152664552433732314160c81b60c4830152620100009092049091169063d98a966f9060e401600060405180830381600087803b1580156118b457600080fd5b505af11580156118c8573d6000803e3d6000fd5b5050505050505050565b6106768383836001611cc8565b60006118ea8361141c565b80519091508215611950576000336001600160a01b038316148061191357506119138233610483565b8061192e575033611923866105a9565b6001600160a01b0316145b90508061194e57604051632ce44b5f60e11b815260040160405180910390fd5b505b61195e8160008660016117e9565b61196a6000858361102e565b6001600160a01b0380821660008181526005602090815260408083208054600160801b6000196001600160401b0380841691909101811667ffffffffffffffff198416811783900482166001908101831690930277ffffffffffffffff0000000000000000ffffffffffffffff19909416179290921783558b86526004909452828520805460ff60e01b1942909316600160a01b026001600160e01b03199091169097179690961716600160e01b178555918901808452922080549194909116611a68576000548214611a6857805460208701516001600160401b0316600160a01b026001600160e01b03199091166001600160a01b038716171781555b5050604051869250600091506001600160a01b038416906000805160206127e9833981519152908390a4505060018054810190555050565b600080825160411415611ad75760208301516040840151606085015160001a611acb87828585611e81565b9450945050505061086c565b825160401415611b015760208301516040840151611af6868383611f6e565b93509350505061086c565b5060009050600261086c565b6000816004811115611b2157611b2161277b565b1415611b2a5750565b6001816004811115611b3e57611b3e61277b565b1415611b8c5760405162461bcd60e51b815260206004820152601860248201527f45434453413a20696e76616c6964207369676e6174757265000000000000000060448201526064016106a5565b6002816004811115611ba057611ba061277b565b1415611bee5760405162461bcd60e51b815260206004820152601f60248201527f45434453413a20696e76616c6964207369676e6174757265206c656e6774680060448201526064016106a5565b6003816004811115611c0257611c0261277b565b1415611c5b5760405162461bcd60e51b815260206004820152602260248201527f45434453413a20696e76616c6964207369676e6174757265202773272076616c604482015261756560f01b60648201526084016106a5565b6004816004811115611c6f57611c6f61277b565b14156109a15760405162461bcd60e51b815260206004820152602260248201527f45434453413a20696e76616c6964207369676e6174757265202776272076616c604482015261756560f01b60648201526084016106a5565b6000546001600160a01b038516611cf157604051622e076360e81b815260040160405180910390fd5b83611d0f5760405163b562e8dd60e01b815260040160405180910390fd5b611d1c60008683876117e9565b6001600160a01b038516600081815260056020908152604080832080546fffffffffffffffffffffffffffffffff1981166001600160401b038083168c0181169182176801000000000000000067ffffffffffffffff1990941690921783900481168c01811690920217909155858452600490925290912080546001600160e01b031916909217600160a01b429092169190910217905580808501838015611dcd57506001600160a01b0387163b15155b15611e44575b60405182906001600160a01b038916906000906000805160206127e9833981519152908290a4611e0c60008884806001019550886115ac565b611e29576040516368d2bf6b60e11b815260040160405180910390fd5b80821415611dd3578260005414611e3f57600080fd5b611e78565b5b6040516001830192906001600160a01b038916906000906000805160206127e9833981519152908290a480821415611e45575b506000556113f0565b6000807f7fffffffffffffffffffffffffffffff5d576e7357a4501ddfe92f46681b20a0831115611eb85750600090506003611f65565b8460ff16601b14158015611ed057508460ff16601c14155b15611ee15750600090506004611f65565b6040805160008082526020820180845289905260ff881692820192909252606081018690526080810185905260019060a0016020604051602081039080840390855afa158015611f35573d6000803e3d6000fd5b5050604051601f1901519150506001600160a01b038116611f5e57600060019250925050611f65565b9150600090505b94509492505050565b6000806001600160ff1b03831681611f8b60ff86901c601b612657565b9050611f9987828885611e81565b935093505050935093915050565b828054611fb3906126e5565b90600052602060002090601f016020900481019282611fd5576000855561201b565b82601f10611fee57805160ff191683800117855561201b565b8280016001018555821561201b579182015b8281111561201b578251825591602001919060010190612000565b5061202792915061202b565b5090565b5b80821115612027576000815560010161202c565b60006001600160401b03831115612059576120596127a7565b61206c601f8401601f1916602001612627565b905082815283838301111561208057600080fd5b828260208301376000602084830101529392505050565b600082601f8301126120a857600080fd5b610ea183833560208501612040565b6000602082840312156120c957600080fd5b8135610ea1816127bd565b600080604083850312156120e757600080fd5b82356120f2816127bd565b91506020830135612102816127bd565b809150509250929050565b60008060006060848603121561212257600080fd5b833561212d816127bd565b9250602084013561213d816127bd565b929592945050506040919091013590565b6000806000806080858703121561216457600080fd5b843561216f816127bd565b9350602085013561217f816127bd565b92506040850135915060608501356001600160401b038111156121a157600080fd5b6121ad87828801612097565b91505092959194509250565b600080600080608085870312156121cf57600080fd5b84356121da816127bd565b93506020858101356001600160401b03808211156121f757600080fd5b818801915088601f83011261220b57600080fd5b81358181111561221d5761221d6127a7565b8060051b61222c858201612627565b8281528581019085870183870188018e101561224757600080fd5b600096505b8487101561226a57803583526001969096019591870191870161224c565b50985050505060408801359450606088013592508083111561228b57600080fd5b50506121ad87828801612097565b600080604083850312156122ac57600080fd5b82356122b7816127bd565b91506020830135801515811461210257600080fd5b600080604083850312156122df57600080fd5b82356122ea816127bd565b946020939093013593505050565b60006020828403121561230a57600080fd5b8135610ea1816127d2565b60006020828403121561232757600080fd5b8151610ea1816127d2565b60006020828403121561234457600080fd5b81356001600160401b0381111561235a57600080fd5b8201601f8101841361236b57600080fd5b610aa284823560208401612040565b60006020828403121561238c57600080fd5b5035919050565b6000806000606084860312156123a857600080fd5b8335925060208401356123ba816127bd565b915060408401356001600160601b03811681146123d657600080fd5b809150509250925092565b6000806000606084860312156123f657600080fd5b83359250602084013561213d816127bd565b6000806040838503121561241b57600080fd5b50508035926020909101359150565b600081518084526020808501945080840160005b8381101561247757815180516001600160a01b031688528301516001600160601b0316838801526040909601959082019060010161243e565b509495945050505050565b6000815180845261249a8160208601602086016126b9565b601f01601f19169290920160200192915050565b600083516124c08184602088016126b9565b8351908301906124d48183602088016126b9565b01949350505050565b6001600160a01b038581168252841660208201526040810183905260806060820181905260009061251090830184612482565b9695505050505050565b6001600160a01b038416815260606020808301829052845191830182905260009185820191906080850190845b8181101561256357845183529383019391830191600101612547565b5050809350505050826040830152949350505050565b6001600160a01b0394851681526020810193909352921660408201526060810191909152664552433732314160c81b608082015260a00190565b602081526000610ea1602083018461242a565b602081526000610ea16020830184612482565b6020808252818101527f4f776e61626c653a2063616c6c6572206973206e6f7420746865206f776e6572604082015260600190565b828152604060208201526000610aa2604083018461242a565b604051601f8201601f191681016001600160401b038111828210171561264f5761264f6127a7565b604052919050565b6000821982111561266a5761266a61274f565b500190565b60008261267e5761267e612765565b500490565b600081600019048311821515161561269d5761269d61274f565b500290565b6000828210156126b4576126b461274f565b500390565b60005b838110156126d45781810151838201526020016126bc565b8381111561075c5750506000910152565b600181811c908216806126f957607f821691505b6020821081141561271a57634e487b7160e01b600052602260045260246000fd5b50919050565b60006000198214156127345761273461274f565b5060010190565b60008261274a5761274a612765565b500690565b634e487b7160e01b600052601160045260246000fd5b634e487b7160e01b600052601260045260246000fd5b634e487b7160e01b600052602160045260246000fd5b634e487b7160e01b600052603260045260246000fd5b634e487b7160e01b600052604160045260246000fd5b6001600160a01b03811681146109a157600080fd5b6001600160e01b0319811681146109a157600080fdfeddf252ad1be2c89b69c2b068fc378daa952ba7f163c4a11628f55a4df523b3efa26469706673582212201bc70d0eeb58156f08d09c8de9b5d55692d0659e201a7551955eec072e44919b64736f6c63430008060033",
  "immutableReferences": {},
  "source": "// SPDX-License-Identifier: MIT\r\n// In ERC721A\r\npragma solidity ^0.8.0;\r\n\r\n//import '@openzeppelin/contracts/token/ERC721/extensions/ERC721URIStorage.sol';\r\nimport '@openzeppelin/contracts/access/Ownable.sol';\r\nimport \"erc721a/contracts/ERC721A.sol\";\r\nimport \"@openzeppelin/contracts/utils/cryptography/ECDSA.sol\";\r\nimport './Logger.sol';\r\n\r\n//Rarible has seperate smarts contracts called the Royalties Registry that is used to track/set the royalties of each NFT.\r\nimport \"./@rarible/royalties/contracts/impl/RoyaltiesV2Impl.sol\";\r\nimport \"./@rarible/royalties/contracts/LibPart.sol\";\r\nimport \"./@rarible/royalties/contracts/LibRoyaltiesV2.sol\";\r\n\r\n\r\ncontract INERC721A is ERC721A, Ownable, RoyaltiesV2Impl {\r\n    //using Strings for uint256;\r\n    \r\n    string public baseURI;\r\n    string _contractURI;\r\n    bool _lazyMint;\r\n    bool pause;\r\n    uint256 countToken;\r\n    //uint256 baseCollectionPrice;\r\n    uint16 _maxMint;\r\n    address addressLoger;\r\n    bytes4 private constant _INTERFACE_ID_ERC2981 = 0x2a55205a;\r\n    //bytes16 public baseExtension = \".json\";\r\n\r\n    constructor(string memory name, string memory symbol, string memory _initBaseURI, bool _lazy, address _addressLoger, uint16 __maxMint) ERC721A(name, symbol){\r\n        setBaseURI(_initBaseURI);\r\n        _lazyMint = _lazy;\r\n        addressLoger = _addressLoger;\r\n        _maxMint = __maxMint;\r\n    }\r\n\r\n    function getLazyMint() external view returns (bool){\r\n        return _lazyMint;\r\n    }\r\n\r\n    function signatureWallet(address wallet, uint256[] memory _tokensId, uint256 _timestamp, bytes memory _signature) public pure returns (address){\r\n\r\n        return ECDSA.recover(keccak256(abi.encode(wallet, _tokensId, _timestamp)), _signature);\r\n\r\n    }\r\n\r\n    function supportsInterface(bytes4 interfaceId) public view virtual override(ERC721A) returns (bool) {\r\n        if(interfaceId == LibRoyaltiesV2._INTERFACE_ID_ROYALTIES) {\r\n            return true;\r\n        }\r\n        if(interfaceId == _INTERFACE_ID_ERC2981) {\r\n            return true;\r\n        }\r\n        return super.supportsInterface(interfaceId);\r\n    } \r\n\r\n    ///@dev for Opensea metadata\r\n    function contractURI() public view returns (string memory) {\r\n        return _contractURI;\r\n    }\r\n\r\n    ///@dev set metadata opensea\r\n    function setContractURI(string memory _URI) external {\r\n        _contractURI = _URI;\r\n    }\r\n\r\n    function _baseURI() internal view virtual override returns (string memory) {\r\n        return baseURI;\r\n    }\r\n\r\n    function setBaseURI(string memory _newBaseURI) public onlyOwner {\r\n        baseURI = _newBaseURI;\r\n    }\r\n\r\n    function setRoyalties(\r\n        uint256 _tokenId,\r\n        address payable _royaltiesReceipientAddress,\r\n        uint96 _percentageBasisPoints\r\n    ) public onlyOwner {\r\n        LibPart.Part[] memory _royalties = new LibPart.Part[](1);\r\n        _royalties[0].value = _percentageBasisPoints;\r\n        _royalties[0].account = _royaltiesReceipientAddress;\r\n        _saveRoyalties(_tokenId, _royalties);\r\n    }\r\n\r\n    function royaltyInfo(uint256 _tokenId, uint256 _salePrice)\r\n        external\r\n        view\r\n        returns (address receiver, uint256 royaltyAmount)\r\n    {\r\n        LibPart.Part[] memory _royalties = royalties[_tokenId];\r\n        if (_royalties.length > 0) {\r\n            return (\r\n                _royalties[0].account,\r\n                (_salePrice * _royalties[0].value) / 10000\r\n            );\r\n        }\r\n        return (address(0), 0);\r\n    }\r\n\r\n    ///@dev Temporarily lock the contract\r\n    function paused() external onlyOwner {\r\n        pause=!pause;\r\n    }\r\n\r\n    function mint(uint256 quantity) external onlyOwner {\r\n        require(countToken+quantity<=_maxMint,\"Up max mint\");\r\n        if(_lazyMint==false){\r\n            _safeMint(msg.sender, quantity);\r\n            Logger(addressLoger)._Mints(address(this),countToken,msg.sender, quantity,\"ERC721A\");\r\n            countToken+=quantity;\r\n        }\r\n    }\r\n\r\n    function lazyMint(uint256 quantity, address _to, uint256 idToken) external {\r\n        if(_lazyMint==true){\r\n            require(countToken+quantity<=_maxMint,\"Up max mint\");\r\n            _safeMint(_to, quantity);\r\n            Logger(addressLoger)._Mints(address(this),idToken,_to, quantity,\"ERC721A\");\r\n        }\r\n    }\r\n\r\n    /**\r\n    Burn a token (Useless for this project, but it's always good to have one)\r\n     */\r\n    function burn(uint256 tokenId) external onlyOwner {\r\n        _burn(tokenId);\r\n    }\r\n\r\n    function exists(uint256 tokenId) external view returns (bool) {\r\n        return _startTokenId() <= tokenId && tokenId < _currentIndex &&\r\n            !_ownerships[tokenId].burned;\r\n    }\r\n\r\n    function _beforeTokenTransfers(\r\n        address from,\r\n        address to,\r\n        uint256 startTokenId,\r\n        uint256 quantity\r\n    ) internal virtual override(ERC721A) {\r\n        require(!pause, \"Pausable: paused\");\r\n        super._beforeTokenTransfers(from, to, startTokenId, quantity);\r\n        Logger(addressLoger)._Transfer(address(this), from, to, startTokenId, quantity, block.number,\"ERC721A\");\r\n        // do stuff before every transfer\r\n        // e.g. check that vote (other than when minted) \r\n        // being transferred to registered candidate\r\n    }\r\n\r\n}\r\n",
  "sourcePath": "C:\\Users\\KevinDell'ova\\Desktop\\Inverse contracts\\contracts\\INERC721A.sol",
  "compiler": {
    "name": "solc",
    "version": "0.8.6+commit.11564f7e.Emscripten.clang"
  },
  "schemaVersion": "3.4.4",
  "updatedAt": "2022-03-23T15:04:21.231Z",
  "networkType": "ethereum",
  "devdoc": {
    "kind": "dev",
    "methods": {
      "approve(address,uint256)": {
        "details": "See {IERC721-approve}."
      },
      "balanceOf(address)": {
        "details": "See {IERC721-balanceOf}."
      },
      "contractURI()": {
        "details": "for Opensea metadata"
      },
      "getApproved(uint256)": {
        "details": "See {IERC721-getApproved}."
      },
      "isApprovedForAll(address,address)": {
        "details": "See {IERC721-isApprovedForAll}."
      },
      "name()": {
        "details": "See {IERC721Metadata-name}."
      },
      "owner()": {
        "details": "Returns the address of the current owner."
      },
      "ownerOf(uint256)": {
        "details": "See {IERC721-ownerOf}."
      },
      "paused()": {
        "details": "Temporarily lock the contract"
      },
      "renounceOwnership()": {
        "details": "Leaves the contract without owner. It will not be possible to call `onlyOwner` functions anymore. Can only be called by the current owner. NOTE: Renouncing ownership will leave the contract without an owner, thereby removing any functionality that is only available to the owner."
      },
      "safeTransferFrom(address,address,uint256)": {
        "details": "See {IERC721-safeTransferFrom}."
      },
      "safeTransferFrom(address,address,uint256,bytes)": {
        "details": "See {IERC721-safeTransferFrom}."
      },
      "setApprovalForAll(address,bool)": {
        "details": "See {IERC721-setApprovalForAll}."
      },
      "setContractURI(string)": {
        "details": "set metadata opensea"
      },
      "supportsInterface(bytes4)": {
        "details": "See {IERC165-supportsInterface}."
      },
      "symbol()": {
        "details": "See {IERC721Metadata-symbol}."
      },
      "tokenURI(uint256)": {
        "details": "See {IERC721Metadata-tokenURI}."
      },
      "totalSupply()": {
        "details": "Burned tokens are calculated here, use _totalMinted() if you want to count just minted tokens."
      },
      "transferFrom(address,address,uint256)": {
        "details": "See {IERC721-transferFrom}."
      },
      "transferOwnership(address)": {
        "details": "Transfers ownership of the contract to a new account (`newOwner`). Can only be called by the current owner."
      }
    },
    "version": 1
  },
  "userdoc": {
    "kind": "user",
    "methods": {
      "burn(uint256)": {
        "notice": "Burn a token (Useless for this project, but it's always good to have one)"
      }
    },
    "version": 1
  }
}