{
  "contractName": "Logger",
  "abi": [
    {
      "anonymous": false,
      "inputs": [
        {
          "indexed": true,
          "internalType": "address",
          "name": "marketPlace",
          "type": "address"
        },
        {
          "indexed": false,
          "internalType": "address",
          "name": "addressBidder",
          "type": "address"
        },
        {
          "indexed": false,
          "internalType": "uint256",
          "name": "bid",
          "type": "uint256"
        },
        {
          "indexed": false,
          "internalType": "uint256",
          "name": "listingId",
          "type": "uint256"
        }
      ],
      "name": "Bidders",
      "type": "event"
    },
    {
      "anonymous": false,
      "inputs": [
        {
          "indexed": true,
          "internalType": "address",
          "name": "tokenAddress",
          "type": "address"
        },
        {
          "indexed": false,
          "internalType": "address",
          "name": "addressBuyer",
          "type": "address"
        },
        {
          "indexed": false,
          "internalType": "uint256",
          "name": "value",
          "type": "uint256"
        },
        {
          "indexed": false,
          "internalType": "uint256",
          "name": "tokenId",
          "type": "uint256"
        },
        {
          "indexed": false,
          "internalType": "uint256",
          "name": "listingId",
          "type": "uint256"
        }
      ],
      "name": "Buy",
      "type": "event"
    },
    {
      "anonymous": false,
      "inputs": [
        {
          "indexed": true,
          "internalType": "address",
          "name": "marketPlace",
          "type": "address"
        },
        {
          "indexed": true,
          "internalType": "uint256",
          "name": "id",
          "type": "uint256"
        },
        {
          "indexed": false,
          "internalType": "address",
          "name": "owner",
          "type": "address"
        },
        {
          "components": [
            {
              "components": [
                {
                  "internalType": "address",
                  "name": "addressBidder",
                  "type": "address"
                },
                {
                  "internalType": "uint256",
                  "name": "bid",
                  "type": "uint256"
                }
              ],
              "internalType": "struct Struct.Bidder",
              "name": "lastBidder",
              "type": "tuple"
            },
            {
              "internalType": "address",
              "name": "addressContractToken",
              "type": "address"
            },
            {
              "internalType": "address",
              "name": "addressMinter",
              "type": "address"
            },
            {
              "internalType": "address[]",
              "name": "_royaltiesAddr",
              "type": "address[]"
            },
            {
              "internalType": "uint8[]",
              "name": "_royaltiesPercent",
              "type": "uint8[]"
            },
            {
              "internalType": "uint256[]",
              "name": "_tokenInAuction",
              "type": "uint256[]"
            },
            {
              "internalType": "uint256[]",
              "name": "_priceToken",
              "type": "uint256[]"
            },
            {
              "internalType": "uint256",
              "name": "listingId",
              "type": "uint256"
            },
            {
              "internalType": "uint256",
              "name": "minBid",
              "type": "uint256"
            },
            {
              "internalType": "uint256",
              "name": "startDate",
              "type": "uint256"
            },
            {
              "internalType": "uint256",
              "name": "timeAuction",
              "type": "uint256"
            },
            {
              "internalType": "bool",
              "name": "paused",
              "type": "bool"
            },
            {
              "internalType": "bool",
              "name": "direct",
              "type": "bool"
            },
            {
              "internalType": "uint8",
              "name": "tokenType",
              "type": "uint8"
            }
          ],
          "indexed": false,
          "internalType": "struct Struct.List",
          "name": "list",
          "type": "tuple"
        },
        {
          "indexed": false,
          "internalType": "bytes32",
          "name": "typeString",
          "type": "bytes32"
        }
      ],
      "name": "Lists",
      "type": "event"
    },
    {
      "anonymous": false,
      "inputs": [
        {
          "indexed": true,
          "internalType": "address",
          "name": "tokenAddress",
          "type": "address"
        },
        {
          "indexed": true,
          "internalType": "uint256",
          "name": "id",
          "type": "uint256"
        },
        {
          "indexed": false,
          "internalType": "address",
          "name": "minter",
          "type": "address"
        },
        {
          "indexed": false,
          "internalType": "uint256",
          "name": "quantity",
          "type": "uint256"
        },
        {
          "indexed": false,
          "internalType": "bytes32",
          "name": "typeToken",
          "type": "bytes32"
        }
      ],
      "name": "Mints",
      "type": "event"
    },
    {
      "anonymous": false,
      "inputs": [
        {
          "indexed": true,
          "internalType": "address",
          "name": "previousOwner",
          "type": "address"
        },
        {
          "indexed": true,
          "internalType": "address",
          "name": "newOwner",
          "type": "address"
        }
      ],
      "name": "OwnershipTransferred",
      "type": "event"
    },
    {
      "anonymous": false,
      "inputs": [
        {
          "indexed": true,
          "internalType": "address",
          "name": "marketPlace",
          "type": "address"
        },
        {
          "indexed": true,
          "internalType": "uint256",
          "name": "_listingId",
          "type": "uint256"
        },
        {
          "indexed": false,
          "internalType": "address",
          "name": "royaltyAddress",
          "type": "address"
        },
        {
          "indexed": false,
          "internalType": "uint256",
          "name": "percent",
          "type": "uint256"
        }
      ],
      "name": "Paiement",
      "type": "event"
    },
    {
      "anonymous": false,
      "inputs": [
        {
          "indexed": true,
          "internalType": "address",
          "name": "tokenAddress",
          "type": "address"
        },
        {
          "indexed": false,
          "internalType": "address",
          "name": "from",
          "type": "address"
        },
        {
          "indexed": false,
          "internalType": "address",
          "name": "to",
          "type": "address"
        },
        {
          "indexed": false,
          "internalType": "uint256",
          "name": "startTokenId",
          "type": "uint256"
        },
        {
          "indexed": false,
          "internalType": "uint256",
          "name": "quantity",
          "type": "uint256"
        },
        {
          "indexed": false,
          "internalType": "uint256",
          "name": "blocknumber",
          "type": "uint256"
        },
        {
          "indexed": false,
          "internalType": "bytes32",
          "name": "typeToken",
          "type": "bytes32"
        }
      ],
      "name": "Transfer",
      "type": "event"
    },
    {
      "anonymous": false,
      "inputs": [
        {
          "indexed": true,
          "internalType": "address",
          "name": "operator",
          "type": "address"
        },
        {
          "indexed": true,
          "internalType": "address",
          "name": "from",
          "type": "address"
        },
        {
          "indexed": false,
          "internalType": "address",
          "name": "to",
          "type": "address"
        },
        {
          "indexed": false,
          "internalType": "uint256[]",
          "name": "ids",
          "type": "uint256[]"
        },
        {
          "indexed": false,
          "internalType": "uint256[]",
          "name": "amounts",
          "type": "uint256[]"
        },
        {
          "indexed": false,
          "internalType": "uint256",
          "name": "blocknumber",
          "type": "uint256"
        }
      ],
      "name": "TransferERC1155",
      "type": "event"
    },
    {
      "inputs": [],
      "name": "owner",
      "outputs": [
        {
          "internalType": "address",
          "name": "",
          "type": "address"
        }
      ],
      "stateMutability": "view",
      "type": "function",
      "constant": true
    },
    {
      "inputs": [],
      "name": "renounceOwnership",
      "outputs": [],
      "stateMutability": "nonpayable",
      "type": "function"
    },
    {
      "inputs": [
        {
          "internalType": "address",
          "name": "newOwner",
          "type": "address"
        }
      ],
      "name": "transferOwnership",
      "outputs": [],
      "stateMutability": "nonpayable",
      "type": "function"
    },
    {
      "inputs": [
        {
          "internalType": "address",
          "name": "marketPlace",
          "type": "address"
        },
        {
          "internalType": "address",
          "name": "addressBidder",
          "type": "address"
        },
        {
          "internalType": "uint256",
          "name": "bid",
          "type": "uint256"
        },
        {
          "internalType": "uint256",
          "name": "listingId",
          "type": "uint256"
        }
      ],
      "name": "_Bidders",
      "outputs": [],
      "stateMutability": "nonpayable",
      "type": "function"
    },
    {
      "inputs": [
        {
          "internalType": "address",
          "name": "tokenAddress",
          "type": "address"
        },
        {
          "internalType": "address",
          "name": "addressBuyer",
          "type": "address"
        },
        {
          "internalType": "uint256",
          "name": "value",
          "type": "uint256"
        },
        {
          "internalType": "uint256",
          "name": "tokenId",
          "type": "uint256"
        },
        {
          "internalType": "uint256",
          "name": "listingId",
          "type": "uint256"
        }
      ],
      "name": "_Buy",
      "outputs": [],
      "stateMutability": "nonpayable",
      "type": "function"
    },
    {
      "inputs": [
        {
          "internalType": "address",
          "name": "marketPlace",
          "type": "address"
        },
        {
          "internalType": "uint256",
          "name": "id",
          "type": "uint256"
        },
        {
          "internalType": "address",
          "name": "owner",
          "type": "address"
        },
        {
          "components": [
            {
              "components": [
                {
                  "internalType": "address",
                  "name": "addressBidder",
                  "type": "address"
                },
                {
                  "internalType": "uint256",
                  "name": "bid",
                  "type": "uint256"
                }
              ],
              "internalType": "struct Struct.Bidder",
              "name": "lastBidder",
              "type": "tuple"
            },
            {
              "internalType": "address",
              "name": "addressContractToken",
              "type": "address"
            },
            {
              "internalType": "address",
              "name": "addressMinter",
              "type": "address"
            },
            {
              "internalType": "address[]",
              "name": "_royaltiesAddr",
              "type": "address[]"
            },
            {
              "internalType": "uint8[]",
              "name": "_royaltiesPercent",
              "type": "uint8[]"
            },
            {
              "internalType": "uint256[]",
              "name": "_tokenInAuction",
              "type": "uint256[]"
            },
            {
              "internalType": "uint256[]",
              "name": "_priceToken",
              "type": "uint256[]"
            },
            {
              "internalType": "uint256",
              "name": "listingId",
              "type": "uint256"
            },
            {
              "internalType": "uint256",
              "name": "minBid",
              "type": "uint256"
            },
            {
              "internalType": "uint256",
              "name": "startDate",
              "type": "uint256"
            },
            {
              "internalType": "uint256",
              "name": "timeAuction",
              "type": "uint256"
            },
            {
              "internalType": "bool",
              "name": "paused",
              "type": "bool"
            },
            {
              "internalType": "bool",
              "name": "direct",
              "type": "bool"
            },
            {
              "internalType": "uint8",
              "name": "tokenType",
              "type": "uint8"
            }
          ],
          "internalType": "struct Struct.List",
          "name": "list",
          "type": "tuple"
        },
        {
          "internalType": "bytes32",
          "name": "typeString",
          "type": "bytes32"
        }
      ],
      "name": "_Lists",
      "outputs": [],
      "stateMutability": "nonpayable",
      "type": "function"
    },
    {
      "inputs": [
        {
          "internalType": "address",
          "name": "marketPlace",
          "type": "address"
        },
        {
          "internalType": "uint256",
          "name": "_listingId",
          "type": "uint256"
        },
        {
          "internalType": "address",
          "name": "royaltyAddress",
          "type": "address"
        },
        {
          "internalType": "uint256",
          "name": "percent",
          "type": "uint256"
        }
      ],
      "name": "_Paiement",
      "outputs": [],
      "stateMutability": "nonpayable",
      "type": "function"
    },
    {
      "inputs": [
        {
          "internalType": "address",
          "name": "tokenAddress",
          "type": "address"
        },
        {
          "internalType": "uint256",
          "name": "id",
          "type": "uint256"
        },
        {
          "internalType": "address",
          "name": "minter",
          "type": "address"
        },
        {
          "internalType": "uint256",
          "name": "quantity",
          "type": "uint256"
        },
        {
          "internalType": "bytes32",
          "name": "typeToken",
          "type": "bytes32"
        }
      ],
      "name": "_Mints",
      "outputs": [],
      "stateMutability": "nonpayable",
      "type": "function"
    },
    {
      "inputs": [
        {
          "internalType": "address",
          "name": "tokenAddress",
          "type": "address"
        },
        {
          "internalType": "address",
          "name": "from",
          "type": "address"
        },
        {
          "internalType": "address",
          "name": "to",
          "type": "address"
        },
        {
          "internalType": "uint256",
          "name": "startTokenId",
          "type": "uint256"
        },
        {
          "internalType": "uint256",
          "name": "quantity",
          "type": "uint256"
        },
        {
          "internalType": "uint256",
          "name": "blocknumber",
          "type": "uint256"
        },
        {
          "internalType": "bytes32",
          "name": "typeToken",
          "type": "bytes32"
        }
      ],
      "name": "_Transfer",
      "outputs": [],
      "stateMutability": "nonpayable",
      "type": "function"
    },
    {
      "inputs": [
        {
          "internalType": "address",
          "name": "operator",
          "type": "address"
        },
        {
          "internalType": "address",
          "name": "from",
          "type": "address"
        },
        {
          "internalType": "address",
          "name": "to",
          "type": "address"
        },
        {
          "internalType": "uint256[]",
          "name": "ids",
          "type": "uint256[]"
        },
        {
          "internalType": "uint256[]",
          "name": "amounts",
          "type": "uint256[]"
        },
        {
          "internalType": "uint256",
          "name": "blocknumber",
          "type": "uint256"
        }
      ],
      "name": "_TransferERC1155",
      "outputs": [],
      "stateMutability": "nonpayable",
      "type": "function"
    }
  ],
  "bytecode": "0x608060405234801561001057600080fd5b5061001a3361001f565b61006f565b600080546001600160a01b038381166001600160a01b0319831681178455604051919092169283917f8be0079c531659141344cd1fd0a4f28419497f9722a3daafe3b4186f6b6457e09190a35050565b610e258061007e6000396000f3fe608060405234801561001057600080fd5b506004361061009e5760003560e01c8063b7cbb19511610066578063b7cbb19514610105578063bbe5ffce14610118578063d20845841461012b578063d98a966f1461013e578063f2fde38b1461015157600080fd5b806352718cd0146100a3578063626a65fc146100b8578063715018a6146100cb5780638d57ed1a146100d35780638da5cb5b146100e6575b600080fd5b6100b66100b13660046108d6565b610164565b005b6100b66100c6366004610889565b6101b1565b6100b661020d565b6100b66100e1366004610a80565b610278565b600054604080516001600160a01b039092168252519081900360200190f35b6100b6610113366004610847565b6102c7565b6100b6610126366004610ac4565b61031c565b6100b6610139366004610741565b610369565b6100b661014c3660046107df565b6103c2565b6100b661015f36600461071f565b610430565b83856001600160a01b03167f25ba84fc6d12022ef34913db13c562e8e351a9db139f0be8bdc2cf53a680338e8585856040516101a293929190610c01565b60405180910390a35050505050565b604080516001600160a01b0386811682526020820186905291810184905260608101839052908616907ef93dbdb72854b6b6fb35433086556f2635fc83c37080c667496fecfa650fb49060800160405180910390a25050505050565b6000546001600160a01b0316331461026c5760405162461bcd60e51b815260206004820181905260248201527f4f776e61626c653a2063616c6c6572206973206e6f7420746865206f776e657260448201526064015b60405180910390fd5b61027660006104fb565b565b604080516001600160a01b038481168252602082018490528592908716917fa5c7a27fdaf26fa197badcd11adac3bf2540bdb6e42966e0e4c4176ff1921730910160405180910390a350505050565b604080516001600160a01b03858116825260208201859052918101839052908516907fd85da2b158f333a46fdfd10147904afb3e00a7a29ace5ddcd2e03efc2509b0639060600160405180910390a250505050565b604080516001600160a01b0385811682526020820185905291810183905285918716907fd2c2cc1298de6121308cd983e5af37a5d75aad2fb1457e57d92d1da6944bed89906060016101a2565b846001600160a01b0316866001600160a01b03167fa1d295d53a49b3c9cdacd20ce5cd3505b3491878e4bf5e7e7560fceca84c1fb4868686866040516103b29493929190610bb9565b60405180910390a3505050505050565b604080516001600160a01b0388811682528781166020830152918101869052606081018590526080810184905260a08101839052908816907f6364510e69f89ea97ced5c6409cb62f1426dc14af4628a3232f1c325937b65ee9060c00160405180910390a250505050505050565b6000546001600160a01b0316331461048a5760405162461bcd60e51b815260206004820181905260248201527f4f776e61626c653a2063616c6c6572206973206e6f7420746865206f776e65726044820152606401610263565b6001600160a01b0381166104ef5760405162461bcd60e51b815260206004820152602660248201527f4f776e61626c653a206e6577206f776e657220697320746865207a65726f206160448201526564647265737360d01b6064820152608401610263565b6104f8816104fb565b50565b600080546001600160a01b038381166001600160a01b0319831681178455604051919092169283917f8be0079c531659141344cd1fd0a4f28419497f9722a3daafe3b4186f6b6457e09190a35050565b80356001600160a01b038116811461056257600080fd5b919050565b600082601f83011261057857600080fd5b8135602061058d61058883610db5565b610d84565b80838252828201915082860187848660051b89010111156105ad57600080fd5b60005b858110156105d3576105c18261054b565b845292840192908401906001016105b0565b5090979650505050505050565b600082601f8301126105f157600080fd5b8135602061060161058883610db5565b80838252828201915082860187848660051b890101111561062157600080fd5b60005b858110156105d357813584529284019290840190600101610624565b600082601f83011261065157600080fd5b8135602061066161058883610db5565b80838252828201915082860187848660051b890101111561068157600080fd5b60005b858110156105d3576106958261070e565b84529284019290840190600101610684565b8035801515811461056257600080fd5b6000604082840312156106c957600080fd5b6040516040810181811067ffffffffffffffff821117156106ec576106ec610dd9565b6040529050806106fb8361054b565b8152602083013560208201525092915050565b803560ff8116811461056257600080fd5b60006020828403121561073157600080fd5b61073a8261054b565b9392505050565b60008060008060008060c0878903121561075a57600080fd5b6107638761054b565b95506107716020880161054b565b945061077f6040880161054b565b9350606087013567ffffffffffffffff8082111561079c57600080fd5b6107a88a838b016105e0565b945060808901359150808211156107be57600080fd5b506107cb89828a016105e0565b92505060a087013590509295509295509295565b600080600080600080600060e0888a0312156107fa57600080fd5b6108038861054b565b96506108116020890161054b565b955061081f6040890161054b565b969995985095966060810135965060808101359560a0820135955060c0909101359350915050565b6000806000806080858703121561085d57600080fd5b6108668561054b565b93506108746020860161054b565b93969395505050506040820135916060013590565b600080600080600060a086880312156108a157600080fd5b6108aa8661054b565b94506108b86020870161054b565b94979496505050506040830135926060810135926080909101359150565b600080600080600060a086880312156108ee57600080fd5b6108f78661054b565b94506020860135935061090c6040870161054b565b9250606086013567ffffffffffffffff8082111561092957600080fd5b908701906101e0828a03121561093e57600080fd5b610946610d5a565b6109508a846106b7565b815261095e6040840161054b565b602082015261096f6060840161054b565b604082015260808301358281111561098657600080fd5b6109928b828601610567565b60608301525060a0830135828111156109aa57600080fd5b6109b68b828601610640565b60808301525060c0830135828111156109ce57600080fd5b6109da8b8286016105e0565b60a08301525060e0830135828111156109f257600080fd5b6109fe8b8286016105e0565b60c08301525061010091508183013560e08201526101208084013583830152610140925082840135818301525061016080840135838301526101809250610a468385016106a7565b908201526101a0610a588482016106a7565b83830152610a696101c0850161070e565b908201529699959850939660800135949350505050565b60008060008060808587031215610a9657600080fd5b610a9f8561054b565b935060208501359250610ab46040860161054b565b9396929550929360600135925050565b600080600080600060a08688031215610adc57600080fd5b610ae58661054b565b945060208601359350610afa6040870161054b565b94979396509394606081013594506080013592915050565b600081518084526020808501945080840160005b83811015610b4b5781516001600160a01b031687529582019590820190600101610b26565b509495945050505050565b600081518084526020808501945080840160005b83811015610b4b57815187529582019590820190600101610b6a565b600081518084526020808501945080840160005b83811015610b4b57815160ff1687529582019590820190600101610b9a565b6001600160a01b0385168152608060208201819052600090610bdd90830186610b56565b8281036040840152610bef8186610b56565b91505082606083015295945050505050565b6001600160a01b03841681526060602082018190528351610c379183019080516001600160a01b03168252602090810151910152565b60006020840151610c5360a08401826001600160a01b03169052565b5060408401516001600160a01b031660c083015260608401516101e060e08401819052610c84610240850183610b12565b91506080860151605f19610100818786030181880152610ca48584610b86565b945060a08901519250610120828887030181890152610cc38685610b56565b955060c08a015193506101408389880301818a0152610ce28786610b56565b60e08c01516101608b810191909152938c0151610180808c0191909152928c01516101a0808c0191909152918c01516101c08b0152928b015115159589019590955289015115156102008801529288015160ff8116610220880152929350610d48915050565b50604092909201929092529392505050565b6040516101c0810167ffffffffffffffff81118282101715610d7e57610d7e610dd9565b60405290565b604051601f8201601f1916810167ffffffffffffffff81118282101715610dad57610dad610dd9565b604052919050565b600067ffffffffffffffff821115610dcf57610dcf610dd9565b5060051b60200190565b634e487b7160e01b600052604160045260246000fdfea26469706673582212206374f337613c2309511d1ee9b1219d31ce924ab191a6b95cb4ca399c5ce7a26364736f6c63430008060033",
  "immutableReferences": {},
  "source": "// SPDX-License-Identifier: MIT\r\n// Logger\r\npragma solidity ^0.8.0;\r\n\r\nimport './Struct.sol';\r\nimport '@openzeppelin/contracts/access/Ownable.sol';\r\n\r\n\r\ncontract Logger is Ownable, Struct {\r\n    \r\n    event Bidders(address indexed marketPlace, address addressBidder, uint256 bid, uint256 listingId);\r\n    event Buy(address indexed tokenAddress, address addressBuyer, uint256 value, uint256 tokenId, uint256 listingId);\r\n    event Lists(address indexed marketPlace, uint256 indexed id, address owner, List list, bytes32 typeString);\r\n    event Paiement(address indexed marketPlace, uint256 indexed _listingId, address royaltyAddress, uint256 percent);\r\n    event Mints(address indexed tokenAddress, uint256 indexed id, address minter, uint256 quantity, bytes32 typeToken);\r\n    event Transfer(address indexed tokenAddress, address from, address to, uint256 startTokenId, uint256 quantity, uint256 blocknumber, bytes32 typeToken);\r\n    event TransferERC1155(address indexed operator, address indexed from, address to, uint256[] ids, uint256[] amounts, uint256 blocknumber);\r\n\r\n    function _Bidders(address marketPlace, address addressBidder, uint256 bid, uint256 listingId) external {\r\n        emit Bidders(marketPlace, addressBidder, bid, listingId);\r\n    }\r\n\r\n    function _Buy(address tokenAddress, address addressBuyer, uint256 value, uint256 tokenId, uint256 listingId) external {\r\n        emit Buy(tokenAddress, addressBuyer, value, tokenId, listingId);\r\n    }\r\n\r\n    function _Lists(address marketPlace, uint256 id, address owner, List memory list, bytes32 typeString) external {\r\n        emit Lists(marketPlace, id, owner, list, typeString);\r\n    }\r\n\r\n    function _Paiement(address marketPlace, uint256 _listingId, address royaltyAddress, uint256 percent) external {\r\n        emit Paiement(marketPlace, _listingId, royaltyAddress, percent);\r\n    }\r\n\r\n    function _Mints(address tokenAddress, uint256 id, address minter, uint256 quantity, bytes32 typeToken) external{\r\n        emit Mints(tokenAddress, id, minter, quantity, typeToken);\r\n    }\r\n\r\n    function _Transfer(address tokenAddress, address from, address to, uint256 startTokenId, uint256 quantity, uint256 blocknumber, bytes32 typeToken) external{\r\n        emit Transfer(tokenAddress, from, to, startTokenId, quantity, blocknumber, typeToken);\r\n    }\r\n\r\n    function _TransferERC1155(address operator, address from, address to, uint256[] memory ids, uint256[] memory amounts, uint256 blocknumber) external{\r\n        emit TransferERC1155(operator, from, to, ids, amounts, blocknumber);\r\n    }\r\n\r\n}\r\n\r\n",
  "sourcePath": "C:\\Users\\KevinDell'ova\\Desktop\\Inverse contracts\\contracts\\Logger.sol",
  "compiler": {
    "name": "solc",
    "version": "0.8.6+commit.11564f7e.Emscripten.clang"
  },
  "schemaVersion": "3.4.4",
  "updatedAt": "2022-03-23T15:04:21.250Z",
  "networkType": "ethereum",
  "devdoc": {
    "kind": "dev",
    "methods": {
      "owner()": {
        "details": "Returns the address of the current owner."
      },
      "renounceOwnership()": {
        "details": "Leaves the contract without owner. It will not be possible to call `onlyOwner` functions anymore. Can only be called by the current owner. NOTE: Renouncing ownership will leave the contract without an owner, thereby removing any functionality that is only available to the owner."
      },
      "transferOwnership(address)": {
        "details": "Transfers ownership of the contract to a new account (`newOwner`). Can only be called by the current owner."
      }
    },
    "version": 1
  },
  "userdoc": {
    "kind": "user",
    "methods": {},
    "version": 1
  }
}