{
  "contractName": "MarketPlace",
  "abi": [
    {
      "inputs": [
        {
          "internalType": "address",
          "name": "_addressLoger",
          "type": "address"
        }
      ],
      "stateMutability": "nonpayable",
      "type": "constructor"
    },
    {
      "anonymous": false,
      "inputs": [
        {
          "indexed": true,
          "internalType": "address",
          "name": "previousOwner",
          "type": "address"
        },
        {
          "indexed": true,
          "internalType": "address",
          "name": "newOwner",
          "type": "address"
        }
      ],
      "name": "OwnershipTransferred",
      "type": "event"
    },
    {
      "inputs": [],
      "name": "owner",
      "outputs": [
        {
          "internalType": "address",
          "name": "",
          "type": "address"
        }
      ],
      "stateMutability": "view",
      "type": "function",
      "constant": true
    },
    {
      "inputs": [],
      "name": "renounceOwnership",
      "outputs": [],
      "stateMutability": "nonpayable",
      "type": "function"
    },
    {
      "inputs": [
        {
          "internalType": "address",
          "name": "newOwner",
          "type": "address"
        }
      ],
      "name": "transferOwnership",
      "outputs": [],
      "stateMutability": "nonpayable",
      "type": "function"
    },
    {
      "inputs": [
        {
          "components": [
            {
              "components": [
                {
                  "internalType": "address",
                  "name": "addressBidder",
                  "type": "address"
                },
                {
                  "internalType": "uint256",
                  "name": "bid",
                  "type": "uint256"
                }
              ],
              "internalType": "struct Struct.Bidder",
              "name": "lastBidder",
              "type": "tuple"
            },
            {
              "internalType": "address",
              "name": "addressContractToken",
              "type": "address"
            },
            {
              "internalType": "address",
              "name": "addressMinter",
              "type": "address"
            },
            {
              "internalType": "address[]",
              "name": "_royaltiesAddr",
              "type": "address[]"
            },
            {
              "internalType": "uint8[]",
              "name": "_royaltiesPercent",
              "type": "uint8[]"
            },
            {
              "internalType": "uint256[]",
              "name": "_tokenInAuction",
              "type": "uint256[]"
            },
            {
              "internalType": "uint256[]",
              "name": "_priceToken",
              "type": "uint256[]"
            },
            {
              "internalType": "uint256",
              "name": "listingId",
              "type": "uint256"
            },
            {
              "internalType": "uint256",
              "name": "minBid",
              "type": "uint256"
            },
            {
              "internalType": "uint256",
              "name": "startDate",
              "type": "uint256"
            },
            {
              "internalType": "uint256",
              "name": "timeAuction",
              "type": "uint256"
            },
            {
              "internalType": "bool",
              "name": "paused",
              "type": "bool"
            },
            {
              "internalType": "bool",
              "name": "direct",
              "type": "bool"
            },
            {
              "internalType": "uint8",
              "name": "tokenType",
              "type": "uint8"
            }
          ],
          "internalType": "struct Struct.List",
          "name": "paramsList",
          "type": "tuple"
        }
      ],
      "name": "createList",
      "outputs": [
        {
          "internalType": "uint256",
          "name": "",
          "type": "uint256"
        }
      ],
      "stateMutability": "nonpayable",
      "type": "function"
    },
    {
      "inputs": [
        {
          "components": [
            {
              "components": [
                {
                  "internalType": "address",
                  "name": "addressBidder",
                  "type": "address"
                },
                {
                  "internalType": "uint256",
                  "name": "bid",
                  "type": "uint256"
                }
              ],
              "internalType": "struct Struct.Bidder",
              "name": "lastBidder",
              "type": "tuple"
            },
            {
              "internalType": "address",
              "name": "addressContractToken",
              "type": "address"
            },
            {
              "internalType": "address",
              "name": "addressMinter",
              "type": "address"
            },
            {
              "internalType": "address[]",
              "name": "_royaltiesAddr",
              "type": "address[]"
            },
            {
              "internalType": "uint8[]",
              "name": "_royaltiesPercent",
              "type": "uint8[]"
            },
            {
              "internalType": "uint256[]",
              "name": "_tokenInAuction",
              "type": "uint256[]"
            },
            {
              "internalType": "uint256[]",
              "name": "_priceToken",
              "type": "uint256[]"
            },
            {
              "internalType": "uint256",
              "name": "listingId",
              "type": "uint256"
            },
            {
              "internalType": "uint256",
              "name": "minBid",
              "type": "uint256"
            },
            {
              "internalType": "uint256",
              "name": "startDate",
              "type": "uint256"
            },
            {
              "internalType": "uint256",
              "name": "timeAuction",
              "type": "uint256"
            },
            {
              "internalType": "bool",
              "name": "paused",
              "type": "bool"
            },
            {
              "internalType": "bool",
              "name": "direct",
              "type": "bool"
            },
            {
              "internalType": "uint8",
              "name": "tokenType",
              "type": "uint8"
            }
          ],
          "internalType": "struct Struct.List",
          "name": "paramsList",
          "type": "tuple"
        }
      ],
      "name": "updateList",
      "outputs": [
        {
          "components": [
            {
              "components": [
                {
                  "internalType": "address",
                  "name": "addressBidder",
                  "type": "address"
                },
                {
                  "internalType": "uint256",
                  "name": "bid",
                  "type": "uint256"
                }
              ],
              "internalType": "struct Struct.Bidder",
              "name": "lastBidder",
              "type": "tuple"
            },
            {
              "internalType": "address",
              "name": "addressContractToken",
              "type": "address"
            },
            {
              "internalType": "address",
              "name": "addressMinter",
              "type": "address"
            },
            {
              "internalType": "address[]",
              "name": "_royaltiesAddr",
              "type": "address[]"
            },
            {
              "internalType": "uint8[]",
              "name": "_royaltiesPercent",
              "type": "uint8[]"
            },
            {
              "internalType": "uint256[]",
              "name": "_tokenInAuction",
              "type": "uint256[]"
            },
            {
              "internalType": "uint256[]",
              "name": "_priceToken",
              "type": "uint256[]"
            },
            {
              "internalType": "uint256",
              "name": "listingId",
              "type": "uint256"
            },
            {
              "internalType": "uint256",
              "name": "minBid",
              "type": "uint256"
            },
            {
              "internalType": "uint256",
              "name": "startDate",
              "type": "uint256"
            },
            {
              "internalType": "uint256",
              "name": "timeAuction",
              "type": "uint256"
            },
            {
              "internalType": "bool",
              "name": "paused",
              "type": "bool"
            },
            {
              "internalType": "bool",
              "name": "direct",
              "type": "bool"
            },
            {
              "internalType": "uint8",
              "name": "tokenType",
              "type": "uint8"
            }
          ],
          "internalType": "struct Struct.List",
          "name": "",
          "type": "tuple"
        }
      ],
      "stateMutability": "nonpayable",
      "type": "function"
    },
    {
      "inputs": [
        {
          "internalType": "uint256",
          "name": "_listingId",
          "type": "uint256"
        },
        {
          "internalType": "uint256",
          "name": "tokenNumber",
          "type": "uint256"
        },
        {
          "internalType": "uint256",
          "name": "tokenId",
          "type": "uint256"
        }
      ],
      "name": "buy",
      "outputs": [],
      "stateMutability": "payable",
      "type": "function",
      "payable": true
    },
    {
      "inputs": [
        {
          "internalType": "uint256",
          "name": "_listingId",
          "type": "uint256"
        }
      ],
      "name": "cancelList",
      "outputs": [],
      "stateMutability": "nonpayable",
      "type": "function"
    },
    {
      "inputs": [
        {
          "internalType": "uint256",
          "name": "_listingId",
          "type": "uint256"
        }
      ],
      "name": "getList",
      "outputs": [
        {
          "components": [
            {
              "components": [
                {
                  "internalType": "address",
                  "name": "addressBidder",
                  "type": "address"
                },
                {
                  "internalType": "uint256",
                  "name": "bid",
                  "type": "uint256"
                }
              ],
              "internalType": "struct Struct.Bidder",
              "name": "lastBidder",
              "type": "tuple"
            },
            {
              "internalType": "address",
              "name": "addressContractToken",
              "type": "address"
            },
            {
              "internalType": "address",
              "name": "addressMinter",
              "type": "address"
            },
            {
              "internalType": "address[]",
              "name": "_royaltiesAddr",
              "type": "address[]"
            },
            {
              "internalType": "uint8[]",
              "name": "_royaltiesPercent",
              "type": "uint8[]"
            },
            {
              "internalType": "uint256[]",
              "name": "_tokenInAuction",
              "type": "uint256[]"
            },
            {
              "internalType": "uint256[]",
              "name": "_priceToken",
              "type": "uint256[]"
            },
            {
              "internalType": "uint256",
              "name": "listingId",
              "type": "uint256"
            },
            {
              "internalType": "uint256",
              "name": "minBid",
              "type": "uint256"
            },
            {
              "internalType": "uint256",
              "name": "startDate",
              "type": "uint256"
            },
            {
              "internalType": "uint256",
              "name": "timeAuction",
              "type": "uint256"
            },
            {
              "internalType": "bool",
              "name": "paused",
              "type": "bool"
            },
            {
              "internalType": "bool",
              "name": "direct",
              "type": "bool"
            },
            {
              "internalType": "uint8",
              "name": "tokenType",
              "type": "uint8"
            }
          ],
          "internalType": "struct Struct.List",
          "name": "",
          "type": "tuple"
        }
      ],
      "stateMutability": "view",
      "type": "function",
      "constant": true
    },
    {
      "inputs": [],
      "name": "getLists",
      "outputs": [
        {
          "components": [
            {
              "components": [
                {
                  "internalType": "address",
                  "name": "addressBidder",
                  "type": "address"
                },
                {
                  "internalType": "uint256",
                  "name": "bid",
                  "type": "uint256"
                }
              ],
              "internalType": "struct Struct.Bidder",
              "name": "lastBidder",
              "type": "tuple"
            },
            {
              "internalType": "address",
              "name": "addressContractToken",
              "type": "address"
            },
            {
              "internalType": "address",
              "name": "addressMinter",
              "type": "address"
            },
            {
              "internalType": "address[]",
              "name": "_royaltiesAddr",
              "type": "address[]"
            },
            {
              "internalType": "uint8[]",
              "name": "_royaltiesPercent",
              "type": "uint8[]"
            },
            {
              "internalType": "uint256[]",
              "name": "_tokenInAuction",
              "type": "uint256[]"
            },
            {
              "internalType": "uint256[]",
              "name": "_priceToken",
              "type": "uint256[]"
            },
            {
              "internalType": "uint256",
              "name": "listingId",
              "type": "uint256"
            },
            {
              "internalType": "uint256",
              "name": "minBid",
              "type": "uint256"
            },
            {
              "internalType": "uint256",
              "name": "startDate",
              "type": "uint256"
            },
            {
              "internalType": "uint256",
              "name": "timeAuction",
              "type": "uint256"
            },
            {
              "internalType": "bool",
              "name": "paused",
              "type": "bool"
            },
            {
              "internalType": "bool",
              "name": "direct",
              "type": "bool"
            },
            {
              "internalType": "uint8",
              "name": "tokenType",
              "type": "uint8"
            }
          ],
          "internalType": "struct Struct.List[]",
          "name": "",
          "type": "tuple[]"
        }
      ],
      "stateMutability": "view",
      "type": "function",
      "constant": true
    },
    {
      "inputs": [
        {
          "internalType": "uint256",
          "name": "_listingId",
          "type": "uint256"
        }
      ],
      "name": "bidding",
      "outputs": [],
      "stateMutability": "payable",
      "type": "function",
      "payable": true
    },
    {
      "inputs": [
        {
          "internalType": "uint256",
          "name": "_listingId",
          "type": "uint256"
        }
      ],
      "name": "endAuction",
      "outputs": [],
      "stateMutability": "nonpayable",
      "type": "function"
    },
    {
      "inputs": [],
      "name": "withdraw",
      "outputs": [],
      "stateMutability": "nonpayable",
      "type": "function"
    }
  ],
  "bytecode": "0x60806040523480156200001157600080fd5b5060405162004261380380620042618339810160408190526200003491620000b5565b6200003f3362000065565b600280546001600160a01b0319166001600160a01b0392909216919091179055620000e7565b600080546001600160a01b038381166001600160a01b0319831681178455604051919092169283917f8be0079c531659141344cd1fd0a4f28419497f9722a3daafe3b4186f6b6457e09190a35050565b600060208284031215620000c857600080fd5b81516001600160a01b0381168114620000e057600080fd5b9392505050565b61416a80620000f76000396000f3fe6080604052600436106100a75760003560e01c80638da5cb5b116100645780638da5cb5b1461016f578063b9a2de3a14610197578063c9c9d2d8146101b7578063cb4b0909146101d7578063cc889b0b146101f9578063f2fde38b1461020c57600080fd5b80631ab5b383146100ac5780632d5a7e20146100e25780633ccfd60b1461010257806340993b2614610119578063715018a61461012c5780638d73069814610141575b600080fd5b3480156100b857600080fd5b506100cc6100c736600461339d565b61022c565b6040516100d99190613f64565b60405180910390f35b3480156100ee57600080fd5b506100cc6100fd366004613226565b61047e565b34801561010e57600080fd5b506101176108dd565b005b6101176101273660046133b6565b610936565b34801561013857600080fd5b5061011761115c565b34801561014d57600080fd5b5061016161015c366004613226565b611192565b6040519081526020016100d9565b34801561017b57600080fd5b506000546040516001600160a01b0390911681526020016100d9565b3480156101a357600080fd5b506101176101b236600461339d565b6114fd565b3480156101c357600080fd5b506101176101d236600461339d565b611e37565b3480156101e357600080fd5b506101ec611fc9565b6040516100d99190613ecd565b61011761020736600461339d565b6122b5565b34801561021857600080fd5b506101176102273660046131cf565b6125c8565b610234612d69565b60018281548110610247576102476140e5565b60009182526020918290206040805161020081018252600d90930290910180546001600160a01b039081166101c0850190815260018301546101e08601528452600282015481168486015260038201541683830152600481018054835181870281018701909452808452939491936060860193928301828280156102f457602002820191906000526020600020905b81546001600160a01b031681526001909101906020018083116102d6575b505050505081526020016005820180548060200260200160405190810160405280929190818152602001828054801561036a57602002820191906000526020600020906000905b825461010083900a900460ff1681526020600192830181810494850194909303909202910180841161033b5790505b50505050508152602001600682018054806020026020016040519081016040528092919081815260200182805480156103c257602002820191906000526020600020905b8154815260200190600101908083116103ae575b505050505081526020016007820180548060200260200160405190810160405280929190818152602001828054801561041a57602002820191906000526020600020905b815481526020019060010190808311610406575b50505091835250506008820154602082015260098201546040820152600a8201546060820152600b8201546080820152600c9091015460ff808216151560a084015261010082048116151560c0840152620100009091041660e09091015292915050565b610486612d69565b6000546001600160a01b031633146104b95760405162461bcd60e51b81526004016104b090613f2f565b60405180910390fd5b6104c282612660565b6104d4826060015183608001516126e1565b60018260e00151815481106104eb576104eb6140e5565b60009182526020909120600d90910201600c0154610100900460ff166105a85760018260e0015181548110610522576105226140e5565b90600052602060002090600d0201600a0154421080610569575060018260e0015181548110610553576105536140e5565b90600052602060002090600d0201600a01546000145b6105a85760405162461bcd60e51b815260206004820152601060248201526f20bab1ba34b7b71039ba30b93a32b21760811b60448201526064016104b0565b604051806101c0016040528060018460e00151815481106105cb576105cb6140e5565b90600052602060002090600d02016000016040518060400160405290816000820160009054906101000a90046001600160a01b03166001600160a01b03166001600160a01b03168152602001600182015481525050815260200183602001516001600160a01b0316815260200183604001516001600160a01b0316815260200183606001518152602001836080015181526020018360a0015181526020018360c0015181526020018360e0015181526020018361010001518152602001836101200151815260200183610140015181526020018361016001511515815260200183610180015115158152602001836101a0015160ff1681525060018360e00151815481106106db576106db6140e5565b600091825260209182902083518051600d9390930290910180546001600160a01b03199081166001600160a01b039485161782559184015160018201558484015160028201805484169185169190911790556040850151600382018054909316931692909217905560608301518051919261075e92600485019290910190612deb565b506080820151805161077a916005840191602090910190612e50565b5060a08201518051610796916006840191602090910190612ef1565b5060c082015180516107b2916007840191602090910190612ef1565b5060e0828101516008830155610100808401516009840155610120840151600a840155610140840151600b840155610160840151600c90930180546101808601516101a09096015160ff16620100000262ff00001996151590930261ff00199515159590951661ffff1990911617939093179390931692909217905560025490830151600180546001600160a01b03909316926352718cd0923092909133919083908110610862576108626140e5565b90600052602060002090600d02016040518563ffffffff1660e01b815260040161088f9493929190613e80565b600060405180830381600087803b1580156108a957600080fd5b505af11580156108bd573d6000803e3d6000fd5b5050505060018260e0015181548110610247576102476140e5565b919050565b6000546001600160a01b031633146109075760405162461bcd60e51b81526004016104b090613f2f565b60405133904780156108fc02916000818181858888f19350505050158015610933573d6000803e3d6000fd5b50565b8260006001600160a01b031660018281548110610955576109556140e5565b600091825260209091206002600d9092020101546001600160a01b031614156109ae5760405162461bcd60e51b815260206004820152600b60248201526a6c697374696e6720444e4560a81b60448201526064016104b0565b600184815481106109c1576109c16140e5565b90600052602060002090600d020160070183815481106109e3576109e36140e5565b9060005260206000200154341015610a315760405162461bcd60e51b81526020600482015260116024820152704e6f7420656e6f75676874206d6f6e657960781b60448201526064016104b0565b8160018581548110610a4557610a456140e5565b90600052602060002090600d02016006018481548110610a6757610a676140e5565b906000526020600020015414610aad5760405162461bcd60e51b815260206004820152600b60248201526a139bdd0819dbdbd9081a5960aa1b60448201526064016104b0565b600060018581548110610ac257610ac26140e5565b600091825260209091206002600d9092020101546001600160a01b03169050835b6001808781548110610af757610af76140e5565b90600052602060002090600d020160060180549050610b169190614082565b811015610c415760018681548110610b3057610b306140e5565b90600052602060002090600d0201600601816001610b4e9190613ff6565b81548110610b5e57610b5e6140e5565b906000526020600020015460018781548110610b7c57610b7c6140e5565b90600052602060002090600d02016006018281548110610b9e57610b9e6140e5565b906000526020600020018190555060018681548110610bbf57610bbf6140e5565b90600052602060002090600d0201600701816001610bdd9190613ff6565b81548110610bed57610bed6140e5565b906000526020600020015460018781548110610c0b57610c0b6140e5565b90600052602060002090600d02016007018281548110610c2d57610c2d6140e5565b600091825260209091200155600101610ae3565b5060018581548110610c5557610c556140e5565b90600052602060002090600d0201600601805480610c7557610c756140cf565b6001900381819060005260206000200160009055905560018581548110610c9e57610c9e6140e5565b90600052602060002090600d0201600701805480610cbe57610cbe6140cf565b60019003818190600052602060002001600090559055806001600160a01b0316637fa0d0ea6040518163ffffffff1660e01b815260040160206040518083038186803b158015610d0d57600080fd5b505afa158015610d21573d6000803e3d6000fd5b505050506040513d601f19601f82011682018060405250810190610d459190613209565b151560011415610e7357604051634f558e7960e01b8152600481018490526001600160a01b03821690634f558e799060240160206040518083038186803b158015610d8f57600080fd5b505afa158015610da3573d6000803e3d6000fd5b505050506040513d601f19601f82011682018060405250810190610dc79190613209565b1515600114610e075760405162461bcd60e51b815260206004820152600c60248201526b151bdad95b881b5a5b9d195960a21b60448201526064016104b0565b604051632e72cfed60e01b815260016004820152336024820152604481018490526001600160a01b03821690632e72cfed90606401600060405180830381600087803b158015610e5657600080fd5b505af1158015610e6a573d6000803e3d6000fd5b5050505061100e565b6040516331a9108f60e11b8152600481018490526001600160a01b03821690636352211e9060240160206040518083038186803b158015610eb357600080fd5b505afa158015610ec7573d6000803e3d6000fd5b505050506040513d601f19601f82011682018060405250810190610eeb91906131ec565b6001600160a01b031660018681548110610f0757610f076140e5565b600091825260209091206003600d9092020101546001600160a01b031614610f635760405162461bcd60e51b815260206004820152600f60248201526e151bdad95b881b9bdd081bdddb9959608a1b60448201526064016104b0565b806001600160a01b031663b88d4fde60018781548110610f8557610f856140e5565b600091825260208220600d909102016003015460405160e084901b6001600160e01b03191681526001600160a01b0390911660048201523360248201526044810187905260806064820152608481019190915260a401600060405180830381600087803b158015610ff557600080fd5b505af1158015611009573d6000803e3d6000fd5b505050505b6110188534612766565b60025460405163189a997f60e21b815230600482015233602482015234604482015260648101859052608481018790526001600160a01b039091169063626a65fc9060a401600060405180830381600087803b15801561107757600080fd5b505af115801561108b573d6000803e3d6000fd5b505050506000600186815481106110a4576110a46140e5565b90600052602060002090600d0201600601805490501161115557600254600180546001600160a01b03909216916352718cd091309189913391839081106110ed576110ed6140e5565b90600052602060002090600d02016040518563ffffffff1660e01b815260040161111a9493929190613d96565b600060405180830381600087803b15801561113457600080fd5b505af1158015611148573d6000803e3d6000fd5b50505050611155856129ca565b5050505050565b6000546001600160a01b031633146111865760405162461bcd60e51b81526004016104b090613f2f565b6111906000612c25565b565b600080546001600160a01b031633146111bd5760405162461bcd60e51b81526004016104b090613f2f565b6111c682612660565b6111d8826060015183608001516126e1565b604080516102008101825260006101c082018181526101e083019190915281526020848101516001600160a01b039081169183019190915284830151811682840152606080860151908301526080808601519083015260a0808601519083015260c0808601519083015260015460e0830181905261010080870151908401526101208087015190840152610140808701519084015261016080870151151590840152610180808701511515908401526101a08087015160ff1690840152600254935163052718cd60e41b81529293909116916352718cd0916112c39130919033908790600401613d49565b600060405180830381600087803b1580156112dd57600080fd5b505af11580156112f1573d6000803e3d6000fd5b505060018054808201825560009190915283518051600d9092027fb10e2d527612073b26eecdfd717e6a320cf44b4afac2b0732d9fcbe2b7fa0cf6810180546001600160a01b039485166001600160a01b03199182161782556020938401517fb10e2d527612073b26eecdfd717e6a320cf44b4afac2b0732d9fcbe2b7fa0cf7840155838801517fb10e2d527612073b26eecdfd717e6a320cf44b4afac2b0732d9fcbe2b7fa0cf88401805491871691831691909117905560408801517fb10e2d527612073b26eecdfd717e6a320cf44b4afac2b0732d9fcbe2b7fa0cf984018054919096169116179093556060860151805187965093945061141a937fb10e2d527612073b26eecdfd717e6a320cf44b4afac2b0732d9fcbe2b7fa0cfa909201920190612deb565b5060808201518051611436916005840191602090910190612e50565b5060a08201518051611452916006840191602090910190612ef1565b5060c0820151805161146e916007840191602090910190612ef1565b5060e08201516008820155610100808301516009830155610120830151600a830155610140830151600b830155610160830151600c90920180546101808501516101a09095015161ffff1990911693151561ff001916939093179315159091029290921762ff000019166201000060ff90921691909102179055600180546114f69190614082565b9392505050565b6000546001600160a01b031633146115275760405162461bcd60e51b81526004016104b090613f2f565b6001818154811061153a5761153a6140e5565b90600052602060002090600d0201600b01546001828154811061155f5761155f6140e5565b90600052602060002090600d0201600a015461157b9190613ff6565b4210156115be5760405162461bcd60e51b8152602060048201526011602482015270131a5cdd081b9bdd08199a5b9a5cda1959607a1b60448201526064016104b0565b600181815481106115d1576115d16140e5565b60009182526020909120600d90910201600c0154610100900460ff161561162b5760405162461bcd60e51b815260206004820152600e60248201526d2737ba1030b71030bab1ba34b7b760911b60448201526064016104b0565b60008060018381548110611641576116416140e5565b60009182526020918290206002600d90920201015460408051633fd0687560e11b815290516001600160a01b0390921693508392637fa0d0ea92600480840193829003018186803b15801561169557600080fd5b505afa1580156116a9573d6000803e3d6000fd5b505050506040513d601f19601f820116820180604052508101906116cd9190613209565b611acb5760005b600184815481106116e7576116e76140e5565b90600052602060002090600d02016006018054905081101561180b57816001600160a01b0316636352211e60018681548110611725576117256140e5565b90600052602060002090600d02016006018381548110611747576117476140e5565b90600052602060002001546040518263ffffffff1660e01b815260040161177091815260200190565b60206040518083038186803b15801561178857600080fd5b505afa15801561179c573d6000803e3d6000fd5b505050506040513d601f19601f820116820180604052508101906117c091906131ec565b6001600160a01b0316600185815481106117dc576117dc6140e5565b600091825260209091206003600d9092020101546001600160a01b03161461180357600192505b6001016116d4565b5081611ac657611ac660018481548110611827576118276140e5565b90600052602060002090600d020160030160009054906101000a90046001600160a01b03166001858154811061185f5761185f6140e5565b60009182526020909120600d9091020154600180546001600160a01b039092169187908110611890576118906140e5565b60009182526020918290206040805161020081018252600d90930290910180546001600160a01b039081166101c0850190815260018301546101e086015284526002820154811684860152600382015416838301526004810180548351818702810187019094528084529394919360608601939283018282801561193d57602002820191906000526020600020905b81546001600160a01b0316815260019091019060200180831161191f575b50505050508152602001600582018054806020026020016040519081016040528092919081815260200182805480156119b357602002820191906000526020600020906000905b825461010083900a900460ff168152602060019283018181049485019490930390920291018084116119845790505b5050505050815260200160068201805480602002602001604051908101604052809291908181526020018280548015611a0b57602002820191906000526020600020905b8154815260200190600101908083116119f7575b5050505050815260200160078201805480602002602001604051908101604052809291908181526020018280548015611a6357602002820191906000526020600020905b815481526020019060010190808311611a4f575b50505091835250506008820154602082015260098201546040820152600a8201546060820152600b8201546080820152600c9091015460ff808216151560a084015261010082048116151560c0840152620100009091041660e090910152612c75565b611cd5565b60005b60018481548110611ae157611ae16140e5565b90600052602060002090600d020160060180549050811015611bd157816001600160a01b0316634f558e7960018681548110611b1f57611b1f6140e5565b90600052602060002090600d02016006018381548110611b4157611b416140e5565b90600052602060002001546040518263ffffffff1660e01b8152600401611b6a91815260200190565b60206040518083038186803b158015611b8257600080fd5b505afa158015611b96573d6000803e3d6000fd5b505050506040513d601f19601f82011682018060405250810190611bba9190613209565b151560011415611bc957600192505b600101611ace565b5081611cd55760005b60018481548110611bed57611bed6140e5565b90600052602060002090600d020160060180549050811015611cd357816001600160a01b0316632e72cfed60013360018881548110611c2e57611c2e6140e5565b90600052602060002090600d02016006018581548110611c5057611c506140e5565b6000918252602090912001546040516001600160e01b031960e086901b16815260048101939093526001600160a01b0390911660248301526044820152606401600060405180830381600087803b158015611caa57600080fd5b505af1158015611cbe573d6000803e3d6000fd5b50505050611ccc8160010190565b9050611bda565b505b60018215151415611d6a5760018381548110611cf357611cf36140e5565b60009182526020909120600d9091020154600180546001600160a01b03909216916108fc919086908110611d2957611d296140e5565b6000918252602082206001600d9092020101546040518115909302929091818181858888f19350505050158015611d64573d6000803e3d6000fd5b50611e29565b600254600180546001600160a01b03909216916352718cd09130918791339183908110611d9957611d996140e5565b90600052602060002090600d02016040518563ffffffff1660e01b8152600401611dc69493929190613de7565b600060405180830381600087803b158015611de057600080fd5b505af1158015611df4573d6000803e3d6000fd5b50505050611e298360018581548110611e0f57611e0f6140e5565b90600052602060002090600d020160000160010154612766565b611e32836129ca565b505050565b6000546001600160a01b03163314611e615760405162461bcd60e51b81526004016104b090613f2f565b60018181548110611e7457611e746140e5565b90600052602060002090600d0201600a0154421080611eb7575060018181548110611ea157611ea16140e5565b90600052602060002090600d0201600a01546000145b80611ef3575060018181548110611ed057611ed06140e5565b60009182526020909120600c600d90920201015460ff6101009091041615156001145b611f325760405162461bcd60e51b815260206004820152601060248201526f20bab1ba34b7b71039ba30b93a32b21760811b60448201526064016104b0565b600254600180546001600160a01b03909216916352718cd09130918591339183908110611f6157611f616140e5565b90600052602060002090600d02016040518563ffffffff1660e01b8152600401611f8e9493929190613e33565b600060405180830381600087803b158015611fa857600080fd5b505af1158015611fbc573d6000803e3d6000fd5b50505050610933816129ca565b60015460609060009067ffffffffffffffff811115611fea57611fea6140fb565b60405190808252806020026020018201604052801561202357816020015b612010612d69565b8152602001906001900390816120085790505b50905060005b6001548110156122af57600060018281548110612048576120486140e5565b60009182526020918290206040805161020081018252600d90930290910180546001600160a01b039081166101c0850190815260018301546101e086015284526002820154811684860152600382015416838301526004810180548351818702810187019094528084529195509293859360608601939290918301828280156120fa57602002820191906000526020600020905b81546001600160a01b031681526001909101906020018083116120dc575b505050505081526020016005820180548060200260200160405190810160405280929190818152602001828054801561217057602002820191906000526020600020906000905b825461010083900a900460ff168152602060019283018181049485019490930390920291018084116121415790505b50505050508152602001600682018054806020026020016040519081016040528092919081815260200182805480156121c857602002820191906000526020600020905b8154815260200190600101908083116121b4575b505050505081526020016007820180548060200260200160405190810160405280929190818152602001828054801561222057602002820191906000526020600020905b81548152602001906001019080831161220c575b50505091835250506008820154602082015260098201546040820152600a8201546060820152600b8201546080820152600c9091015460ff808216151560a084015261010082048116151560c0840152620100009091041660e0909101528351849084908110612292576122926140e5565b6020026020010181905250506122a88160010190565b9050612029565b50919050565b600181815481106122c8576122c86140e5565b90600052602060002090600d0201600901543411801561230e5750600181815481106122f6576122f66140e5565b90600052602060002090600d02016000016001015434115b61234e5760405162461bcd60e51b81526020600482015260116024820152704e6f7420656e6f75676874206d6f6e657960781b60448201526064016104b0565b60018181548110612361576123616140e5565b90600052602060002090600d0201600a01546000141580156123a6575060018181548110612391576123916140e5565b90600052602060002090600d0201600a015442115b6123e85760405162461bcd60e51b8152602060048201526013602482015272105d58dd1a5bdb881b9bdd081cdd185c9d1959606a1b60448201526064016104b0565b600181815481106123fb576123fb6140e5565b90600052602060002090600d0201600b015460018281548110612420576124206140e5565b90600052602060002090600d0201600a015461243c9190613ff6565b421061247d5760405162461bcd60e51b815260206004820152601060248201526f105d58dd1a5bdb88199a5b9a5cda195960821b60448201526064016104b0565b60018181548110612490576124906140e5565b60009182526020909120600d9091020154600180546001600160a01b03909216916108fc9190849081106124c6576124c66140e5565b6000918252602082206001600d9092020101546040518115909302929091818181858888f19350505050158015612501573d6000803e3d6000fd5b50604080518082019091523381523460208201526001805483908110612529576125296140e5565b60009182526020918290208351600d929092020180546001600160a01b0319166001600160a01b03928316178155929091015160019092019190915560025460405163b7cbb19560e01b81523060048201523360248201523460448201526064810184905291169063b7cbb19590608401600060405180830381600087803b1580156125b457600080fd5b505af1158015611155573d6000803e3d6000fd5b6000546001600160a01b031633146125f25760405162461bcd60e51b81526004016104b090613f2f565b6001600160a01b0381166126575760405162461bcd60e51b815260206004820152602660248201527f4f776e61626c653a206e6577206f776e657220697320746865207a65726f206160448201526564647265737360d01b60648201526084016104b0565b61093381612c25565b8060c00151518160a001515114801561267e575060008160a0015151115b801561268f575060008160c0015151115b80156126a45750806080015151816060015151145b6109335760405162461bcd60e51b815260206004820152600e60248201526d125b98dbdc9c9958dd081b1a5cdd60921b60448201526064016104b0565b6000805b835181101561271d57828181518110612700576127006140e5565b602002602001015182612713919061400e565b91506001016126e5565b5060648160ff161115611e325760405162461bcd60e51b815260206004820152601160248201527002520726f79616c74696573203e2031303607c1b60448201526064016104b0565b60005b6001838154811061277c5761277c6140e5565b90600052602060002090600d0201600401805490508160ff161015611e325760006064600185815481106127b2576127b26140e5565b90600052602060002090600d02016005018360ff16815481106127d7576127d76140e5565b90600052602060002090602091828204019190069054906101000a900460ff166128019190614033565b61280e9060ff1684614063565b905060006001600160a01b03166001858154811061282e5761282e6140e5565b90600052602060002090600d02016004018360ff1681548110612853576128536140e5565b6000918252602090912001546001600160a01b0316146129b75760018481548110612880576128806140e5565b90600052602060002090600d02016004018260ff16815481106128a5576128a56140e5565b60009182526020822001546040516001600160a01b039091169183156108fc02918491818181858888f193505050501580156128e5573d6000803e3d6000fd5b50600254600180546001600160a01b0390921691638d57ed1a91309188919082908110612914576129146140e5565b90600052602060002090600d02016004018660ff1681548110612939576129396140e5565b60009182526020909120015460405160e085901b6001600160e01b03191681526001600160a01b039384166004820152602481019290925291909116604482015260648101849052608401600060405180830381600087803b15801561299e57600080fd5b505af11580156129b2573d6000803e3d6000fd5b505050505b50806129c281614099565b915050612769565b805b600180546129da9190614082565b811015612b6b5760016129ed8282613ff6565b815481106129fd576129fd6140e5565b90600052602060002090600d020160018281548110612a1e57612a1e6140e5565b600091825260209091208254600d9092020180546001600160a01b039283166001600160a01b031991821617825560018085015490830155600280850154908301805491851691831691909117905560038085015490830180549190941691161790915560048083018054612a969284019190612f2c565b5060058281018054612aab9284019190612f6c565b5060068281018054612ac09284019190612f2c565b5060078281018054612ad59284019190612f2c565b506008828101549082015560098083015490820155600a8083015490820155600b8083015490820155600c918201805492909101805460ff938416151560ff19821681178355835461010090819004861615150261ff001990911661ffff1990921691909117178082559154620100009081900490931690920262ff000019909116179055612b648160010190565b90506129cc565b506001805480612b7d57612b7d6140cf565b600082815260208120600d6000199093019283020180546001600160a01b031990811682556001820183905560028201805482169055600382018054909116905590612bcc6004830182612fb9565b612bda600583016000612fd7565b612be8600683016000612fb9565b612bf6600783016000612fb9565b5060006008820181905560098201819055600a8201819055600b820155600c01805462ffffff19169055905550565b600080546001600160a01b038381166001600160a01b0319831681178455604051919092169283917f8be0079c531659141344cd1fd0a4f28419497f9722a3daafe3b4186f6b6457e09190a35050565b806101a0015160ff1660011415612c8b57505050565b806101a0015160ff1660021415611e3257602081015160005b8260a001515181101561115557816001600160a01b031663b88d4fde86868660a001518581518110612cd857612cd86140e5565b60209081029190910101516040516001600160e01b031960e086901b1681526001600160a01b0393841660048201529290911660248301526044820152608060648201526000608482015260a401600060405180830381600087803b158015612d4057600080fd5b505af1158015612d54573d6000803e3d6000fd5b50505050612d628160010190565b9050612ca4565b604080516102008101825260006101c082018181526101e0830182905282526020820181905291810182905260608082018190526080820181905260a0820181905260c082015260e08101829052610100810182905261012081018290526101408101829052610160810182905261018081018290526101a081019190915290565b828054828255906000526020600020908101928215612e40579160200282015b82811115612e4057825182546001600160a01b0319166001600160a01b03909116178255602090920191600190910190612e0b565b50612e4c929150612ff8565b5090565b82805482825590600052602060002090601f01602090048101928215612e405791602002820160005b83821115612eb757835183826101000a81548160ff021916908360ff1602179055509260200192600101602081600001049283019260010302612e79565b8015612ee45782816101000a81549060ff0219169055600101602081600001049283019260010302612eb7565b5050612e4c929150612ff8565b828054828255906000526020600020908101928215612e40579160200282015b82811115612e40578251825591602001919060010190612f11565b828054828255906000526020600020908101928215612e405760005260206000209182015b82811115612e40578254825591600101919060010190612f51565b82805482825590600052602060002090601f01602090048101928215612e4057600052602060002091601f0160209004820182811115612e40578254825591600101919060010190612f51565b50805460008255906000526020600020908101906109339190612ff8565b50805460008255601f01602090049060005260206000209081019061093391905b5b80821115612e4c5760008155600101612ff9565b80356108d881614111565b600082601f83011261302957600080fd5b8135602061303e61303983613fd2565b613fa1565b80838252828201915082860187848660051b890101111561305e57600080fd5b60005b8581101561308657813561307481614111565b84529284019290840190600101613061565b5090979650505050505050565b600082601f8301126130a457600080fd5b813560206130b461303983613fd2565b80838252828201915082860187848660051b89010111156130d457600080fd5b60005b85811015613086578135845292840192908401906001016130d7565b600082601f83011261310457600080fd5b8135602061311461303983613fd2565b80838252828201915082860187848660051b890101111561313457600080fd5b60005b8581101561308657613148826131be565b84529284019290840190600101613137565b80356108d881614126565b60006040828403121561317757600080fd5b6040516040810181811067ffffffffffffffff8211171561319a5761319a6140fb565b60405290508082356131ab81614111565b8152602092830135920191909152919050565b803560ff811681146108d857600080fd5b6000602082840312156131e157600080fd5b81356114f681614111565b6000602082840312156131fe57600080fd5b81516114f681614111565b60006020828403121561321b57600080fd5b81516114f681614126565b60006020828403121561323857600080fd5b813567ffffffffffffffff8082111561325057600080fd5b908301906101e0828603121561326557600080fd5b61326d613f77565b6132778684613165565b81526132856040840161300d565b60208201526132966060840161300d565b60408201526080830135828111156132ad57600080fd5b6132b987828601613018565b60608301525060a0830135828111156132d157600080fd5b6132dd878286016130f3565b60808301525060c0830135828111156132f557600080fd5b61330187828601613093565b60a08301525060e08301358281111561331957600080fd5b61332587828601613093565b60c08301525061010091508183013560e0820152610120808401358383015261014092508284013581830152506101608084013583830152610180925061336d83850161315a565b908201526101a061337f84820161315a565b838301526133906101c085016131be565b9082015295945050505050565b6000602082840312156133af57600080fd5b5035919050565b6000806000606084860312156133cb57600080fd5b505081359360208301359350604090920135919050565b600081518084526020808501945080840160005b8381101561341b5781516001600160a01b0316875295820195908201906001016133f6565b509495945050505050565b6000815480845260208085019450836000528060002060005b8381101561341b5781546001600160a01b03168752958201956001918201910161343f565b600081518084526020808501945080840160005b8381101561341b57815187529582019590820190600101613478565b6000815480845260208085019450836000528060002060005b8381101561341b578154875295820195600191820191016134ad565b600081518084526020808501945080840160005b8381101561341b57815160ff16875295820195908201906001016134dd565b805480835260008281526020808220940193909190825b82601f8201101561379a57815460ff8082168852602061353c818a01838560081c1660ff169052565b6040613551818b01848660101c1660ff169052565b6060613566818c01858760181c1660ff169052565b608061357a818d018688871c1660ff169052565b60a09350613591848d01868860281c1660ff169052565b60c06135a6818e01878960301c1660ff169052565b60e06135bb818f01888a60381c1660ff169052565b60ff88861c8816166101008f01526135de6101208f01888a60481c1660ff169052565b6135f36101408f01888a60501c1660ff169052565b6136086101608f01888a60581c1660ff169052565b60ff88851c8816166101808f015261362b6101a08f01888a60681c1660ff169052565b6136406101c08f01888a60701c1660ff169052565b6136556101e08f01888a60781c1660ff169052565b60ff88841c8816166102008f01526136786102208f01888a60881c1660ff169052565b61368d6102408f01888a60901c1660ff169052565b6136a26102608f01888a60981c1660ff169052565b60ff88871c8816166102808f01526136c56102a08f01888a60a81c1660ff169052565b6136da6102c08f01888a60b01c1660ff169052565b6136ef6102e08f01888a60b81c1660ff169052565b60ff88831c8816166103008f01526137126103208f01888a60c81c1660ff169052565b6137276103408f01888a60d01c1660ff169052565b61373c6103608f01888a60d81c1660ff169052565b60ff88821c8816166103808f01525050505050506137656103a08901828460e81c1660ff169052565b61377a6103c08901828460f01c1660ff169052565b5060f81c6103e08701526104009095019460019190910190602001613513565b905490828110156137b55760ff821686526020909501946001015b828110156137d15760ff600883901c1686526020909501946001015b828110156137ed5760ff601083901c1686526020909501946001015b828110156138095760ff601883901c1686526020909501946001015b8281101561382657602082901c60ff168652602095909501946001015b828110156138425760ff602883901c1686526020909501946001015b8281101561385e5760ff603083901c1686526020909501946001015b8281101561387a5760ff603883901c1686526020909501946001015b828110156138965760ff604083901c1686526020909501946001015b828110156138b25760ff604883901c1686526020909501946001015b828110156138ce5760ff605083901c1686526020909501946001015b828110156138ea5760ff605883901c1686526020909501946001015b828110156139065760ff606083901c1686526020909501946001015b828110156139225760ff606883901c1686526020909501946001015b8281101561393e5760ff607083901c1686526020909501946001015b8281101561395a5760ff607883901c1686526020909501946001015b828110156139765760ff608083901c1686526020909501946001015b828110156139925760ff608883901c1686526020909501946001015b828110156139ae5760ff609083901c1686526020909501946001015b828110156139ca5760ff609883901c1686526020909501946001015b828110156139e65760ff60a083901c1686526020909501946001015b82811015613a025760ff60a883901c1686526020909501946001015b82811015613a1e5760ff60b083901c1686526020909501946001015b82811015613a3a5760ff60b883901c1686526020909501946001015b82811015613a565760ff60c083901c1686526020909501946001015b82811015613a725760ff60c883901c1686526020909501946001015b82811015613a8e5760ff60d083901c1686526020909501946001015b82811015613aaa5760ff60d883901c1686526020909501946001015b82811015613ac65760ff60e083901c1686526020909501946001015b82811015613ae25760ff60e883901c1686526020909501946001015b82811015613afe5760ff60f083901c1686526020909501946001015b82811015613b145760f882901c86526020860195505b5093949350505050565b60006101e0613b4184845180516001600160a01b03168252602090810151910152565b60208301516001600160a01b03811660408601525060408301516001600160a01b0381166060860152506060830151816080860152613b82828601826133e2565b915050608083015184820360a0860152613b9c82826134c9565b91505060a083015184820360c0860152613bb68282613464565b91505060c083015184820360e0860152613bd08282613464565b60e0850151610100878101919091528501516101208088019190915285015161014080880191909152850151610160808801919091528501519092509050610180613c1e8187018315159052565b84015190506101a0613c338682018315159052565b84015160ff81166101c087015290505b509392505050565b80546001600160a01b0390811683526001820154602084015260028201548116604084015260038201541660608301526101e060808301819052600090613c9781850160048501613426565b905083810360a0850152613cae81600585016134fc565b905083810360c0850152613cc58160068501613494565b905083810360e0850152613cdc8160078501613494565b905060088301546101008501526009830154610120850152600a830154610140850152600b830154610160850152600c830154613d21610180860160ff831615159052565b613d366101a0860160ff8360081c1615159052565b601081901c60ff166101c0860152613c43565b6001600160a01b038581168252602082018590528316604082015260a060608201819052600090613d7c90830184613b1e565b90506543726561746560d01b608083015295945050505050565b6001600160a01b038581168252602082018590528316604082015260a060608201819052600090613dc990830184613c4b565b905069105b1b081cd95b1b195960b21b608083015295945050505050565b6001600160a01b038581168252602082018590528316604082015260a060608201819052600090613e1a90830184613c4b565b905064115b99195960da1b608083015295945050505050565b6001600160a01b038581168252602082018590528316604082015260a060608201819052600090613e6690830184613c4b565b90506510d85b98d95b60d21b608083015295945050505050565b6001600160a01b038581168252602082018590528316604082015260a060608201819052600090613eb390830184613c4b565b90506555706461746560d01b608083015295945050505050565b6000602080830181845280855180835260408601915060408160051b870101925083870160005b82811015613f2257603f19888603018452613f10858351613b1e565b94509285019290850190600101613ef4565b5092979650505050505050565b6020808252818101527f4f776e61626c653a2063616c6c6572206973206e6f7420746865206f776e6572604082015260600190565b6020815260006114f66020830184613b1e565b6040516101c0810167ffffffffffffffff81118282101715613f9b57613f9b6140fb565b60405290565b604051601f8201601f1916810167ffffffffffffffff81118282101715613fca57613fca6140fb565b604052919050565b600067ffffffffffffffff821115613fec57613fec6140fb565b5060051b60200190565b60008219821115614009576140096140b9565b500190565b600060ff821660ff84168060ff0382111561402b5761402b6140b9565b019392505050565b600060ff83168061405457634e487b7160e01b600052601260045260246000fd5b8060ff84160491505092915050565b600081600019048311821515161561407d5761407d6140b9565b500290565b600082821015614094576140946140b9565b500390565b600060ff821660ff8114156140b0576140b06140b9565b60010192915050565b634e487b7160e01b600052601160045260246000fd5b634e487b7160e01b600052603160045260246000fd5b634e487b7160e01b600052603260045260246000fd5b634e487b7160e01b600052604160045260246000fd5b6001600160a01b038116811461093357600080fd5b801515811461093357600080fdfea2646970667358221220a66b5961f2198a3625185e8af50fe6268a170a73772131aadaee9d926be533f864736f6c63430008060033",
  "immutableReferences": {},
  "source": "// SPDX-License-Identifier: MIT\r\n// Market Place\r\npragma solidity ^0.8.0;\r\n\r\nimport './INERC721A.sol';\r\nimport './Struct.sol';\r\nimport './Logger.sol';\r\nimport '@openzeppelin/contracts/access/Ownable.sol';\r\n\r\ncontract MarketPlace is Ownable, Struct {\r\n    \r\n    List[] _lists;\r\n\r\n    address addressLoger;\r\n\r\n    constructor(address _addressLoger){\r\n        addressLoger = _addressLoger;\r\n    }\r\n\r\n    modifier onlyExistingListing(uint256 _listingId) {\r\n        require(_lists[_listingId].addressContractToken != address(0), \"listing DNE\");\r\n        _;\r\n    }\r\n\r\n    function unsafe_inc(uint256 x) private pure returns (uint256){\r\n        unchecked { return x + 1;}\r\n    }\r\n\r\n    /**\r\n    French - On vrifie que l'ensemble des pourcentage des bnificaires est infrieur ou gual a 100\r\n    English - We check that the total percentage of beneficiaries is less than or equal to 100\r\n     */\r\n    function checkRoyalties(address[] memory _royaltiesAddr,uint8[] memory _royaltiesPercent) pure internal {\r\n        uint8 percentTotal = 0;\r\n        for (uint256 index = 0; index < _royaltiesAddr.length; index= unsafe_inc(index)) {\r\n            percentTotal+=_royaltiesPercent[index];\r\n        }\r\n        require(percentTotal<=100,\"% royalties > 100\");\r\n    }\r\n\r\n    /**\r\n    French\r\n    1 - On vrifie que la longueur du tableau de prix de token est aussi long que le tableau d'id token\r\n    2 - On vrifie que les deux prcdents tableau sont > 0\r\n    3 - On vrifie que la longueur des tableau d'addresse de royalties et de pourcentages correspondent \r\n    English\r\n    1 - We check that the length of the token price array is as long as the token id array\r\n    2 - We check that the length of the two previous tables are > 0\r\n    3 - We check that the length of the address table of royalties and percentages correspond \r\n    */\r\n    function validList(List memory paramsList) internal pure {\r\n        require(/*INERC721A(paramsList.addressContractToken).owner()==msg.sender\r\n        &&\r\n        */paramsList._tokenInAuction.length==paramsList._priceToken.length&&paramsList._tokenInAuction.length>0&&paramsList._priceToken.length>0\r\n        &&\r\n        paramsList._royaltiesAddr.length==paramsList._royaltiesPercent.length,\r\n        \"Incorrect list\");\r\n    }\r\n\r\n    function createList(List memory paramsList) external onlyOwner returns(uint256) {\r\n        validList(paramsList);\r\n        checkRoyalties(paramsList._royaltiesAddr,paramsList._royaltiesPercent);\r\n        List memory newListing = List({\r\n            lastBidder: Bidder(address(0),0),\r\n            addressContractToken: paramsList.addressContractToken,\r\n            addressMinter: paramsList.addressMinter,\r\n            paused: paramsList.paused,\r\n            _royaltiesAddr: paramsList._royaltiesAddr,\r\n            _royaltiesPercent: paramsList._royaltiesPercent,\r\n            _tokenInAuction: paramsList._tokenInAuction,\r\n            _priceToken: paramsList._priceToken,\r\n            listingId: _lists.length,\r\n            minBid: paramsList.minBid,\r\n            startDate: paramsList.startDate,\r\n            timeAuction: paramsList.timeAuction,\r\n            direct: paramsList.direct,\r\n            tokenType: paramsList.tokenType\r\n        });\r\n        Logger(addressLoger)._Lists(address(this),_lists.length,msg.sender, newListing,\"Create\");\r\n        _lists.push(newListing);\r\n        return _lists.length-1;\r\n    }\r\n\r\n    function updateList(List memory paramsList) external onlyOwner returns(List memory) {\r\n        validList(paramsList);\r\n        checkRoyalties(paramsList._royaltiesAddr,paramsList._royaltiesPercent);\r\n\r\n        if (_lists[paramsList.listingId].direct == false) {\r\n            require(block.timestamp < _lists[paramsList.listingId].startDate || _lists[paramsList.listingId].startDate == 0, \"Auction started.\");\r\n        }\r\n\r\n        _lists[paramsList.listingId] = List({\r\n            lastBidder: _lists[paramsList.listingId].lastBidder,\r\n            addressContractToken: paramsList.addressContractToken,\r\n            addressMinter: paramsList.addressMinter,\r\n            paused: paramsList.paused,\r\n            _royaltiesAddr: paramsList._royaltiesAddr,\r\n            _royaltiesPercent: paramsList._royaltiesPercent,\r\n            _tokenInAuction: paramsList._tokenInAuction,\r\n            _priceToken: paramsList._priceToken,\r\n            listingId: paramsList.listingId,\r\n            minBid: paramsList.minBid,\r\n            startDate: paramsList.startDate,\r\n            timeAuction: paramsList.timeAuction,\r\n            direct: paramsList.direct,\r\n            tokenType: paramsList.tokenType\r\n        });\r\n        Logger(addressLoger)._Lists(address(this),paramsList.listingId,msg.sender, _lists[paramsList.listingId],\"Update\");\r\n        return _lists[paramsList.listingId];\r\n    }\r\n    \r\n    /**\r\n    French\r\n    1 - vrifie que l'ont a envoy autant ou plus d'eth que le prix du token dans la list\r\n    2 - vrifie que le token id correspond a l'lement de la cl \"tokenNumber\"\r\n    3 - suppression du token dans tout les cas car mme si il n'xiste pas il doit tre supprim\r\n    4 - si lazy mint, on vrifie qu'il existe avant de le mint sinon require, donc rembourss\r\n    5 - si batch mint on vrifie que l'addressminter possde toujours le tokensinon require, donc rembourss, sinon on transfert vers l'acheteur\r\n    6 - si le tableau de token est vide, on supprime la list (optimisation)\r\n    English\r\n    1 - check that we have sent as much or more eth than the price of the token in the list\r\n    2 - check that the token id matches the element of the key \"tokenNumber\"\r\n    3 - deletion of the token in any case because even if it does not exist it must be deleted\r\n    4 - if lazy mint, we check that it exists before minting it otherwise require, so refunded\r\n    5 - if batch mint we check that the addressminter still has the tokensinon require, so refunded, otherwise we transfer to the buyer\r\n    6 - if the token array is empty, we delete the list (optimization)\r\n     */\r\n    function buy(uint256 _listingId, uint256 tokenNumber, uint256 tokenId) external payable onlyExistingListing(_listingId) {\r\n        require(msg.value >= _lists[_listingId]._priceToken[tokenNumber],\"Not enought money\");\r\n        require(_lists[_listingId]._tokenInAuction[tokenNumber] == tokenId,\"Not good id\");\r\n        \r\n        INERC721A contractToken = INERC721A(_lists[_listingId].addressContractToken);\r\n        \r\n        for (uint256 i = tokenNumber; i < _lists[_listingId]._tokenInAuction.length - 1; i= unsafe_inc(i)) {\r\n            _lists[_listingId]._tokenInAuction[i] = _lists[_listingId]._tokenInAuction[i+1];\r\n            _lists[_listingId]._priceToken[i] = _lists[_listingId]._priceToken[i+1];\r\n        }\r\n        _lists[_listingId]._tokenInAuction.pop();\r\n        _lists[_listingId]._priceToken.pop();\r\n\r\n        if(contractToken.getLazyMint()==true){\r\n            require(contractToken.exists(tokenId) == true,\"Token minted\");\r\n            contractToken.lazyMint(1,msg.sender,tokenId);\r\n        }else{\r\n            require(_lists[_listingId].addressMinter == contractToken.ownerOf(tokenId),\"Token not owned\");\r\n            contractToken.safeTransferFrom(_lists[_listingId].addressMinter, msg.sender, tokenId, \"\");\r\n        }\r\n        \r\n        payRoyalties(_listingId,msg.value);\r\n        Logger(addressLoger)._Buy(address(this),msg.sender,msg.value,tokenId,_listingId);\r\n        if(_lists[_listingId]._tokenInAuction.length<=0){\r\n            Logger(addressLoger)._Lists(address(this),_listingId,msg.sender, _lists[_listingId],\"All selled\");\r\n            deleteList(_listingId);\r\n        } \r\n    }\r\n\r\n    /**\r\n    French - Annule une liste seulement avant qu'elle soit dmarer ou si c'est une vente direct\r\n    English - Cancel a listing only before it is started or if it is a direct sale\r\n    */\r\n    function cancelList(uint256 _listingId) external onlyOwner {\r\n        require(block.timestamp < _lists[_listingId].startDate || _lists[_listingId].startDate == 0 || _lists[_listingId].direct == true, \"Auction started.\");\r\n        Logger(addressLoger)._Lists(address(this),_listingId,msg.sender, _lists[_listingId],\"Cancel\");\r\n        deleteList(_listingId);\r\n    }\r\n\r\n    /**\r\n    French - Supprime une liste a la fin d'une enchre, aprs avoir vendu tout les tokens d'une vente direct, ou bien a l'annulation d'une list tout en gardant l'ordre des lists\r\n    English - Delete a list at the end of an auction, after having sold all the tokens of a direct sale, or at the cancellation of a list while keeping the order of the lists\r\n    */\r\n    function deleteList(uint256 _listingId) internal {\r\n        for (uint256 i = _listingId; i < _lists.length - 1; i= unsafe_inc(i)) {\r\n            _lists[i] = _lists[i+1];\r\n        }\r\n        _lists.pop();\r\n    }\r\n\r\n    /**\r\n    French - Rcupre un objet d'une List contenu sur le market place contract\r\n    English - Retrieve an object from a List contained in the market place contract\r\n    */\r\n    function getList(uint256 _listingId) external view returns (List memory){\r\n        return _lists[_listingId];\r\n    }\r\n\r\n    /**\r\n    French - Rcupre un tableau d'objets des List contenu sur le market place contract\r\n    English - Get an array of List objects contained in the market place contract\r\n    */\r\n    function getLists() external view returns (List[] memory){\r\n        List[] memory result = new List[](_lists.length);\r\n        for(uint256 i = 0; i < _lists.length; i= unsafe_inc(i)){\r\n            List storage _list = _lists[i];\r\n            result[i] = _list;\r\n        }\r\n        return result;\r\n    }\r\n\r\n    /**\r\n    French - Boucle sur le tableau de token de la list et envoi chacun des tokens vers la _to addresse\r\n    English - Loop over the token array of the list and send each token to the _to address\r\n     */\r\n    function transferListingTokens(address _from, address _to, List memory _listing ) internal {\r\n        if (_listing.tokenType == 1) {\r\n            //INERC1155(_listing.assetContract).safeTransferFrom(_from, _to, _listing.tokenId, _quantity);\r\n        } else if (_listing.tokenType == 2) {\r\n            IERC721 contractToken = IERC721(_listing.addressContractToken);\r\n            for (uint256 index = 0; index < _listing._tokenInAuction.length; index= unsafe_inc(index)) {\r\n                contractToken.safeTransferFrom(_from, _to, _listing._tokenInAuction[index], \"\");\r\n            }\r\n        }\r\n    }\r\n\r\n    /*function getTokenInAuction() external view returns(INERC721A.Token) {\r\n        return _lists[i]._tokenInAuction;\r\n    }*/\r\n\r\n    /**\r\n    French\r\n    1 - Vrifier que l'enchrisseur a envoy plus d'ETH que la demande inital ou que le dernier enchrisseur\r\n    2 - Crifier que l'enchre  dmarrer et n'est pas fini\r\n    3 - Rembourss le prcendent cherisseur de sa mise\r\n    4 - Enregistr l'addresse et la value du nouvelle enchrisseur\r\n    English\r\n    1 - Verify that the bidder has sent more ETH than the initial and the last bidder\r\n    2 - Check that the auction has started and is not yet finished\r\n    3 - Refound previous bidder\r\n    4 - Save address and value from new bidder\r\n     */\r\n    function bidding(uint256 _listingId) payable external {\r\n        require(msg.value>_lists[_listingId].minBid&&msg.value>_lists[_listingId].lastBidder.bid,\"Not enought money\");\r\n        require(_lists[_listingId].startDate!=0&&block.timestamp>_lists[_listingId].startDate,\"Auction not started\");\r\n        require(block.timestamp<(_lists[_listingId].startDate+_lists[_listingId].timeAuction),\"Auction finished\");\r\n        //refunded previous bidder\r\n        payable(_lists[_listingId].lastBidder.addressBidder).transfer(_lists[_listingId].lastBidder.bid);\r\n        _lists[_listingId].lastBidder = Bidder(msg.sender,msg.value);\r\n        Logger(addressLoger)._Bidders(address(this),msg.sender,msg.value,_listingId);\r\n    }\r\n\r\n    /**\r\n    French\r\n    1 - On vrifie bien que la liste n'est pas fini et que c'est une enchre\r\n    2 - Si c'est un lazy mint on vrifie que les tokens ne sont pas dja crer puis on lazy mint ces tokens\r\n    3 - Si c'est un batch mint on vrifie que tous les tokens appartiennent encore a l'addressminter puis on les transfer\r\n    4 - Ensuite en cas d'echec on rembourse le gagnant, et en cas de russite on envoi les fonds vers les bnificaires\r\n    5 - Et ont dtruit la list du tableau des lists pour gagner en optimisation\r\n    English\r\n    1 - We check that the list is not finished and that it is an auction\r\n    2 - If it is a lazy mint we check that the tokens are not already created then we lazy mint these tokens\r\n    3 - If it is a batch mint we check that all the tokens still belong to the addressminter then we transfer them\r\n    4 - Then in case of failure, the winner is reimbursed, and in case of success, the funds are sent to the beneficiaries\r\n    5 - And destroyed the list of the list table to gain optimization\r\n     */\r\n    function endAuction(uint256 _listingId) external onlyOwner {\r\n        require(block.timestamp>=(_lists[_listingId].startDate+_lists[_listingId].timeAuction),\"List not finished\");\r\n        require(_lists[_listingId].direct == false,\"Not an auction\");\r\n        bool tokenNotValid;\r\n        INERC721A contractToken = INERC721A(_lists[_listingId].addressContractToken);\r\n        if( contractToken.getLazyMint()==false){\r\n            for (uint256 index = 0; index < _lists[_listingId]._tokenInAuction.length; index= unsafe_inc(index)) {\r\n                if(_lists[_listingId].addressMinter != contractToken.ownerOf(_lists[_listingId]._tokenInAuction[index])) tokenNotValid = true;\r\n            }\r\n            if(tokenNotValid==false) transferListingTokens(_lists[_listingId].addressMinter,_lists[_listingId].lastBidder.addressBidder,_lists[_listingId]);\r\n        }else{\r\n            for (uint256 index = 0; index < _lists[_listingId]._tokenInAuction.length; index= unsafe_inc(index)) {\r\n                if(contractToken.exists(_lists[_listingId]._tokenInAuction[index]) == true) tokenNotValid = true;\r\n            }\r\n            if(tokenNotValid==false){\r\n                for (uint256 index = 0; index < _lists[_listingId]._tokenInAuction.length; index= unsafe_inc(index)) {\r\n                    contractToken.lazyMint(1,msg.sender,_lists[_listingId]._tokenInAuction[index]);\r\n                }\r\n            }\r\n            \r\n        }\r\n        if(tokenNotValid==true){\r\n            //Logger(addressLoger).Errors(_listingId,msg.sender, _lists[_listingId],\"Token not exist on this address\");\r\n            payable(_lists[_listingId].lastBidder.addressBidder).transfer(_lists[_listingId].lastBidder.bid);\r\n        }else{\r\n            Logger(addressLoger)._Lists(address(this),_listingId,msg.sender, _lists[_listingId],\"Ended\");\r\n            payRoyalties(_listingId,_lists[_listingId].lastBidder.bid);\r\n        }\r\n        deleteList(_listingId);\r\n    }\r\n\r\n    /**\r\n    French\r\n    1 - Boucle sur les adresses des bnficiaires\r\n    2 - Calcul la valeur que l'ont va donn a chaque bnificiaire par rapport aux prix du last bidder et le % que le bnificaires doit rcupr\r\n    3 - Envoi les fonds vers l'addresse du bnificiaire si sont address n'est pas gal a 0\r\n    English\r\n    1 - Loop on beneficiary addresses\r\n    2 - Calculate the value that will be given to each beneficiary in relation to the prices of the last bidder and the % that the beneficiary must recover\r\n    3 - Sends the funds to the beneficiary's address if the address is not equal to 0\r\n    */\r\n    function payRoyalties(uint256 _listingId, uint256 amount) internal {\r\n        for (uint8 iRoyalties = 0; iRoyalties < _lists[_listingId]._royaltiesAddr.length; iRoyalties++) {\r\n            uint256 pay = amount*(_lists[_listingId]._royaltiesPercent[iRoyalties]/100);\r\n            if(_lists[_listingId]._royaltiesAddr[iRoyalties] != address(0)){\r\n                payable(_lists[_listingId]._royaltiesAddr[iRoyalties]).transfer(pay);\r\n                Logger(addressLoger)._Paiement(address(this),_listingId,_lists[_listingId]._royaltiesAddr[iRoyalties],pay);\r\n            }\r\n        }\r\n    }\r\n\r\n    function withdraw() external onlyOwner {\r\n        payable(msg.sender).transfer(address(this).balance);\r\n    }\r\n\r\n    /**\r\n    Temporarily lock the contract\r\n     */\r\n    /*function pause(uint256 a, bool _state) external onlyOwner {\r\n        _lists[i].paused = _state;\r\n    }*/\r\n\r\n    /*function getArrayTest(uint256 _listingId) external view returns (uint256[] memory){\r\n        return _lists[_listingId]._priceToken;\r\n    }\r\n\r\n    function getListsTest() external view returns (List[] memory){\r\n        return _lists;\r\n    }*/\r\n\r\n}\r\n\r\n",
  "sourcePath": "C:\\Users\\KevinDell'ova\\Desktop\\Inverse contracts\\contracts\\MarketPlace.sol",
  "compiler": {
    "name": "solc",
    "version": "0.8.6+commit.11564f7e.Emscripten.clang"
  },
  "schemaVersion": "3.4.4",
  "updatedAt": "2022-03-23T15:04:21.193Z",
  "networkType": "ethereum",
  "devdoc": {
    "kind": "dev",
    "methods": {
      "owner()": {
        "details": "Returns the address of the current owner."
      },
      "renounceOwnership()": {
        "details": "Leaves the contract without owner. It will not be possible to call `onlyOwner` functions anymore. Can only be called by the current owner. NOTE: Renouncing ownership will leave the contract without an owner, thereby removing any functionality that is only available to the owner."
      },
      "transferOwnership(address)": {
        "details": "Transfers ownership of the contract to a new account (`newOwner`). Can only be called by the current owner."
      }
    },
    "version": 1
  },
  "userdoc": {
    "kind": "user",
    "methods": {
      "bidding(uint256)": {
        "notice": "French 1 - Vrifier que l'enchrisseur a envoy plus d'ETH que la demande inital ou que le dernier enchrisseur 2 - Crifier que l'enchre  dmarrer et n'est pas fini 3 - Rembourss le prcendent cherisseur de sa mise 4 - Enregistr l'addresse et la value du nouvelle enchrisseur English 1 - Verify that the bidder has sent more ETH than the initial and the last bidder 2 - Check that the auction has started and is not yet finished 3 - Refound previous bidder 4 - Save address and value from new bidder"
      },
      "buy(uint256,uint256,uint256)": {
        "notice": "French 1 - vrifie que l'ont a envoy autant ou plus d'eth que le prix du token dans la list 2 - vrifie que le token id correspond a l'lement de la cl \"tokenNumber\" 3 - suppression du token dans tout les cas car mme si il n'xiste pas il doit tre supprim 4 - si lazy mint, on vrifie qu'il existe avant de le mint sinon require, donc rembourss 5 - si batch mint on vrifie que l'addressminter possde toujours le tokensinon require, donc rembourss, sinon on transfert vers l'acheteur 6 - si le tableau de token est vide, on supprime la list (optimisation) English 1 - check that we have sent as much or more eth than the price of the token in the list 2 - check that the token id matches the element of the key \"tokenNumber\" 3 - deletion of the token in any case because even if it does not exist it must be deleted 4 - if lazy mint, we check that it exists before minting it otherwise require, so refunded 5 - if batch mint we check that the addressminter still has the tokensinon require, so refunded, otherwise we transfer to the buyer 6 - if the token array is empty, we delete the list (optimization)"
      },
      "cancelList(uint256)": {
        "notice": "French - Annule une liste seulement avant qu'elle soit dmarer ou si c'est une vente direct English - Cancel a listing only before it is started or if it is a direct sale"
      },
      "endAuction(uint256)": {
        "notice": "French 1 - On vrifie bien que la liste n'est pas fini et que c'est une enchre 2 - Si c'est un lazy mint on vrifie que les tokens ne sont pas dja crer puis on lazy mint ces tokens 3 - Si c'est un batch mint on vrifie que tous les tokens appartiennent encore a l'addressminter puis on les transfer 4 - Ensuite en cas d'echec on rembourse le gagnant, et en cas de russite on envoi les fonds vers les bnificaires 5 - Et ont dtruit la list du tableau des lists pour gagner en optimisation English 1 - We check that the list is not finished and that it is an auction 2 - If it is a lazy mint we check that the tokens are not already created then we lazy mint these tokens 3 - If it is a batch mint we check that all the tokens still belong to the addressminter then we transfer them 4 - Then in case of failure, the winner is reimbursed, and in case of success, the funds are sent to the beneficiaries 5 - And destroyed the list of the list table to gain optimization"
      },
      "getList(uint256)": {
        "notice": "French - Rcupre un objet d'une List contenu sur le market place contract English - Retrieve an object from a List contained in the market place contract"
      },
      "getLists()": {
        "notice": "French - Rcupre un tableau d'objets des List contenu sur le market place contract English - Get an array of List objects contained in the market place contract"
      }
    },
    "version": 1
  }
}