{
  "contractName": "MarketPlace",
  "abi": [
    {
      "inputs": [
        {
          "internalType": "address",
          "name": "_addressLoger",
          "type": "address"
        }
      ],
      "stateMutability": "nonpayable",
      "type": "constructor"
    },
    {
      "anonymous": false,
      "inputs": [
        {
          "indexed": true,
          "internalType": "address",
          "name": "previousOwner",
          "type": "address"
        },
        {
          "indexed": true,
          "internalType": "address",
          "name": "newOwner",
          "type": "address"
        }
      ],
      "name": "OwnershipTransferred",
      "type": "event"
    },
    {
      "anonymous": false,
      "inputs": [
        {
          "indexed": true,
          "internalType": "bytes32",
          "name": "role",
          "type": "bytes32"
        },
        {
          "indexed": true,
          "internalType": "bytes32",
          "name": "previousAdminRole",
          "type": "bytes32"
        },
        {
          "indexed": true,
          "internalType": "bytes32",
          "name": "newAdminRole",
          "type": "bytes32"
        }
      ],
      "name": "RoleAdminChanged",
      "type": "event"
    },
    {
      "anonymous": false,
      "inputs": [
        {
          "indexed": true,
          "internalType": "bytes32",
          "name": "role",
          "type": "bytes32"
        },
        {
          "indexed": true,
          "internalType": "address",
          "name": "account",
          "type": "address"
        },
        {
          "indexed": true,
          "internalType": "address",
          "name": "sender",
          "type": "address"
        }
      ],
      "name": "RoleGranted",
      "type": "event"
    },
    {
      "anonymous": false,
      "inputs": [
        {
          "indexed": true,
          "internalType": "bytes32",
          "name": "role",
          "type": "bytes32"
        },
        {
          "indexed": true,
          "internalType": "address",
          "name": "account",
          "type": "address"
        },
        {
          "indexed": true,
          "internalType": "address",
          "name": "sender",
          "type": "address"
        }
      ],
      "name": "RoleRevoked",
      "type": "event"
    },
    {
      "inputs": [],
      "name": "DEFAULT_ADMIN_ROLE",
      "outputs": [
        {
          "internalType": "bytes32",
          "name": "",
          "type": "bytes32"
        }
      ],
      "stateMutability": "view",
      "type": "function",
      "constant": true
    },
    {
      "inputs": [],
      "name": "LISTER_ROLE",
      "outputs": [
        {
          "internalType": "bytes32",
          "name": "",
          "type": "bytes32"
        }
      ],
      "stateMutability": "view",
      "type": "function",
      "constant": true
    },
    {
      "inputs": [
        {
          "internalType": "bytes32",
          "name": "role",
          "type": "bytes32"
        }
      ],
      "name": "getRoleAdmin",
      "outputs": [
        {
          "internalType": "bytes32",
          "name": "",
          "type": "bytes32"
        }
      ],
      "stateMutability": "view",
      "type": "function",
      "constant": true
    },
    {
      "inputs": [
        {
          "internalType": "bytes32",
          "name": "role",
          "type": "bytes32"
        },
        {
          "internalType": "address",
          "name": "account",
          "type": "address"
        }
      ],
      "name": "grantRole",
      "outputs": [],
      "stateMutability": "nonpayable",
      "type": "function"
    },
    {
      "inputs": [
        {
          "internalType": "bytes32",
          "name": "role",
          "type": "bytes32"
        },
        {
          "internalType": "address",
          "name": "account",
          "type": "address"
        }
      ],
      "name": "hasRole",
      "outputs": [
        {
          "internalType": "bool",
          "name": "",
          "type": "bool"
        }
      ],
      "stateMutability": "view",
      "type": "function",
      "constant": true
    },
    {
      "inputs": [],
      "name": "owner",
      "outputs": [
        {
          "internalType": "address",
          "name": "",
          "type": "address"
        }
      ],
      "stateMutability": "view",
      "type": "function",
      "constant": true
    },
    {
      "inputs": [],
      "name": "renounceOwnership",
      "outputs": [],
      "stateMutability": "nonpayable",
      "type": "function"
    },
    {
      "inputs": [
        {
          "internalType": "bytes32",
          "name": "role",
          "type": "bytes32"
        },
        {
          "internalType": "address",
          "name": "account",
          "type": "address"
        }
      ],
      "name": "renounceRole",
      "outputs": [],
      "stateMutability": "nonpayable",
      "type": "function"
    },
    {
      "inputs": [
        {
          "internalType": "bytes32",
          "name": "role",
          "type": "bytes32"
        },
        {
          "internalType": "address",
          "name": "account",
          "type": "address"
        }
      ],
      "name": "revokeRole",
      "outputs": [],
      "stateMutability": "nonpayable",
      "type": "function"
    },
    {
      "inputs": [
        {
          "internalType": "bytes4",
          "name": "interfaceId",
          "type": "bytes4"
        }
      ],
      "name": "supportsInterface",
      "outputs": [
        {
          "internalType": "bool",
          "name": "",
          "type": "bool"
        }
      ],
      "stateMutability": "view",
      "type": "function",
      "constant": true
    },
    {
      "inputs": [
        {
          "internalType": "address",
          "name": "newOwner",
          "type": "address"
        }
      ],
      "name": "transferOwnership",
      "outputs": [],
      "stateMutability": "nonpayable",
      "type": "function"
    },
    {
      "inputs": [
        {
          "components": [
            {
              "components": [
                {
                  "internalType": "address",
                  "name": "addressBidder",
                  "type": "address"
                },
                {
                  "internalType": "uint256",
                  "name": "bid",
                  "type": "uint256"
                }
              ],
              "internalType": "struct Struct.Bidder",
              "name": "lastBidder",
              "type": "tuple"
            },
            {
              "internalType": "address",
              "name": "addressContractToken",
              "type": "address"
            },
            {
              "internalType": "address",
              "name": "addressMinter",
              "type": "address"
            },
            {
              "internalType": "address[]",
              "name": "_royaltiesAddr",
              "type": "address[]"
            },
            {
              "internalType": "uint8[]",
              "name": "_royaltiesPercent",
              "type": "uint8[]"
            },
            {
              "internalType": "uint256[]",
              "name": "_tokenInAuction",
              "type": "uint256[]"
            },
            {
              "internalType": "uint256[]",
              "name": "_priceToken",
              "type": "uint256[]"
            },
            {
              "internalType": "uint256",
              "name": "listingId",
              "type": "uint256"
            },
            {
              "internalType": "uint256",
              "name": "minBid",
              "type": "uint256"
            },
            {
              "internalType": "uint256",
              "name": "startDate",
              "type": "uint256"
            },
            {
              "internalType": "uint256",
              "name": "timeAuction",
              "type": "uint256"
            },
            {
              "internalType": "bool",
              "name": "paused",
              "type": "bool"
            },
            {
              "internalType": "bool",
              "name": "direct",
              "type": "bool"
            },
            {
              "internalType": "uint8",
              "name": "tokenType",
              "type": "uint8"
            }
          ],
          "internalType": "struct Struct.List",
          "name": "paramsList",
          "type": "tuple"
        }
      ],
      "name": "createList",
      "outputs": [
        {
          "internalType": "uint256",
          "name": "",
          "type": "uint256"
        }
      ],
      "stateMutability": "nonpayable",
      "type": "function"
    },
    {
      "inputs": [
        {
          "components": [
            {
              "components": [
                {
                  "internalType": "address",
                  "name": "addressBidder",
                  "type": "address"
                },
                {
                  "internalType": "uint256",
                  "name": "bid",
                  "type": "uint256"
                }
              ],
              "internalType": "struct Struct.Bidder",
              "name": "lastBidder",
              "type": "tuple"
            },
            {
              "internalType": "address",
              "name": "addressContractToken",
              "type": "address"
            },
            {
              "internalType": "address",
              "name": "addressMinter",
              "type": "address"
            },
            {
              "internalType": "address[]",
              "name": "_royaltiesAddr",
              "type": "address[]"
            },
            {
              "internalType": "uint8[]",
              "name": "_royaltiesPercent",
              "type": "uint8[]"
            },
            {
              "internalType": "uint256[]",
              "name": "_tokenInAuction",
              "type": "uint256[]"
            },
            {
              "internalType": "uint256[]",
              "name": "_priceToken",
              "type": "uint256[]"
            },
            {
              "internalType": "uint256",
              "name": "listingId",
              "type": "uint256"
            },
            {
              "internalType": "uint256",
              "name": "minBid",
              "type": "uint256"
            },
            {
              "internalType": "uint256",
              "name": "startDate",
              "type": "uint256"
            },
            {
              "internalType": "uint256",
              "name": "timeAuction",
              "type": "uint256"
            },
            {
              "internalType": "bool",
              "name": "paused",
              "type": "bool"
            },
            {
              "internalType": "bool",
              "name": "direct",
              "type": "bool"
            },
            {
              "internalType": "uint8",
              "name": "tokenType",
              "type": "uint8"
            }
          ],
          "internalType": "struct Struct.List",
          "name": "paramsList",
          "type": "tuple"
        }
      ],
      "name": "updateList",
      "outputs": [
        {
          "components": [
            {
              "components": [
                {
                  "internalType": "address",
                  "name": "addressBidder",
                  "type": "address"
                },
                {
                  "internalType": "uint256",
                  "name": "bid",
                  "type": "uint256"
                }
              ],
              "internalType": "struct Struct.Bidder",
              "name": "lastBidder",
              "type": "tuple"
            },
            {
              "internalType": "address",
              "name": "addressContractToken",
              "type": "address"
            },
            {
              "internalType": "address",
              "name": "addressMinter",
              "type": "address"
            },
            {
              "internalType": "address[]",
              "name": "_royaltiesAddr",
              "type": "address[]"
            },
            {
              "internalType": "uint8[]",
              "name": "_royaltiesPercent",
              "type": "uint8[]"
            },
            {
              "internalType": "uint256[]",
              "name": "_tokenInAuction",
              "type": "uint256[]"
            },
            {
              "internalType": "uint256[]",
              "name": "_priceToken",
              "type": "uint256[]"
            },
            {
              "internalType": "uint256",
              "name": "listingId",
              "type": "uint256"
            },
            {
              "internalType": "uint256",
              "name": "minBid",
              "type": "uint256"
            },
            {
              "internalType": "uint256",
              "name": "startDate",
              "type": "uint256"
            },
            {
              "internalType": "uint256",
              "name": "timeAuction",
              "type": "uint256"
            },
            {
              "internalType": "bool",
              "name": "paused",
              "type": "bool"
            },
            {
              "internalType": "bool",
              "name": "direct",
              "type": "bool"
            },
            {
              "internalType": "uint8",
              "name": "tokenType",
              "type": "uint8"
            }
          ],
          "internalType": "struct Struct.List",
          "name": "",
          "type": "tuple"
        }
      ],
      "stateMutability": "nonpayable",
      "type": "function"
    },
    {
      "inputs": [
        {
          "internalType": "uint256",
          "name": "_listingId",
          "type": "uint256"
        },
        {
          "internalType": "uint256",
          "name": "tokenNumber",
          "type": "uint256"
        },
        {
          "internalType": "uint256",
          "name": "tokenId",
          "type": "uint256"
        }
      ],
      "name": "buy",
      "outputs": [],
      "stateMutability": "payable",
      "type": "function",
      "payable": true
    },
    {
      "inputs": [
        {
          "internalType": "uint256",
          "name": "_listingId",
          "type": "uint256"
        }
      ],
      "name": "cancelList",
      "outputs": [],
      "stateMutability": "nonpayable",
      "type": "function"
    },
    {
      "inputs": [
        {
          "internalType": "uint256",
          "name": "_listingId",
          "type": "uint256"
        }
      ],
      "name": "getList",
      "outputs": [
        {
          "components": [
            {
              "components": [
                {
                  "internalType": "address",
                  "name": "addressBidder",
                  "type": "address"
                },
                {
                  "internalType": "uint256",
                  "name": "bid",
                  "type": "uint256"
                }
              ],
              "internalType": "struct Struct.Bidder",
              "name": "lastBidder",
              "type": "tuple"
            },
            {
              "internalType": "address",
              "name": "addressContractToken",
              "type": "address"
            },
            {
              "internalType": "address",
              "name": "addressMinter",
              "type": "address"
            },
            {
              "internalType": "address[]",
              "name": "_royaltiesAddr",
              "type": "address[]"
            },
            {
              "internalType": "uint8[]",
              "name": "_royaltiesPercent",
              "type": "uint8[]"
            },
            {
              "internalType": "uint256[]",
              "name": "_tokenInAuction",
              "type": "uint256[]"
            },
            {
              "internalType": "uint256[]",
              "name": "_priceToken",
              "type": "uint256[]"
            },
            {
              "internalType": "uint256",
              "name": "listingId",
              "type": "uint256"
            },
            {
              "internalType": "uint256",
              "name": "minBid",
              "type": "uint256"
            },
            {
              "internalType": "uint256",
              "name": "startDate",
              "type": "uint256"
            },
            {
              "internalType": "uint256",
              "name": "timeAuction",
              "type": "uint256"
            },
            {
              "internalType": "bool",
              "name": "paused",
              "type": "bool"
            },
            {
              "internalType": "bool",
              "name": "direct",
              "type": "bool"
            },
            {
              "internalType": "uint8",
              "name": "tokenType",
              "type": "uint8"
            }
          ],
          "internalType": "struct Struct.List",
          "name": "",
          "type": "tuple"
        }
      ],
      "stateMutability": "view",
      "type": "function",
      "constant": true
    },
    {
      "inputs": [],
      "name": "getLists",
      "outputs": [
        {
          "components": [
            {
              "components": [
                {
                  "internalType": "address",
                  "name": "addressBidder",
                  "type": "address"
                },
                {
                  "internalType": "uint256",
                  "name": "bid",
                  "type": "uint256"
                }
              ],
              "internalType": "struct Struct.Bidder",
              "name": "lastBidder",
              "type": "tuple"
            },
            {
              "internalType": "address",
              "name": "addressContractToken",
              "type": "address"
            },
            {
              "internalType": "address",
              "name": "addressMinter",
              "type": "address"
            },
            {
              "internalType": "address[]",
              "name": "_royaltiesAddr",
              "type": "address[]"
            },
            {
              "internalType": "uint8[]",
              "name": "_royaltiesPercent",
              "type": "uint8[]"
            },
            {
              "internalType": "uint256[]",
              "name": "_tokenInAuction",
              "type": "uint256[]"
            },
            {
              "internalType": "uint256[]",
              "name": "_priceToken",
              "type": "uint256[]"
            },
            {
              "internalType": "uint256",
              "name": "listingId",
              "type": "uint256"
            },
            {
              "internalType": "uint256",
              "name": "minBid",
              "type": "uint256"
            },
            {
              "internalType": "uint256",
              "name": "startDate",
              "type": "uint256"
            },
            {
              "internalType": "uint256",
              "name": "timeAuction",
              "type": "uint256"
            },
            {
              "internalType": "bool",
              "name": "paused",
              "type": "bool"
            },
            {
              "internalType": "bool",
              "name": "direct",
              "type": "bool"
            },
            {
              "internalType": "uint8",
              "name": "tokenType",
              "type": "uint8"
            }
          ],
          "internalType": "struct Struct.List[]",
          "name": "",
          "type": "tuple[]"
        }
      ],
      "stateMutability": "view",
      "type": "function",
      "constant": true
    },
    {
      "inputs": [
        {
          "internalType": "uint256",
          "name": "_listingId",
          "type": "uint256"
        }
      ],
      "name": "bidding",
      "outputs": [],
      "stateMutability": "payable",
      "type": "function",
      "payable": true
    },
    {
      "inputs": [
        {
          "internalType": "uint256",
          "name": "_listingId",
          "type": "uint256"
        }
      ],
      "name": "endAuction",
      "outputs": [],
      "stateMutability": "nonpayable",
      "type": "function"
    }
  ],
  "bytecode": "0x60806040523480156200001157600080fd5b5060405162004c2238038062004c2283398101604081905262000034916200014b565b6200003f3362000072565b6200004c600033620000c2565b600380546001600160a01b0319166001600160a01b03929092169190911790556200017d565b600080546001600160a01b038381166001600160a01b0319831681178455604051919092169283917f8be0079c531659141344cd1fd0a4f28419497f9722a3daafe3b4186f6b6457e09190a35050565b60008281526001602090815260408083206001600160a01b038516845290915290205460ff16620001475760008281526001602081815260408084206001600160a01b0386168086529252808420805460ff19169093179092559051339285917f2f8788117e7eff1d82e926ec794901d17c78024a50270940304540a733656f0d9190a45b5050565b6000602082840312156200015e57600080fd5b81516001600160a01b03811681146200017657600080fd5b9392505050565b614a95806200018d6000396000f3fe6080604052600436106101145760003560e01c80638da5cb5b116100a0578063cb4b090911610064578063cb4b090914610301578063cc889b0b14610323578063d547741f14610336578063deb26b9414610356578063f2fde38b1461037857600080fd5b80638da5cb5b1461026457806391d148541461028c578063a217fddf146102ac578063b9a2de3a146102c1578063c9c9d2d8146102e157600080fd5b80632f2ff15d116100e75780632f2ff15d146101da57806336568abe146101fc57806340993b261461021c578063715018a61461022f5780638d7306981461024457600080fd5b806301ffc9a7146101195780631ab5b3831461014e578063248a9ca31461017b5780632d5a7e20146101ba575b600080fd5b34801561012557600080fd5b50610139610134366004613a81565b610398565b60405190151581526020015b60405180910390f35b34801561015a57600080fd5b5061016e610169366004613a38565b6103cf565b60405161014591906146bf565b34801561018757600080fd5b506101ac610196366004613a38565b6000908152600160208190526040909120015490565b604051908152602001610145565b3480156101c657600080fd5b5061016e6101d5366004613aab565b610621565b3480156101e657600080fd5b506101fa6101f5366004613a51565b610ca1565b005b34801561020857600080fd5b506101fa610217366004613a51565b610ccd565b6101fa61022a366004613c22565b610d4b565b34801561023b57600080fd5b506101fa6113bb565b34801561025057600080fd5b506101ac61025f366004613aab565b611421565b34801561027057600080fd5b506000546040516001600160a01b039091168152602001610145565b34801561029857600080fd5b506101396102a7366004613a51565b61177c565b3480156102b857600080fd5b506101ac600081565b3480156102cd57600080fd5b506101fa6102dc366004613a38565b6117a7565b3480156102ed57600080fd5b506101fa6102fc366004613a38565b6120ed565b34801561030d57600080fd5b50610316612274565b604051610145919061462a565b6101fa610331366004613a38565b612562565b34801561034257600080fd5b506101fa610351366004613a51565b61287e565b34801561036257600080fd5b506101ac600080516020614a4083398151915281565b34801561038457600080fd5b506101fa6103933660046139e1565b6128a5565b60006001600160e01b03198216637965db0b60e01b14806103c957506301ffc9a760e01b6001600160e01b03198316145b92915050565b6103d7613576565b600282815481106103ea576103ea6149f0565b60009182526020918290206040805161020081018252600d90930290910180546001600160a01b039081166101c0850190815260018301546101e086015284526002820154811684860152600382015416838301526004810180548351818702810187019094528084529394919360608601939283018282801561049757602002820191906000526020600020905b81546001600160a01b03168152600190910190602001808311610479575b505050505081526020016005820180548060200260200160405190810160405280929190818152602001828054801561050d57602002820191906000526020600020906000905b825461010083900a900460ff168152602060019283018181049485019490930390920291018084116104de5790505b505050505081526020016006820180548060200260200160405190810160405280929190818152602001828054801561056557602002820191906000526020600020905b815481526020019060010190808311610551575b50505050508152602001600782018054806020026020016040519081016040528092919081815260200182805480156105bd57602002820191906000526020600020905b8154815260200190600101908083116105a9575b50505091835250506008820154602082015260098201546040820152600a8201546060820152600b8201546080820152600c9091015460ff808216151560a084015261010082048116151560c0840152620100009091041660e09091015292915050565b610629613576565b600080516020614a408339815191526106428133612970565b61064b836129d4565b61065d83606001518460800151612a55565b60028360e0015181548110610674576106746149f0565b60009182526020909120600d90910201600c0154610100900460ff1661073e5760028360e00151815481106106ab576106ab6149f0565b90600052602060002090600d0201600a01544210806106f2575060028360e00151815481106106dc576106dc6149f0565b90600052602060002090600d0201600a01546000145b61073e5760405162461bcd60e51b815260206004820152601860248201527720bab1ba34b7b71030b63932b0b23c9039ba30b93a32b21760411b60448201526064015b60405180910390fd5b604051806101c0016040528060028560e0015181548110610761576107616149f0565b90600052602060002090600d02016000016040518060400160405290816000820160009054906101000a90046001600160a01b03166001600160a01b03166001600160a01b03168152602001600182015481525050815260200184602001516001600160a01b0316815260200184604001516001600160a01b0316815260200184606001518152602001846080015181526020018460a0015181526020018460c0015181526020018460e0015181526020018461010001518152602001846101200151815260200184610140015181526020018461016001511515815260200184610180015115158152602001846101a0015160ff1681525060028460e0015181548110610871576108716149f0565b600091825260209182902083518051600d9390930290910180546001600160a01b03199081166001600160a01b03948516178255918401516001820155848401516002820180548416918516919091179055604085015160038201805490931693169290921790556060830151805191926108f4926004850192909101906135f8565b506080820151805161091091600584019160209091019061365d565b5060a0820151805161092c9160068401916020909101906136fe565b5060c082015180516109489160078401916020909101906136fe565b5060e0828101516008830155610100808401516009840155610120840151600a840155610140840151600b840155610160840151600c90930180546101808601516101a09096015160ff16620100000262ff00001996151590930261ff00199515159590951661ffff1990911617939093179390931692909217905560035490840151600280546001600160a01b0390931692633564399392913391839081106109f4576109f46149f0565b90600052602060002090600d02016040518463ffffffff1660e01b8152600401610a20939291906147e1565b600060405180830381600087803b158015610a3a57600080fd5b505af1158015610a4e573d6000803e3d6000fd5b5050505060028360e0015181548110610a6957610a696149f0565b60009182526020918290206040805161020081018252600d90930290910180546001600160a01b039081166101c0850190815260018301546101e0860152845260028201548116848601526003820154168383015260048101805483518187028101870190945280845293949193606086019392830182828015610b1657602002820191906000526020600020905b81546001600160a01b03168152600190910190602001808311610af8575b5050505050815260200160058201805480602002602001604051908101604052809291908181526020018280548015610b8c57602002820191906000526020600020906000905b825461010083900a900460ff16815260206001928301818104948501949093039092029101808411610b5d5790505b5050505050815260200160068201805480602002602001604051908101604052809291908181526020018280548015610be457602002820191906000526020600020905b815481526020019060010190808311610bd0575b5050505050815260200160078201805480602002602001604051908101604052809291908181526020018280548015610c3c57602002820191906000526020600020905b815481526020019060010190808311610c28575b50505091835250506008820154602082015260098201546040820152600a8201546060820152600b8201546080820152600c9091015460ff808216151560a084015261010082048116151560c0840152620100009091041660e0909101529392505050565b60008281526001602081905260409091200154610cbe8133612970565b610cc88383612b05565b505050565b6001600160a01b0381163314610d3d5760405162461bcd60e51b815260206004820152602f60248201527f416363657373436f6e74726f6c3a2063616e206f6e6c792072656e6f756e636560448201526e103937b632b9903337b91039b2b63360891b6064820152608401610735565b610d478282612b70565b5050565b8260006001600160a01b031660028281548110610d6a57610d6a6149f0565b600091825260209091206002600d9092020101546001600160a01b03161415610dcc5760405162461bcd60e51b81526020600482015260146024820152731b1a5cdd1a5b99c8191bc81b9bdd08195e1a5cdd60621b6044820152606401610735565b60028481548110610ddf57610ddf6149f0565b90600052602060002090600d02016007018381548110610e0157610e016149f0565b9060005260206000200154341015610e5b5760405162461bcd60e51b815260206004820152601860248201527f4e6f7420656e6f75676874206d6f6e65792073656e64656400000000000000006044820152606401610735565b8160028581548110610e6f57610e6f6149f0565b90600052602060002090600d02016006018481548110610e9157610e916149f0565b906000526020600020015414610edd5760405162461bcd60e51b81526020600482015260116024820152702737ba1033b7b7b21034b2103a37b5b2b760791b6044820152606401610735565b600060028581548110610ef257610ef26149f0565b600091825260209091206002600d9092020101546001600160a01b03169050610f1b8585612bd7565b806001600160a01b0316637fa0d0ea6040518163ffffffff1660e01b815260040160206040518083038186803b158015610f5457600080fd5b505afa158015610f68573d6000803e3d6000fd5b505050506040513d601f19601f82011682018060405250810190610f8c9190613a1b565b1515600114156110c257604051634f558e7960e01b8152600481018490526001600160a01b03821690634f558e799060240160206040518083038186803b158015610fd657600080fd5b505afa158015610fea573d6000803e3d6000fd5b505050506040513d601f19601f8201168201806040525081019061100e9190613a1b565b15156001146110565760405162461bcd60e51b8152602060048201526014602482015273151bdad95b88185b1c9958591e481b5a5b9d195960621b6044820152606401610735565b604051632e72cfed60e01b815260016004820152336024820152604481018490526001600160a01b03821690632e72cfed90606401600060405180830381600087803b1580156110a557600080fd5b505af11580156110b9573d6000803e3d6000fd5b50505050611275565b6040516331a9108f60e11b8152600481018490526001600160a01b03821690636352211e9060240160206040518083038186803b15801561110257600080fd5b505afa158015611116573d6000803e3d6000fd5b505050506040513d601f19601f8201168201806040525081019061113a91906139fe565b6001600160a01b031660028681548110611156576111566149f0565b600091825260209091206003600d9092020101546001600160a01b0316146111ca5760405162461bcd60e51b815260206004820152602160248201527f546f6b656e206e6f74206f776e6564206279206d696e746572206164647265736044820152607360f81b6064820152608401610735565b806001600160a01b031663b88d4fde600287815481106111ec576111ec6149f0565b600091825260208220600d909102016003015460405160e084901b6001600160e01b03191681526001600160a01b0390911660048201523360248201526044810187905260806064820152608481019190915260a401600060405180830381600087803b15801561125c57600080fd5b505af1158015611270573d6000803e3d6000fd5b505050505b61127f8534612dd9565b60035460405163098c239f60e31b815233600482015234602482015260448101859052606481018790526001600160a01b0390911690634c611cf890608401600060405180830381600087803b1580156112d857600080fd5b505af11580156112ec573d6000803e3d6000fd5b50505050600060028681548110611305576113056149f0565b90600052602060002090600d020160060180549050116113b457600354600280546001600160a01b039092169163356439939188913391908390811061134d5761134d6149f0565b90600052602060002090600d02016040518463ffffffff1660e01b815260040161137993929190614715565b600060405180830381600087803b15801561139357600080fd5b505af11580156113a7573d6000803e3d6000fd5b505050506113b48561302f565b5050505050565b6000546001600160a01b031633146114155760405162461bcd60e51b815260206004820181905260248201527f4f776e61626c653a2063616c6c6572206973206e6f7420746865206f776e65726044820152606401610735565b61141f600061328d565b565b6000600080516020614a4083398151915261143c8133612970565b611445836129d4565b61145783606001518460800151612a55565b604080516102008101825260006101c082018181526101e083019190915281526020858101516001600160a01b039081169183019190915285830151811682840152606080870151908301526080808701519083015260a0808701519083015260c0808701519083015260025460e0830181905261010080880151908401526101208088015190840152610140808801519084015261016080880151151590840152610180808801511515908401526101a08088015160ff16908401526003549351633564399360e01b815292939091169163356439939161153f91339086906004016146d2565b600060405180830381600087803b15801561155957600080fd5b505af115801561156d573d6000803e3d6000fd5b50506002805460018101825560009190915283518051600d9092027f405787fa12a823e0f2b7631cc41b3ba8828b3321ca811111fa75cd3aa3bb5ace810180546001600160a01b039485166001600160a01b03199182161782556020938401517f405787fa12a823e0f2b7631cc41b3ba8828b3321ca811111fa75cd3aa3bb5acf840155838801517f405787fa12a823e0f2b7631cc41b3ba8828b3321ca811111fa75cd3aa3bb5ad08401805491871691831691909117905560408801517f405787fa12a823e0f2b7631cc41b3ba8828b3321ca811111fa75cd3aa3bb5ad1840180549190961691161790935560608601518051879650939450611697937f405787fa12a823e0f2b7631cc41b3ba8828b3321ca811111fa75cd3aa3bb5ad29092019201906135f8565b50608082015180516116b391600584019160209091019061365d565b5060a082015180516116cf9160068401916020909101906136fe565b5060c082015180516116eb9160078401916020909101906136fe565b5060e08201516008820155610100808301516009830155610120830151600a830155610140830151600b830155610160830151600c90920180546101808501516101a09095015161ffff1990911693151561ff001916939093179315159091029290921762ff000019166201000060ff909216919091021790556002546117749060019061492f565b949350505050565b60009182526001602090815260408084206001600160a01b0393909316845291905290205460ff1690565b600080516020614a408339815191526117c08133612970565b600282815481106117d3576117d36149f0565b90600052602060002090600d0201600b0154600283815481106117f8576117f86149f0565b90600052602060002090600d0201600a015461181491906148a3565b42101561185a5760405162461bcd60e51b8152602060048201526014602482015273131a5cdd081a5cc81b9bdd08199a5b9a5cda195960621b6044820152606401610735565b6002828154811061186d5761186d6149f0565b60009182526020909120600d90910201600c0154610100900460ff16156118cc5760405162461bcd60e51b81526020600482015260136024820152722634b9ba1034b9903737ba1030bab1ba34b7b760691b6044820152606401610735565b600080600284815481106118e2576118e26149f0565b60009182526020918290206002600d90920201015460408051633fd0687560e11b815290516001600160a01b0390921693508392637fa0d0ea92600480840193829003018186803b15801561193657600080fd5b505afa15801561194a573d6000803e3d6000fd5b505050506040513d601f19601f8201168201806040525081019061196e9190613a1b565b611d765760005b60028581548110611988576119886149f0565b90600052602060002090600d020160060180549050811015611ab657816001600160a01b0316636352211e600287815481106119c6576119c66149f0565b90600052602060002090600d020160060183815481106119e8576119e86149f0565b90600052602060002001546040518263ffffffff1660e01b8152600401611a1191815260200190565b60206040518083038186803b158015611a2957600080fd5b505afa158015611a3d573d6000803e3d6000fd5b505050506040513d601f19601f82011682018060405250810190611a6191906139fe565b6001600160a01b031660028681548110611a7d57611a7d6149f0565b600091825260209091206003600d9092020101546001600160a01b031614611aa457600192505b80611aae81614989565b915050611975565b5081611d7157611d7160028581548110611ad257611ad26149f0565b90600052602060002090600d020160030160009054906101000a90046001600160a01b031660028681548110611b0a57611b0a6149f0565b60009182526020909120600d9091020154600280546001600160a01b039092169188908110611b3b57611b3b6149f0565b60009182526020918290206040805161020081018252600d90930290910180546001600160a01b039081166101c0850190815260018301546101e0860152845260028201548116848601526003820154168383015260048101805483518187028101870190945280845293949193606086019392830182828015611be857602002820191906000526020600020905b81546001600160a01b03168152600190910190602001808311611bca575b5050505050815260200160058201805480602002602001604051908101604052809291908181526020018280548015611c5e57602002820191906000526020600020906000905b825461010083900a900460ff16815260206001928301818104948501949093039092029101808411611c2f5790505b5050505050815260200160068201805480602002602001604051908101604052809291908181526020018280548015611cb657602002820191906000526020600020905b815481526020019060010190808311611ca2575b5050505050815260200160078201805480602002602001604051908101604052809291908181526020018280548015611d0e57602002820191906000526020600020905b815481526020019060010190808311611cfa575b50505091835250506008820154602082015260098201546040820152600a8201546060820152600b8201546080820152600c9091015460ff808216151560a084015261010082048116151560c0840152620100009091041660e0909101526132dd565b611f8c565b60005b60028581548110611d8c57611d8c6149f0565b90600052602060002090600d020160060180549050811015611e8657816001600160a01b0316634f558e7960028781548110611dca57611dca6149f0565b90600052602060002090600d02016006018381548110611dec57611dec6149f0565b90600052602060002001546040518263ffffffff1660e01b8152600401611e1591815260200190565b60206040518083038186803b158015611e2d57600080fd5b505afa158015611e41573d6000803e3d6000fd5b505050506040513d601f19601f82011682018060405250810190611e659190613a1b565b151560011415611e7457600192505b80611e7e81614989565b915050611d79565b5081611f8c5760005b60028581548110611ea257611ea26149f0565b90600052602060002090600d020160060180549050811015611f8a57816001600160a01b0316632e72cfed60013360028981548110611ee357611ee36149f0565b90600052602060002090600d02016006018581548110611f0557611f056149f0565b6000918252602090912001546040516001600160e01b031960e086901b16815260048101939093526001600160a01b0390911660248301526044820152606401600060405180830381600087803b158015611f5f57600080fd5b505af1158015611f73573d6000803e3d6000fd5b505050508080611f8290614989565b915050611e8f565b505b600182151514156120215760028481548110611faa57611faa6149f0565b60009182526020909120600d9091020154600280546001600160a01b03909216916108fc919087908110611fe057611fe06149f0565b6000918252602082206001600d9092020101546040518115909302929091818181858888f1935050505015801561201b573d6000803e3d6000fd5b506120de565b600354600280546001600160a01b039092169163356439939187913391908390811061204f5761204f6149f0565b90600052602060002090600d02016040518463ffffffff1660e01b815260040161207b9392919061475c565b600060405180830381600087803b15801561209557600080fd5b505af11580156120a9573d6000803e3d6000fd5b505050506120de84600286815481106120c4576120c46149f0565b90600052602060002090600d020160000160010154612dd9565b6120e78461302f565b50505050565b600080516020614a408339815191526121068133612970565b60028281548110612119576121196149f0565b90600052602060002090600d0201600a015442108061215c575060028281548110612146576121466149f0565b90600052602060002090600d0201600a01546000145b80612198575060028281548110612175576121756149f0565b60009182526020909120600c600d90920201015460ff6101009091041615156001145b6121df5760405162461bcd60e51b815260206004820152601860248201527720bab1ba34b7b71030b63932b0b23c9039ba30b93a32b21760411b6044820152606401610735565b600354600280546001600160a01b039092169163356439939185913391908390811061220d5761220d6149f0565b90600052602060002090600d02016040518463ffffffff1660e01b81526004016122399392919061479e565b600060405180830381600087803b15801561225357600080fd5b505af1158015612267573d6000803e3d6000fd5b50505050610d478261302f565b60025460609060009067ffffffffffffffff81111561229557612295614a06565b6040519080825280602002602001820160405280156122ce57816020015b6122bb613576565b8152602001906001900390816122b35790505b50905060005b60025481101561255c576000600282815481106122f3576122f36149f0565b60009182526020918290206040805161020081018252600d90930290910180546001600160a01b039081166101c0850190815260018301546101e086015284526002820154811684860152600382015416838301526004810180548351818702810187019094528084529195509293859360608601939290918301828280156123a557602002820191906000526020600020905b81546001600160a01b03168152600190910190602001808311612387575b505050505081526020016005820180548060200260200160405190810160405280929190818152602001828054801561241b57602002820191906000526020600020906000905b825461010083900a900460ff168152602060019283018181049485019490930390920291018084116123ec5790505b505050505081526020016006820180548060200260200160405190810160405280929190818152602001828054801561247357602002820191906000526020600020905b81548152602001906001019080831161245f575b50505050508152602001600782018054806020026020016040519081016040528092919081815260200182805480156124cb57602002820191906000526020600020905b8154815260200190600101908083116124b7575b50505091835250506008820154602082015260098201546040820152600a8201546060820152600b8201546080820152600c9091015460ff808216151560a084015261010082048116151560c0840152620100009091041660e090910152835184908490811061253d5761253d6149f0565b602002602001018190525050808061255490614989565b9150506122d4565b50919050565b60028181548110612575576125756149f0565b90600052602060002090600d020160090154341180156125bb5750600281815481106125a3576125a36149f0565b90600052602060002090600d02016000016001015434115b6126075760405162461bcd60e51b815260206004820152601c60248201527f52657175697265206d6f72652045544820666f722062696464696e67000000006044820152606401610735565b6002818154811061261a5761261a6149f0565b90600052602060002090600d0201600a015460001415801561265f57506002818154811061264a5761264a6149f0565b90600052602060002090600d0201600a015442115b6126a15760405162461bcd60e51b8152602060048201526013602482015272105d58dd1a5bdb881b9bdd081cdd185c9d1959606a1b6044820152606401610735565b600281815481106126b4576126b46149f0565b90600052602060002090600d0201600b0154600282815481106126d9576126d96149f0565b90600052602060002090600d0201600a01546126f591906148a3565b42106127395760405162461bcd60e51b8152602060048201526013602482015272105d58dd1a5bdb881a5cc8199a5b9a5cda1959606a1b6044820152606401610735565b6002818154811061274c5761274c6149f0565b60009182526020909120600d9091020154600280546001600160a01b03909216916108fc919084908110612782576127826149f0565b6000918252602082206001600d9092020101546040518115909302929091818181858888f193505050501580156127bd573d6000803e3d6000fd5b506040805180820190915233815234602082015260028054839081106127e5576127e56149f0565b60009182526020918290208351600d929092020180546001600160a01b0319166001600160a01b0392831617815592909101516001909201919091556003546040516309856a2b60e21b815233600482015234602482015260448101849052911690632615a8ac90606401600060405180830381600087803b15801561286a57600080fd5b505af11580156113b4573d6000803e3d6000fd5b6000828152600160208190526040909120015461289b8133612970565b610cc88383612b70565b6000546001600160a01b031633146128ff5760405162461bcd60e51b815260206004820181905260248201527f4f776e61626c653a2063616c6c6572206973206e6f7420746865206f776e65726044820152606401610735565b6001600160a01b0381166129645760405162461bcd60e51b815260206004820152602660248201527f4f776e61626c653a206e6577206f776e657220697320746865207a65726f206160448201526564647265737360d01b6064820152608401610735565b61296d8161328d565b50565b61297a828261177c565b610d4757612992816001600160a01b031660146133d3565b61299d8360206133d3565b6040516020016129ae9291906145b5565b60408051601f198184030181529082905262461bcd60e51b82526107359160040161468c565b8060c00151518160a00151511480156129f2575060008160a0015151115b8015612a03575060008160c0015151115b8015612a185750806080015151816060015151145b61296d5760405162461bcd60e51b815260206004820152600e60248201526d125b98dbdc9c9958dd081b1a5cdd60921b6044820152606401610735565b6000805b8351811015612a9b57828181518110612a7457612a746149f0565b602002602001015182612a8791906148bb565b915080612a9381614989565b915050612a59565b5060648160ff161115610cc85760405162461bcd60e51b815260206004820152602c60248201527f50657263656e74616765206f6620726f79616c7469657320697320626967676560448201526b72207468616e20313030202560a01b6064820152608401610735565b612b0f828261177c565b610d475760008281526001602081815260408084206001600160a01b0386168086529252808420805460ff19169093179092559051339285917f2f8788117e7eff1d82e926ec794901d17c78024a50270940304540a733656f0d9190a45050565b612b7a828261177c565b15610d475760008281526001602090815260408083206001600160a01b0385168085529252808320805460ff1916905551339285917ff6391f5c32d9c69d2a47ea670b442974b53935d1edc7fd64eb21e047a839171b9190a45050565b805b600160028481548110612bee57612bee6149f0565b90600052602060002090600d020160060180549050612c0d919061492f565b811015612d425760028381548110612c2757612c276149f0565b90600052602060002090600d0201600601816001612c4591906148a3565b81548110612c5557612c556149f0565b906000526020600020015460028481548110612c7357612c736149f0565b90600052602060002090600d02016006018281548110612c9557612c956149f0565b906000526020600020018190555060028381548110612cb657612cb66149f0565b90600052602060002090600d0201600701816001612cd491906148a3565b81548110612ce457612ce46149f0565b906000526020600020015460028481548110612d0257612d026149f0565b90600052602060002090600d02016007018281548110612d2457612d246149f0565b60009182526020909120015580612d3a81614989565b915050612bd9565b5060028281548110612d5657612d566149f0565b90600052602060002090600d0201600601805480612d7657612d766149da565b6001900381819060005260206000200160009055905560028281548110612d9f57612d9f6149f0565b90600052602060002090600d0201600701805480612dbf57612dbf6149da565b600190038181906000526020600020016000905590555050565b60005b60028381548110612def57612def6149f0565b90600052602060002090600d0201600401805490508160ff161015610cc8576000606460028581548110612e2557612e256149f0565b90600052602060002090600d02016005018360ff1681548110612e4a57612e4a6149f0565b90600052602060002090602091828204019190069054906101000a900460ff16612e7491906148e0565b612e819060ff1684614910565b905060006001600160a01b031660028581548110612ea157612ea16149f0565b90600052602060002090600d02016004018360ff1681548110612ec657612ec66149f0565b6000918252602090912001546001600160a01b03161461301c5760028481548110612ef357612ef36149f0565b90600052602060002090600d02016004018260ff1681548110612f1857612f186149f0565b60009182526020822001546040516001600160a01b039091169183156108fc02918491818181858888f19350505050158015612f58573d6000803e3d6000fd5b50600354600280546001600160a01b039092169163b4db688491879182908110612f8457612f846149f0565b90600052602060002090600d02016004018560ff1681548110612fa957612fa96149f0565b60009182526020909120015460405160e084901b6001600160e01b031916815260048101929092526001600160a01b0316602482015260448101849052606401600060405180830381600087803b15801561300357600080fd5b505af1158015613017573d6000803e3d6000fd5b505050505b5080613027816149a4565b915050612ddc565b805b6002546130409060019061492f565b8110156131d35760026130548260016148a3565b81548110613064576130646149f0565b90600052602060002090600d020160028281548110613085576130856149f0565b600091825260209091208254600d9092020180546001600160a01b039283166001600160a01b0319918216178255600180850154908301556002808501549083018054918516918316919091179055600380850154908301805491909416911617909155600480830180546130fd9284019190613739565b50600582810180546131129284019190613779565b50600682810180546131279284019190613739565b506007828101805461313c9284019190613739565b506008828101549082015560098083015490820155600a8083015490820155600b8083015490820155600c918201805492909101805460ff938416151560ff19821681178355835461010090819004861615150261ff001990911661ffff1990921691909117178082559154620100009081900490931690920262ff000019909116179055806131cb81614989565b915050613031565b5060028054806131e5576131e56149da565b600082815260208120600d6000199093019283020180546001600160a01b03199081168255600182018390556002820180548216905560038201805490911690559061323460048301826137c6565b6132426005830160006137e4565b6132506006830160006137c6565b61325e6007830160006137c6565b5060006008820181905560098201819055600a8201819055600b820155600c01805462ffffff19169055905550565b600080546001600160a01b038381166001600160a01b0319831681178455604051919092169283917f8be0079c531659141344cd1fd0a4f28419497f9722a3daafe3b4186f6b6457e09190a35050565b806101a0015160ff16600114156132f357505050565b806101a0015160ff1660021415610cc857602081015160005b8260a00151518110156113b457816001600160a01b031663b88d4fde86868660a001518581518110613340576133406149f0565b60209081029190910101516040516001600160e01b031960e086901b1681526001600160a01b0393841660048201529290911660248301526044820152608060648201526000608482015260a401600060405180830381600087803b1580156133a857600080fd5b505af11580156133bc573d6000803e3d6000fd5b5050505080806133cb90614989565b91505061330c565b606060006133e2836002614910565b6133ed9060026148a3565b67ffffffffffffffff81111561340557613405614a06565b6040519080825280601f01601f19166020018201604052801561342f576020820181803683370190505b509050600360fc1b8160008151811061344a5761344a6149f0565b60200101906001600160f81b031916908160001a905350600f60fb1b81600181518110613479576134796149f0565b60200101906001600160f81b031916908160001a905350600061349d846002614910565b6134a89060016148a3565b90505b6001811115613520576f181899199a1a9b1b9c1cb0b131b232b360811b85600f16601081106134dc576134dc6149f0565b1a60f81b8282815181106134f2576134f26149f0565b60200101906001600160f81b031916908160001a90535060049490941c9361351981614972565b90506134ab565b50831561356f5760405162461bcd60e51b815260206004820181905260248201527f537472696e67733a20686578206c656e67746820696e73756666696369656e746044820152606401610735565b9392505050565b604080516102008101825260006101c082018181526101e0830182905282526020820181905291810182905260608082018190526080820181905260a0820181905260c082015260e08101829052610100810182905261012081018290526101408101829052610160810182905261018081018290526101a081019190915290565b82805482825590600052602060002090810192821561364d579160200282015b8281111561364d57825182546001600160a01b0319166001600160a01b03909116178255602090920191600190910190613618565b50613659929150613805565b5090565b82805482825590600052602060002090601f0160209004810192821561364d5791602002820160005b838211156136c457835183826101000a81548160ff021916908360ff1602179055509260200192600101602081600001049283019260010302613686565b80156136f15782816101000a81549060ff02191690556001016020816000010492830192600103026136c4565b5050613659929150613805565b82805482825590600052602060002090810192821561364d579160200282015b8281111561364d57825182559160200191906001019061371e565b82805482825590600052602060002090810192821561364d5760005260206000209182015b8281111561364d57825482559160010191906001019061375e565b82805482825590600052602060002090601f0160209004810192821561364d57600052602060002091601f016020900482018281111561364d57825482559160010191906001019061375e565b508054600082559060005260206000209081019061296d9190613805565b50805460008255601f01602090049060005260206000209081019061296d91905b5b808211156136595760008155600101613806565b803561382581614a1c565b919050565b600082601f83011261383b57600080fd5b8135602061385061384b8361487f565b61484e565b80838252828201915082860187848660051b890101111561387057600080fd5b60005b8581101561389857813561388681614a1c565b84529284019290840190600101613873565b5090979650505050505050565b600082601f8301126138b657600080fd5b813560206138c661384b8361487f565b80838252828201915082860187848660051b89010111156138e657600080fd5b60005b85811015613898578135845292840192908401906001016138e9565b600082601f83011261391657600080fd5b8135602061392661384b8361487f565b80838252828201915082860187848660051b890101111561394657600080fd5b60005b858110156138985761395a826139d0565b84529284019290840190600101613949565b803561382581614a31565b60006040828403121561398957600080fd5b6040516040810181811067ffffffffffffffff821117156139ac576139ac614a06565b60405290508082356139bd81614a1c565b8152602092830135920191909152919050565b803560ff8116811461382557600080fd5b6000602082840312156139f357600080fd5b813561356f81614a1c565b600060208284031215613a1057600080fd5b815161356f81614a1c565b600060208284031215613a2d57600080fd5b815161356f81614a31565b600060208284031215613a4a57600080fd5b5035919050565b60008060408385031215613a6457600080fd5b823591506020830135613a7681614a1c565b809150509250929050565b600060208284031215613a9357600080fd5b81356001600160e01b03198116811461356f57600080fd5b600060208284031215613abd57600080fd5b813567ffffffffffffffff80821115613ad557600080fd5b908301906101e08286031215613aea57600080fd5b613af2614824565b613afc8684613977565b8152613b0a6040840161381a565b6020820152613b1b6060840161381a565b6040820152608083013582811115613b3257600080fd5b613b3e8782860161382a565b60608301525060a083013582811115613b5657600080fd5b613b6287828601613905565b60808301525060c083013582811115613b7a57600080fd5b613b86878286016138a5565b60a08301525060e083013582811115613b9e57600080fd5b613baa878286016138a5565b60c08301525061010091508183013560e08201526101208084013583830152610140925082840135818301525061016080840135838301526101809250613bf283850161396c565b908201526101a0613c0484820161396c565b83830152613c156101c085016139d0565b9082015295945050505050565b600080600060608486031215613c3757600080fd5b505081359360208301359350604090920135919050565b600081518084526020808501945080840160005b83811015613c875781516001600160a01b031687529582019590820190600101613c62565b509495945050505050565b6000815480845260208085019450836000528060002060005b83811015613c875781546001600160a01b031687529582019560019182019101613cab565b600081518084526020808501945080840160005b83811015613c8757815187529582019590820190600101613ce4565b6000815480845260208085019450836000528060002060005b83811015613c8757815487529582019560019182019101613d19565b600081518084526020808501945080840160005b83811015613c8757815160ff1687529582019590820190600101613d49565b805480835260008281526020808220940193909190825b82601f8201101561400657815460ff80821688526020613da8818a01838560081c1660ff169052565b6040613dbd818b01848660101c1660ff169052565b6060613dd2818c01858760181c1660ff169052565b6080613de6818d018688871c1660ff169052565b60a09350613dfd848d01868860281c1660ff169052565b60c0613e12818e01878960301c1660ff169052565b60e0613e27818f01888a60381c1660ff169052565b60ff88861c8816166101008f0152613e4a6101208f01888a60481c1660ff169052565b613e5f6101408f01888a60501c1660ff169052565b613e746101608f01888a60581c1660ff169052565b60ff88851c8816166101808f0152613e976101a08f01888a60681c1660ff169052565b613eac6101c08f01888a60701c1660ff169052565b613ec16101e08f01888a60781c1660ff169052565b60ff88841c8816166102008f0152613ee46102208f01888a60881c1660ff169052565b613ef96102408f01888a60901c1660ff169052565b613f0e6102608f01888a60981c1660ff169052565b60ff88871c8816166102808f0152613f316102a08f01888a60a81c1660ff169052565b613f466102c08f01888a60b01c1660ff169052565b613f5b6102e08f01888a60b81c1660ff169052565b60ff88831c8816166103008f0152613f7e6103208f01888a60c81c1660ff169052565b613f936103408f01888a60d01c1660ff169052565b613fa86103608f01888a60d81c1660ff169052565b60ff88821c8816166103808f0152505050505050613fd16103a08901828460e81c1660ff169052565b613fe66103c08901828460f01c1660ff169052565b5060f81c6103e08701526104009095019460019190910190602001613d7f565b905490828110156140215760ff821686526020909501946001015b8281101561403d5760ff600883901c1686526020909501946001015b828110156140595760ff601083901c1686526020909501946001015b828110156140755760ff601883901c1686526020909501946001015b8281101561409257602082901c60ff168652602095909501946001015b828110156140ae5760ff602883901c1686526020909501946001015b828110156140ca5760ff603083901c1686526020909501946001015b828110156140e65760ff603883901c1686526020909501946001015b828110156141025760ff604083901c1686526020909501946001015b8281101561411e5760ff604883901c1686526020909501946001015b8281101561413a5760ff605083901c1686526020909501946001015b828110156141565760ff605883901c1686526020909501946001015b828110156141725760ff606083901c1686526020909501946001015b8281101561418e5760ff606883901c1686526020909501946001015b828110156141aa5760ff607083901c1686526020909501946001015b828110156141c65760ff607883901c1686526020909501946001015b828110156141e25760ff608083901c1686526020909501946001015b828110156141fe5760ff608883901c1686526020909501946001015b8281101561421a5760ff609083901c1686526020909501946001015b828110156142365760ff609883901c1686526020909501946001015b828110156142525760ff60a083901c1686526020909501946001015b8281101561426e5760ff60a883901c1686526020909501946001015b8281101561428a5760ff60b083901c1686526020909501946001015b828110156142a65760ff60b883901c1686526020909501946001015b828110156142c25760ff60c083901c1686526020909501946001015b828110156142de5760ff60c883901c1686526020909501946001015b828110156142fa5760ff60d083901c1686526020909501946001015b828110156143165760ff60d883901c1686526020909501946001015b828110156143325760ff60e083901c1686526020909501946001015b8281101561434e5760ff60e883901c1686526020909501946001015b8281101561436a5760ff60f083901c1686526020909501946001015b828110156143805760f882901c86526020860195505b5093949350505050565b60006101e06143ad84845180516001600160a01b03168252602090810151910152565b60208301516001600160a01b03811660408601525060408301516001600160a01b03811660608601525060608301518160808601526143ee82860182613c4e565b915050608083015184820360a08601526144088282613d35565b91505060a083015184820360c08601526144228282613cd0565b91505060c083015184820360e086015261443c8282613cd0565b60e085015161010087810191909152850151610120808801919091528501516101408088019190915285015161016080880191909152850151909250905061018061448a8187018315159052565b84015190506101a061449f8682018315159052565b84015160ff81166101c087015290505b509392505050565b80546001600160a01b0390811683526001820154602084015260028201548116604084015260038201541660608301526101e06080830181905260009061450381850160048501613c92565b905083810360a085015261451a8160058501613d68565b905083810360c08501526145318160068501613d00565b905083810360e08501526145488160078501613d00565b905060088301546101008501526009830154610120850152600a830154610140850152600b830154610160850152600c83015461458d610180860160ff831615159052565b6145a26101a0860160ff8360081c1615159052565b601081901c60ff166101c08601526144af565b7f416363657373436f6e74726f6c3a206163636f756e74200000000000000000008152600083516145ed816017850160208801614946565b7001034b99036b4b9b9b4b733903937b6329607d1b601791840191820152835161461e816028840160208801614946565b01602801949350505050565b6000602080830181845280855180835260408601915060408160051b870101925083870160005b8281101561467f57603f1988860301845261466d85835161438a565b94509285019290850190600101614651565b5092979650505050505050565b60208152600082518060208401526146ab816040850160208701614946565b601f01601f19169190910160400192915050565b60208152600061356f602083018461438a565b8381526001600160a01b03831660208201526080604082018190526000906146fc9083018461438a565b90506543726561746560d01b6060830152949350505050565b8381526001600160a01b038316602082015260806040820181905260009061473f908301846144b7565b905069105b1b081cd95b1b195960b21b6060830152949350505050565b8381526001600160a01b0383166020820152608060408201819052600090614786908301846144b7565b905064115b99195960da1b6060830152949350505050565b8381526001600160a01b03831660208201526080604082018190526000906147c8908301846144b7565b90506510d85b98d95b60d21b6060830152949350505050565b8381526001600160a01b038316602082015260806040820181905260009061480b908301846144b7565b90506555706461746560d01b6060830152949350505050565b6040516101c0810167ffffffffffffffff8111828210171561484857614848614a06565b60405290565b604051601f8201601f1916810167ffffffffffffffff8111828210171561487757614877614a06565b604052919050565b600067ffffffffffffffff82111561489957614899614a06565b5060051b60200190565b600082198211156148b6576148b66149c4565b500190565b600060ff821660ff84168060ff038211156148d8576148d86149c4565b019392505050565b600060ff83168061490157634e487b7160e01b600052601260045260246000fd5b8060ff84160491505092915050565b600081600019048311821515161561492a5761492a6149c4565b500290565b600082821015614941576149416149c4565b500390565b60005b83811015614961578181015183820152602001614949565b838111156120e75750506000910152565b600081614981576149816149c4565b506000190190565b600060001982141561499d5761499d6149c4565b5060010190565b600060ff821660ff8114156149bb576149bb6149c4565b60010192915050565b634e487b7160e01b600052601160045260246000fd5b634e487b7160e01b600052603160045260246000fd5b634e487b7160e01b600052603260045260246000fd5b634e487b7160e01b600052604160045260246000fd5b6001600160a01b038116811461296d57600080fd5b801515811461296d57600080fdfef94103142c1baabe9ac2b5d1487bf783de9e69cfeea9a72f5c9c94afd7877b8ca26469706673582212207f092a43be675746078975a5f15af43cc8e77ca2a48fc4fc7380d4bd67b426c264736f6c63430008060033",
  "immutableReferences": {},
  "source": "// SPDX-License-Identifier: MIT\r\n// Market Place\r\npragma solidity ^0.8.0;\r\n\r\nimport './INERC721A.sol';\r\nimport './Struct.sol';\r\nimport './Logger.sol';\r\nimport '@openzeppelin/contracts/access/Ownable.sol';\r\nimport \"@openzeppelin/contracts/access/AccessControl.sol\";\r\n\r\ncontract MarketPlace is Ownable, Struct, AccessControl {\r\n\r\n    bytes32 public constant LISTER_ROLE = keccak256(\"LISTER_ROLE\");\r\n    \r\n    List[] _lists;\r\n\r\n    address addressLoger;\r\n\r\n    constructor(address _addressLoger){\r\n        _grantRole(DEFAULT_ADMIN_ROLE, msg.sender);\r\n        addressLoger = _addressLoger;\r\n    }\r\n\r\n    modifier onlyExistingListing(uint256 _listingId) {\r\n        require(_lists[_listingId].addressContractToken != address(0), \"listing do not exist\");\r\n        _;\r\n    }\r\n\r\n    /**\r\n    French - On vrifie que l'ensemble des pourcentage des bnificaires est infrieur ou gual a 100\r\n    English - We check that the total percentage of beneficiaries is less than or equal to 100\r\n     */\r\n    function checkRoyalties(address[] memory _royaltiesAddr,uint8[] memory _royaltiesPercent) pure internal {\r\n        uint8 percentTotal = 0;\r\n        for (uint256 index = 0; index < _royaltiesAddr.length; index++) {\r\n            percentTotal+=_royaltiesPercent[index];\r\n        }\r\n        require(percentTotal<=100,\"Percentage of royalties is bigger than 100 %\");\r\n    }\r\n\r\n    /**\r\n    French\r\n    1 - On vrifie que la longueur du tableau de prix de token est aussi long que le tableau d'id token\r\n    2 - On vrifie que les deux prcdents tableau sont > 0\r\n    3 - On vrifie que la longueur des tableau d'addresse de royalties et de pourcentages correspondent \r\n    English\r\n    1 - We check that the length of the token price array is as long as the token id array\r\n    2 - We check that the length of the two previous tables are > 0\r\n    3 - We check that the length of the address table of royalties and percentages correspond \r\n    */\r\n    function validList(List memory paramsList) internal view {\r\n        require(/*INERC721A(paramsList.addressContractToken).owner()==msg.sender\r\n        &&\r\n        */paramsList._tokenInAuction.length==paramsList._priceToken.length&&paramsList._tokenInAuction.length>0&&paramsList._priceToken.length>0\r\n        &&\r\n        paramsList._royaltiesAddr.length==paramsList._royaltiesPercent.length,\r\n        \"Incorrect list\");\r\n    }\r\n\r\n    function createList(List memory paramsList) external onlyRole(LISTER_ROLE) returns(uint256) {\r\n        validList(paramsList);\r\n        checkRoyalties(paramsList._royaltiesAddr,paramsList._royaltiesPercent);\r\n        List memory newListing = List({\r\n            lastBidder: Bidder(address(0),0),\r\n            addressContractToken: paramsList.addressContractToken,\r\n            addressMinter: paramsList.addressMinter,\r\n            paused: paramsList.paused,\r\n            _royaltiesAddr: paramsList._royaltiesAddr,\r\n            _royaltiesPercent: paramsList._royaltiesPercent,\r\n            _tokenInAuction: paramsList._tokenInAuction,\r\n            _priceToken: paramsList._priceToken,\r\n            listingId: _lists.length,\r\n            minBid: paramsList.minBid,\r\n            startDate: paramsList.startDate,\r\n            timeAuction: paramsList.timeAuction,\r\n            direct: paramsList.direct,\r\n            tokenType: paramsList.tokenType\r\n        });\r\n        Logger(addressLoger)._Lists(_lists.length,msg.sender, newListing,\"Create\");\r\n        _lists.push(newListing);\r\n        return _lists.length-1;\r\n    }\r\n\r\n    function updateList(List memory paramsList) external onlyRole(LISTER_ROLE) returns(List memory) {\r\n        validList(paramsList);\r\n        checkRoyalties(paramsList._royaltiesAddr,paramsList._royaltiesPercent);\r\n\r\n        if (_lists[paramsList.listingId].direct == false) {\r\n            require(block.timestamp < _lists[paramsList.listingId].startDate || _lists[paramsList.listingId].startDate == 0, \"Auction already started.\");\r\n        }\r\n\r\n        _lists[paramsList.listingId] = List({\r\n            lastBidder: _lists[paramsList.listingId].lastBidder,\r\n            addressContractToken: paramsList.addressContractToken,\r\n            addressMinter: paramsList.addressMinter,\r\n            paused: paramsList.paused,\r\n            _royaltiesAddr: paramsList._royaltiesAddr,\r\n            _royaltiesPercent: paramsList._royaltiesPercent,\r\n            _tokenInAuction: paramsList._tokenInAuction,\r\n            _priceToken: paramsList._priceToken,\r\n            listingId: paramsList.listingId,\r\n            minBid: paramsList.minBid,\r\n            startDate: paramsList.startDate,\r\n            timeAuction: paramsList.timeAuction,\r\n            direct: paramsList.direct,\r\n            tokenType: paramsList.tokenType\r\n        });\r\n        Logger(addressLoger)._Lists(paramsList.listingId,msg.sender, _lists[paramsList.listingId],\"Update\");\r\n        return _lists[paramsList.listingId];\r\n    }\r\n\r\n    ///@dev delete element from array and keep order\r\n    function popToken(uint256 _listingId, uint256 tokenNumber) internal {\r\n        for (uint i = tokenNumber; i < _lists[_listingId]._tokenInAuction.length - 1; i++) {\r\n            _lists[_listingId]._tokenInAuction[i] = _lists[_listingId]._tokenInAuction[i+1];\r\n            _lists[_listingId]._priceToken[i] = _lists[_listingId]._priceToken[i+1];\r\n        }\r\n        _lists[_listingId]._tokenInAuction.pop();\r\n        _lists[_listingId]._priceToken.pop();\r\n    }\r\n    \r\n    /**\r\n    French\r\n    1 - vrifie que l'ont a envoy autant ou plus d'eth que le prix du token dans la list\r\n    2 - vrifie que le token id correspond a l'lement de la cl \"tokenNumber\"\r\n    3 - suppression du token dans tout les cas car mme si il n'xiste pas il doit tre supprim\r\n    4 - si lazy mint, on vrifie qu'il existe avant de le mint sinon require, donc rembourss\r\n    5 - si batch mint on vrifie que l'addressminter possde toujours le tokensinon require, donc rembourss, sinon on transfert vers l'acheteur\r\n    6 - si le tableau de token est vide, on supprime la list (optimisation)\r\n    English\r\n    1 - check that we have sent as much or more eth than the price of the token in the list\r\n    2 - check that the token id matches the element of the key \"tokenNumber\"\r\n    3 - deletion of the token in any case because even if it does not exist it must be deleted\r\n    4 - if lazy mint, we check that it exists before minting it otherwise require, so refunded\r\n    5 - if batch mint we check that the addressminter still has the tokensinon require, so refunded, otherwise we transfer to the buyer\r\n    6 - if the token array is empty, we delete the list (optimization)\r\n     */\r\n    function buy(uint256 _listingId, uint256 tokenNumber, uint256 tokenId) external payable onlyExistingListing(_listingId) {\r\n        require(msg.value >= _lists[_listingId]._priceToken[tokenNumber],\"Not enought money sended\");\r\n        require(_lists[_listingId]._tokenInAuction[tokenNumber] == tokenId,\"Not good id token\");\r\n        \r\n        INERC721A contractToken = INERC721A(_lists[_listingId].addressContractToken);\r\n        \r\n        popToken(_listingId, tokenNumber);\r\n\r\n        if(contractToken.getLazyMint()==true){\r\n            require(contractToken.exists(tokenId) == true,\"Token already minted\");\r\n            contractToken.lazyMint(1,msg.sender,tokenId);\r\n        }else{\r\n            require(_lists[_listingId].addressMinter == contractToken.ownerOf(tokenId),\"Token not owned by minter address\");\r\n            contractToken.safeTransferFrom(_lists[_listingId].addressMinter, msg.sender, tokenId, \"\");\r\n        }\r\n        \r\n        payRoyalties(_listingId,msg.value);\r\n        Logger(addressLoger)._Buy(msg.sender,msg.value,tokenId,_listingId);\r\n        if(_lists[_listingId]._tokenInAuction.length<=0){\r\n            Logger(addressLoger)._Lists(_listingId,msg.sender, _lists[_listingId],\"All selled\");\r\n            deleteList(_listingId);\r\n        } \r\n    }\r\n\r\n    /**\r\n    French - Annule une liste seulement avant qu'elle soit dmarer ou si c'est une vente direct\r\n    English - Cancel a listing only before it is started or if it is a direct sale\r\n    */\r\n    function cancelList(uint256 _listingId) external onlyRole(LISTER_ROLE) {\r\n        require(block.timestamp < _lists[_listingId].startDate || _lists[_listingId].startDate == 0 || _lists[_listingId].direct == true, \"Auction already started.\");\r\n        Logger(addressLoger)._Lists(_listingId,msg.sender, _lists[_listingId],\"Cancel\");\r\n        deleteList(_listingId);\r\n    }\r\n\r\n    /**\r\n    French - Supprime une liste a la fin d'une enchre, aprs avoir vendu tout les tokens d'une vente direct, ou bien a l'annulation d'une list tout en gardant l'ordre des lists\r\n    English - Delete a list at the end of an auction, after having sold all the tokens of a direct sale, or at the cancellation of a list while keeping the order of the lists\r\n    */\r\n    function deleteList(uint256 _listingId) internal {\r\n        for (uint i = _listingId; i < _lists.length - 1; i++) {\r\n            _lists[i] = _lists[i+1];\r\n        }\r\n        _lists.pop();\r\n    }\r\n\r\n    /**\r\n    French - Rcupre un objet d'une List contenu sur le market place contract\r\n    English - Retrieve an object from a List contained in the market place contract\r\n    */\r\n    function getList(uint256 _listingId) external view returns (List memory){\r\n        return _lists[_listingId];\r\n    }\r\n\r\n    /**\r\n    French - Rcupre un tableau d'objets des List contenu sur le market place contract\r\n    English - Get an array of List objects contained in the market place contract\r\n    */\r\n    function getLists() external view returns (List[] memory){\r\n        List[] memory result = new List[](_lists.length);\r\n        for(uint256 i = 0; i < _lists.length; i++){\r\n            List storage _list = _lists[i];\r\n            result[i] = _list;\r\n        }\r\n        return result;\r\n    }\r\n\r\n    /**\r\n    French - Boucle sur le tableau de token de la list et envoi chacun des tokens vers la _to addresse\r\n    English - Loop over the token array of the list and send each token to the _to address\r\n     */\r\n    function transferListingTokens(address _from, address _to, List memory _listing ) internal {\r\n        if (_listing.tokenType == 1) {\r\n            //INERC1155(_listing.assetContract).safeTransferFrom(_from, _to, _listing.tokenId, _quantity);\r\n        } else if (_listing.tokenType == 2) {\r\n            IERC721 contractToken = IERC721(_listing.addressContractToken);\r\n            for (uint256 index = 0; index < _listing._tokenInAuction.length; index++) {\r\n                contractToken.safeTransferFrom(_from, _to, _listing._tokenInAuction[index], \"\");\r\n            }\r\n        }\r\n    }\r\n\r\n    /*function getTokenInAuction() external view returns(INERC721A.Token) {\r\n        return _lists[i]._tokenInAuction;\r\n    }*/\r\n\r\n    /**\r\n    French\r\n    1 - Vrifier que l'enchrisseur a envoy plus d'ETH que la demande inital ou que le dernier enchrisseur\r\n    2 - Crifier que l'enchre  dmarrer et n'est pas fini\r\n    3 - Rembourss le prcendent cherisseur de sa mise\r\n    4 - Enregistr l'addresse et la value du nouvelle enchrisseur\r\n    English\r\n    1 - Verify that the bidder has sent more ETH than the initial and the last bidder\r\n    2 - Check that the auction has started and is not yet finished\r\n    3 - Refound previous bidder\r\n    4 - Save address and value from new bidder\r\n     */\r\n    function bidding(uint256 _listingId) payable external {\r\n        require(msg.value>_lists[_listingId].minBid&&msg.value>_lists[_listingId].lastBidder.bid,\"Require more ETH for bidding\");\r\n        require(_lists[_listingId].startDate!=0&&block.timestamp>_lists[_listingId].startDate,\"Auction not started\");\r\n        require(block.timestamp<(_lists[_listingId].startDate+_lists[_listingId].timeAuction),\"Auction is finished\");\r\n        //refunded previous bidder\r\n        payable(_lists[_listingId].lastBidder.addressBidder).transfer(_lists[_listingId].lastBidder.bid);\r\n        _lists[_listingId].lastBidder = Bidder(msg.sender,msg.value);\r\n        Logger(addressLoger)._Bidders(msg.sender,msg.value,_listingId);\r\n    }\r\n\r\n    /**\r\n    French\r\n    1 - On vrifie bien que la liste n'est pas fini et que c'est une enchre\r\n    2 - Si c'est un lazy mint on vrifie que les tokens ne sont pas dja crer puis on lazy mint ces tokens\r\n    3 - Si c'est un batch mint on vrifie que tous les tokens appartiennent encore a l'addressminter puis on les transfer\r\n    4 - Ensuite en cas d'echec on rembourse le gagnant, et en cas de russite on envoi les fonds vers les bnificaires\r\n    5 - Et ont dtruit la list du tableau des lists pour gagner en optimisation\r\n    English\r\n    1 - We check that the list is not finished and that it is an auction\r\n    2 - If it is a lazy mint we check that the tokens are not already created then we lazy mint these tokens\r\n    3 - If it is a batch mint we check that all the tokens still belong to the addressminter then we transfer them\r\n    4 - Then in case of failure, the winner is reimbursed, and in case of success, the funds are sent to the beneficiaries\r\n    5 - And destroyed the list of the list table to gain optimization\r\n     */\r\n    function endAuction(uint256 _listingId) external onlyRole(LISTER_ROLE) {\r\n        require(block.timestamp>=(_lists[_listingId].startDate+_lists[_listingId].timeAuction),\"List is not finished\");\r\n        require(_lists[_listingId].direct == false,\"List is not auction\");\r\n        bool tokenNotValid;\r\n        INERC721A contractToken = INERC721A(_lists[_listingId].addressContractToken);\r\n        if( contractToken.getLazyMint()==false){\r\n            for (uint256 index = 0; index < _lists[_listingId]._tokenInAuction.length; index++) {\r\n                if(_lists[_listingId].addressMinter != contractToken.ownerOf(_lists[_listingId]._tokenInAuction[index])) tokenNotValid = true;\r\n            }\r\n            if(tokenNotValid==false) transferListingTokens(_lists[_listingId].addressMinter,_lists[_listingId].lastBidder.addressBidder,_lists[_listingId]);\r\n        }else{\r\n            for (uint256 index = 0; index < _lists[_listingId]._tokenInAuction.length; index++) {\r\n                if(contractToken.exists(_lists[_listingId]._tokenInAuction[index]) == true) tokenNotValid = true;\r\n            }\r\n            if(tokenNotValid==false){\r\n                for (uint256 index = 0; index < _lists[_listingId]._tokenInAuction.length; index++) {\r\n                    contractToken.lazyMint(1,msg.sender,_lists[_listingId]._tokenInAuction[index]);\r\n                }\r\n            }\r\n            \r\n        }\r\n        if(tokenNotValid==true){\r\n            //Logger(addressLoger).Errors(_listingId,msg.sender, _lists[_listingId],\"Token not exist on this address\");\r\n            payable(_lists[_listingId].lastBidder.addressBidder).transfer(_lists[_listingId].lastBidder.bid);\r\n        }else{\r\n            Logger(addressLoger)._Lists(_listingId,msg.sender, _lists[_listingId],\"Ended\");\r\n            payRoyalties(_listingId,_lists[_listingId].lastBidder.bid);\r\n        }\r\n        deleteList(_listingId);\r\n    }\r\n\r\n    /**\r\n    French\r\n    1 - Boucle sur les adresses des bnficiaires\r\n    2 - Calcul la valeur que l'ont va donn a chaque bnificiaire par rapport aux prix du last bidder et le % que le bnificaires doit rcupr\r\n    3 - Envoi les fonds vers l'addresse du bnificiaire si sont address n'est pas gal a 0\r\n    English\r\n    1 - Loop on beneficiary addresses\r\n    2 - Calculate the value that will be given to each beneficiary in relation to the prices of the last bidder and the % that the beneficiary must recover\r\n    3 - Sends the funds to the beneficiary's address if the address is not equal to 0\r\n    */\r\n    function payRoyalties(uint256 _listingId, uint256 amount) internal {\r\n        for (uint8 iRoyalties = 0; iRoyalties < _lists[_listingId]._royaltiesAddr.length; iRoyalties++) {\r\n            uint256 pay = amount*(_lists[_listingId]._royaltiesPercent[iRoyalties]/100);\r\n            if(_lists[_listingId]._royaltiesAddr[iRoyalties] != address(0)){\r\n                payable(_lists[_listingId]._royaltiesAddr[iRoyalties]).transfer(pay);\r\n                Logger(addressLoger)._Paiement(_listingId,_lists[_listingId]._royaltiesAddr[iRoyalties],pay);\r\n            }\r\n        }\r\n    }\r\n\r\n    /**\r\n    Temporarily lock the contract\r\n     */\r\n    /*function pause(uint256 a, bool _state) external onlyOwner {\r\n        _lists[i].paused = _state;\r\n    }*/\r\n\r\n    /*function getArrayTest(uint256 _listingId) external view returns (uint256[] memory){\r\n        return _lists[_listingId]._priceToken;\r\n    }\r\n\r\n    function getListsTest() external view returns (List[] memory){\r\n        return _lists;\r\n    }*/\r\n\r\n}\r\n\r\n",
  "sourcePath": "C:\\Users\\KevinDell'ova\\Desktop\\Inverse contracts\\contracts\\MarketPlace.sol",
  "compiler": {
    "name": "solc",
    "version": "0.8.6+commit.11564f7e.Emscripten.clang"
  },
  "schemaVersion": "3.4.4",
  "updatedAt": "2022-03-19T11:02:59.661Z",
  "networkType": "ethereum",
  "devdoc": {
    "kind": "dev",
    "methods": {
      "getRoleAdmin(bytes32)": {
        "details": "Returns the admin role that controls `role`. See {grantRole} and {revokeRole}. To change a role's admin, use {_setRoleAdmin}."
      },
      "grantRole(bytes32,address)": {
        "details": "Grants `role` to `account`. If `account` had not been already granted `role`, emits a {RoleGranted} event. Requirements: - the caller must have ``role``'s admin role."
      },
      "hasRole(bytes32,address)": {
        "details": "Returns `true` if `account` has been granted `role`."
      },
      "owner()": {
        "details": "Returns the address of the current owner."
      },
      "renounceOwnership()": {
        "details": "Leaves the contract without owner. It will not be possible to call `onlyOwner` functions anymore. Can only be called by the current owner. NOTE: Renouncing ownership will leave the contract without an owner, thereby removing any functionality that is only available to the owner."
      },
      "renounceRole(bytes32,address)": {
        "details": "Revokes `role` from the calling account. Roles are often managed via {grantRole} and {revokeRole}: this function's purpose is to provide a mechanism for accounts to lose their privileges if they are compromised (such as when a trusted device is misplaced). If the calling account had been revoked `role`, emits a {RoleRevoked} event. Requirements: - the caller must be `account`."
      },
      "revokeRole(bytes32,address)": {
        "details": "Revokes `role` from `account`. If `account` had been granted `role`, emits a {RoleRevoked} event. Requirements: - the caller must have ``role``'s admin role."
      },
      "supportsInterface(bytes4)": {
        "details": "See {IERC165-supportsInterface}."
      },
      "transferOwnership(address)": {
        "details": "Transfers ownership of the contract to a new account (`newOwner`). Can only be called by the current owner."
      }
    },
    "version": 1
  },
  "userdoc": {
    "kind": "user",
    "methods": {
      "bidding(uint256)": {
        "notice": "French 1 - Vrifier que l'enchrisseur a envoy plus d'ETH que la demande inital ou que le dernier enchrisseur 2 - Crifier que l'enchre  dmarrer et n'est pas fini 3 - Rembourss le prcendent cherisseur de sa mise 4 - Enregistr l'addresse et la value du nouvelle enchrisseur English 1 - Verify that the bidder has sent more ETH than the initial and the last bidder 2 - Check that the auction has started and is not yet finished 3 - Refound previous bidder 4 - Save address and value from new bidder"
      },
      "buy(uint256,uint256,uint256)": {
        "notice": "French 1 - vrifie que l'ont a envoy autant ou plus d'eth que le prix du token dans la list 2 - vrifie que le token id correspond a l'lement de la cl \"tokenNumber\" 3 - suppression du token dans tout les cas car mme si il n'xiste pas il doit tre supprim 4 - si lazy mint, on vrifie qu'il existe avant de le mint sinon require, donc rembourss 5 - si batch mint on vrifie que l'addressminter possde toujours le tokensinon require, donc rembourss, sinon on transfert vers l'acheteur 6 - si le tableau de token est vide, on supprime la list (optimisation) English 1 - check that we have sent as much or more eth than the price of the token in the list 2 - check that the token id matches the element of the key \"tokenNumber\" 3 - deletion of the token in any case because even if it does not exist it must be deleted 4 - if lazy mint, we check that it exists before minting it otherwise require, so refunded 5 - if batch mint we check that the addressminter still has the tokensinon require, so refunded, otherwise we transfer to the buyer 6 - if the token array is empty, we delete the list (optimization)"
      },
      "cancelList(uint256)": {
        "notice": "French - Annule une liste seulement avant qu'elle soit dmarer ou si c'est une vente direct English - Cancel a listing only before it is started or if it is a direct sale"
      },
      "endAuction(uint256)": {
        "notice": "French 1 - On vrifie bien que la liste n'est pas fini et que c'est une enchre 2 - Si c'est un lazy mint on vrifie que les tokens ne sont pas dja crer puis on lazy mint ces tokens 3 - Si c'est un batch mint on vrifie que tous les tokens appartiennent encore a l'addressminter puis on les transfer 4 - Ensuite en cas d'echec on rembourse le gagnant, et en cas de russite on envoi les fonds vers les bnificaires 5 - Et ont dtruit la list du tableau des lists pour gagner en optimisation English 1 - We check that the list is not finished and that it is an auction 2 - If it is a lazy mint we check that the tokens are not already created then we lazy mint these tokens 3 - If it is a batch mint we check that all the tokens still belong to the addressminter then we transfer them 4 - Then in case of failure, the winner is reimbursed, and in case of success, the funds are sent to the beneficiaries 5 - And destroyed the list of the list table to gain optimization"
      },
      "getList(uint256)": {
        "notice": "French - Rcupre un objet d'une List contenu sur le market place contract English - Retrieve an object from a List contained in the market place contract"
      },
      "getLists()": {
        "notice": "French - Rcupre un tableau d'objets des List contenu sur le market place contract English - Get an array of List objects contained in the market place contract"
      }
    },
    "version": 1
  }
}