{
  "contractName": "TokenContract",
  "abi": [
    {
      "inputs": [
        {
          "internalType": "string",
          "name": "name",
          "type": "string"
        },
        {
          "internalType": "string",
          "name": "symbol",
          "type": "string"
        },
        {
          "internalType": "string",
          "name": "_initBaseURI",
          "type": "string"
        }
      ],
      "stateMutability": "nonpayable",
      "type": "constructor"
    },
    {
      "anonymous": false,
      "inputs": [
        {
          "indexed": true,
          "internalType": "address",
          "name": "owner",
          "type": "address"
        },
        {
          "indexed": true,
          "internalType": "address",
          "name": "approved",
          "type": "address"
        },
        {
          "indexed": true,
          "internalType": "uint256",
          "name": "tokenId",
          "type": "uint256"
        }
      ],
      "name": "Approval",
      "type": "event"
    },
    {
      "anonymous": false,
      "inputs": [
        {
          "indexed": true,
          "internalType": "address",
          "name": "owner",
          "type": "address"
        },
        {
          "indexed": true,
          "internalType": "address",
          "name": "operator",
          "type": "address"
        },
        {
          "indexed": false,
          "internalType": "bool",
          "name": "approved",
          "type": "bool"
        }
      ],
      "name": "ApprovalForAll",
      "type": "event"
    },
    {
      "anonymous": false,
      "inputs": [
        {
          "indexed": true,
          "internalType": "address",
          "name": "previousOwner",
          "type": "address"
        },
        {
          "indexed": true,
          "internalType": "address",
          "name": "newOwner",
          "type": "address"
        }
      ],
      "name": "OwnershipTransferred",
      "type": "event"
    },
    {
      "anonymous": false,
      "inputs": [
        {
          "indexed": true,
          "internalType": "address",
          "name": "from",
          "type": "address"
        },
        {
          "indexed": true,
          "internalType": "address",
          "name": "to",
          "type": "address"
        },
        {
          "indexed": true,
          "internalType": "uint256",
          "name": "tokenId",
          "type": "uint256"
        }
      ],
      "name": "Transfer",
      "type": "event"
    },
    {
      "inputs": [
        {
          "internalType": "address",
          "name": "to",
          "type": "address"
        },
        {
          "internalType": "uint256",
          "name": "tokenId",
          "type": "uint256"
        }
      ],
      "name": "approve",
      "outputs": [],
      "stateMutability": "nonpayable",
      "type": "function"
    },
    {
      "inputs": [
        {
          "internalType": "address",
          "name": "owner",
          "type": "address"
        }
      ],
      "name": "balanceOf",
      "outputs": [
        {
          "internalType": "uint256",
          "name": "",
          "type": "uint256"
        }
      ],
      "stateMutability": "view",
      "type": "function"
    },
    {
      "inputs": [],
      "name": "baseExtension",
      "outputs": [
        {
          "internalType": "string",
          "name": "",
          "type": "string"
        }
      ],
      "stateMutability": "view",
      "type": "function"
    },
    {
      "inputs": [],
      "name": "baseURI",
      "outputs": [
        {
          "internalType": "string",
          "name": "",
          "type": "string"
        }
      ],
      "stateMutability": "view",
      "type": "function"
    },
    {
      "inputs": [
        {
          "internalType": "uint256",
          "name": "tokenId",
          "type": "uint256"
        }
      ],
      "name": "getApproved",
      "outputs": [
        {
          "internalType": "address",
          "name": "",
          "type": "address"
        }
      ],
      "stateMutability": "view",
      "type": "function"
    },
    {
      "inputs": [
        {
          "internalType": "address",
          "name": "owner",
          "type": "address"
        },
        {
          "internalType": "address",
          "name": "operator",
          "type": "address"
        }
      ],
      "name": "isApprovedForAll",
      "outputs": [
        {
          "internalType": "bool",
          "name": "",
          "type": "bool"
        }
      ],
      "stateMutability": "view",
      "type": "function"
    },
    {
      "inputs": [],
      "name": "name",
      "outputs": [
        {
          "internalType": "string",
          "name": "",
          "type": "string"
        }
      ],
      "stateMutability": "view",
      "type": "function"
    },
    {
      "inputs": [],
      "name": "owner",
      "outputs": [
        {
          "internalType": "address",
          "name": "",
          "type": "address"
        }
      ],
      "stateMutability": "view",
      "type": "function"
    },
    {
      "inputs": [
        {
          "internalType": "uint256",
          "name": "tokenId",
          "type": "uint256"
        }
      ],
      "name": "ownerOf",
      "outputs": [
        {
          "internalType": "address",
          "name": "",
          "type": "address"
        }
      ],
      "stateMutability": "view",
      "type": "function"
    },
    {
      "inputs": [],
      "name": "renounceOwnership",
      "outputs": [],
      "stateMutability": "nonpayable",
      "type": "function"
    },
    {
      "inputs": [
        {
          "internalType": "address",
          "name": "from",
          "type": "address"
        },
        {
          "internalType": "address",
          "name": "to",
          "type": "address"
        },
        {
          "internalType": "uint256",
          "name": "tokenId",
          "type": "uint256"
        }
      ],
      "name": "safeTransferFrom",
      "outputs": [],
      "stateMutability": "nonpayable",
      "type": "function"
    },
    {
      "inputs": [
        {
          "internalType": "address",
          "name": "from",
          "type": "address"
        },
        {
          "internalType": "address",
          "name": "to",
          "type": "address"
        },
        {
          "internalType": "uint256",
          "name": "tokenId",
          "type": "uint256"
        },
        {
          "internalType": "bytes",
          "name": "_data",
          "type": "bytes"
        }
      ],
      "name": "safeTransferFrom",
      "outputs": [],
      "stateMutability": "nonpayable",
      "type": "function"
    },
    {
      "inputs": [
        {
          "internalType": "address",
          "name": "operator",
          "type": "address"
        },
        {
          "internalType": "bool",
          "name": "approved",
          "type": "bool"
        }
      ],
      "name": "setApprovalForAll",
      "outputs": [],
      "stateMutability": "nonpayable",
      "type": "function"
    },
    {
      "inputs": [
        {
          "internalType": "bytes4",
          "name": "interfaceId",
          "type": "bytes4"
        }
      ],
      "name": "supportsInterface",
      "outputs": [
        {
          "internalType": "bool",
          "name": "",
          "type": "bool"
        }
      ],
      "stateMutability": "view",
      "type": "function"
    },
    {
      "inputs": [],
      "name": "symbol",
      "outputs": [
        {
          "internalType": "string",
          "name": "",
          "type": "string"
        }
      ],
      "stateMutability": "view",
      "type": "function"
    },
    {
      "inputs": [
        {
          "internalType": "uint256",
          "name": "tokenId",
          "type": "uint256"
        }
      ],
      "name": "tokenURI",
      "outputs": [
        {
          "internalType": "string",
          "name": "",
          "type": "string"
        }
      ],
      "stateMutability": "view",
      "type": "function"
    },
    {
      "inputs": [
        {
          "internalType": "address",
          "name": "from",
          "type": "address"
        },
        {
          "internalType": "address",
          "name": "to",
          "type": "address"
        },
        {
          "internalType": "uint256",
          "name": "tokenId",
          "type": "uint256"
        }
      ],
      "name": "transferFrom",
      "outputs": [],
      "stateMutability": "nonpayable",
      "type": "function"
    },
    {
      "inputs": [
        {
          "internalType": "address",
          "name": "newOwner",
          "type": "address"
        }
      ],
      "name": "transferOwnership",
      "outputs": [],
      "stateMutability": "nonpayable",
      "type": "function"
    },
    {
      "inputs": [
        {
          "internalType": "string",
          "name": "_newBaseURI",
          "type": "string"
        }
      ],
      "name": "setBaseURI",
      "outputs": [],
      "stateMutability": "nonpayable",
      "type": "function"
    },
    {
      "inputs": [
        {
          "internalType": "bool",
          "name": "_state",
          "type": "bool"
        }
      ],
      "name": "pause",
      "outputs": [],
      "stateMutability": "nonpayable",
      "type": "function"
    },
    {
      "inputs": [
        {
          "internalType": "address",
          "name": "sender",
          "type": "address"
        },
        {
          "internalType": "string",
          "name": "uri",
          "type": "string"
        },
        {
          "internalType": "uint8[]",
          "name": "params8",
          "type": "uint8[]"
        },
        {
          "internalType": "uint256[]",
          "name": "params256",
          "type": "uint256[]"
        }
      ],
      "name": "mint",
      "outputs": [],
      "stateMutability": "nonpayable",
      "type": "function"
    },
    {
      "inputs": [
        {
          "internalType": "address",
          "name": "from",
          "type": "address"
        },
        {
          "internalType": "address",
          "name": "to",
          "type": "address"
        },
        {
          "internalType": "uint256",
          "name": "tokenId",
          "type": "uint256"
        }
      ],
      "name": "transfer",
      "outputs": [],
      "stateMutability": "nonpayable",
      "type": "function"
    },
    {
      "inputs": [
        {
          "internalType": "string",
          "name": "keyParams",
          "type": "string"
        },
        {
          "internalType": "uint256",
          "name": "valueParams",
          "type": "uint256"
        }
      ],
      "name": "setParamsContract",
      "outputs": [],
      "stateMutability": "nonpayable",
      "type": "function"
    },
    {
      "inputs": [
        {
          "internalType": "string",
          "name": "keyParams",
          "type": "string"
        }
      ],
      "name": "getParamsContract",
      "outputs": [
        {
          "internalType": "uint256",
          "name": "",
          "type": "uint256"
        }
      ],
      "stateMutability": "view",
      "type": "function"
    },
    {
      "inputs": [
        {
          "internalType": "address",
          "name": "_adress",
          "type": "address"
        }
      ],
      "name": "setAdressDelegateContract",
      "outputs": [],
      "stateMutability": "nonpayable",
      "type": "function"
    },
    {
      "inputs": [],
      "name": "getAdressDelegateContract",
      "outputs": [
        {
          "internalType": "address",
          "name": "",
          "type": "address"
        }
      ],
      "stateMutability": "view",
      "type": "function"
    },
    {
      "inputs": [
        {
          "internalType": "uint256",
          "name": "tokenId",
          "type": "uint256"
        }
      ],
      "name": "getTokenDetails",
      "outputs": [
        {
          "components": [
            {
              "internalType": "address",
              "name": "addrOwner",
              "type": "address"
            },
            {
              "internalType": "string",
              "name": "uri",
              "type": "string"
            },
            {
              "internalType": "uint8[]",
              "name": "params8",
              "type": "uint8[]"
            },
            {
              "internalType": "uint256[]",
              "name": "params256",
              "type": "uint256[]"
            }
          ],
          "internalType": "struct TokenContract.Token",
          "name": "",
          "type": "tuple"
        }
      ],
      "stateMutability": "view",
      "type": "function"
    },
    {
      "inputs": [],
      "name": "getAllToken",
      "outputs": [
        {
          "components": [
            {
              "internalType": "address",
              "name": "addrOwner",
              "type": "address"
            },
            {
              "internalType": "string",
              "name": "uri",
              "type": "string"
            },
            {
              "internalType": "uint8[]",
              "name": "params8",
              "type": "uint8[]"
            },
            {
              "internalType": "uint256[]",
              "name": "params256",
              "type": "uint256[]"
            }
          ],
          "internalType": "struct TokenContract.Token[]",
          "name": "",
          "type": "tuple[]"
        }
      ],
      "stateMutability": "view",
      "type": "function"
    },
    {
      "inputs": [
        {
          "internalType": "uint256",
          "name": "tokenId",
          "type": "uint256"
        }
      ],
      "name": "getOwnerOf",
      "outputs": [
        {
          "internalType": "address",
          "name": "",
          "type": "address"
        }
      ],
      "stateMutability": "view",
      "type": "function"
    },
    {
      "inputs": [
        {
          "components": [
            {
              "internalType": "address",
              "name": "addrOwner",
              "type": "address"
            },
            {
              "internalType": "string",
              "name": "uri",
              "type": "string"
            },
            {
              "internalType": "uint8[]",
              "name": "params8",
              "type": "uint8[]"
            },
            {
              "internalType": "uint256[]",
              "name": "params256",
              "type": "uint256[]"
            }
          ],
          "internalType": "struct TokenContract.Token",
          "name": "_token",
          "type": "tuple"
        },
        {
          "internalType": "uint256",
          "name": "tokenId",
          "type": "uint256"
        },
        {
          "internalType": "address",
          "name": "owner",
          "type": "address"
        }
      ],
      "name": "updateToken",
      "outputs": [],
      "stateMutability": "nonpayable",
      "type": "function"
    },
    {
      "inputs": [
        {
          "internalType": "uint256",
          "name": "tokenId",
          "type": "uint256"
        }
      ],
      "name": "burn",
      "outputs": [],
      "stateMutability": "nonpayable",
      "type": "function"
    }
  ],
  "bytecode": "0x60c06040526005608081905264173539b7b760d91b60a09081526200002891600c919062000191565b50600d805460ff191690553480156200004057600080fd5b5060405162002e5738038062002e578339810160408190526200006391620002ee565b8251839083906200007c90600090602085019062000191565b5080516200009290600190602084019062000191565b505050620000af620000a9620000c360201b60201c565b620000c7565b620000ba8162000119565b505050620003d2565b3390565b600780546001600160a01b038381166001600160a01b0319831681179093556040519116919082907f8be0079c531659141344cd1fd0a4f28419497f9722a3daafe3b4186f6b6457e090600090a35050565b6007546001600160a01b03163314620001785760405162461bcd60e51b815260206004820181905260248201527f4f776e61626c653a2063616c6c6572206973206e6f7420746865206f776e6572604482015260640160405180910390fd5b80516200018d90600b90602084019062000191565b5050565b8280546200019f906200037f565b90600052602060002090601f016020900481019282620001c357600085556200020e565b82601f10620001de57805160ff19168380011785556200020e565b828001600101855582156200020e579182015b828111156200020e578251825591602001919060010190620001f1565b506200021c92915062000220565b5090565b5b808211156200021c576000815560010162000221565b600082601f8301126200024957600080fd5b81516001600160401b0380821115620002665762000266620003bc565b604051601f8301601f19908116603f01168101908282118183101715620002915762000291620003bc565b81604052838152602092508683858801011115620002ae57600080fd5b600091505b83821015620002d25785820183015181830184015290820190620002b3565b83821115620002e45760008385830101525b9695505050505050565b6000806000606084860312156200030457600080fd5b83516001600160401b03808211156200031c57600080fd5b6200032a8783880162000237565b945060208601519150808211156200034157600080fd5b6200034f8783880162000237565b935060408601519150808211156200036657600080fd5b50620003758682870162000237565b9150509250925092565b600181811c908216806200039457607f821691505b60208210811415620003b657634e487b7160e01b600052602260045260246000fd5b50919050565b634e487b7160e01b600052604160045260246000fd5b612a7580620003e26000396000f3fe608060405234801561001057600080fd5b50600436106101e55760003560e01c8063836387101161010f578063c6682862116100a2578063db7e9f1011610071578063db7e9f101461040e578063e985e9c514610421578063f26bf0b71461045d578063f2fde38b1461047057600080fd5b8063c6682862146103ca578063c87b56dd146103d2578063c8fe5344146103e5578063cc372734146103fb57600080fd5b8063a22cb465116100de578063a22cb46514610371578063b88d4fde14610384578063beabacc814610397578063c1e03728146103aa57600080fd5b8063836387101461033057806385e3c1d4146103435780638da5cb5b1461035857806395d89b411461036957600080fd5b806342842e0e116101875780636352211e116101565780636352211e146102ec5780636c0360eb146102ff57806370a0823114610307578063715018a61461032857600080fd5b806342842e0e146102a057806342966c68146102b357806348972034146102c657806355f804b3146102d957600080fd5b8063081812fc116101c3578063081812fc1461023c578063095ea7b31461026757806323b872dd1461027a5780633cb119441461028d57600080fd5b806301ffc9a7146101ea57806302329a291461021257806306fdde0314610227575b600080fd5b6101fd6101f83660046123b2565b610483565b60405190151581526020015b60405180910390f35b610225610220366004612397565b6104d5565b005b61022f61051b565b6040516102099190612740565b61024f61024a366004612546565b6105ad565b6040516001600160a01b039091168152602001610209565b61022561027536600461236d565b610635565b6102256102883660046121fe565b61074b565b61022561029b366004612421565b61077c565b6102256102ae3660046121fe565b6107cb565b6102256102c1366004612546565b6107e6565b6102256102d43660046121b0565b610849565b6102256102e73660046123ec565b61089b565b61024f6102fa366004612546565b6108dc565b61022f610953565b61031a6103153660046121b0565b6109e1565b604051908152602001610209565b610225610a68565b61024f61033e366004612546565b610a9e565b61034b610aa9565b60405161020991906126de565b6007546001600160a01b031661024f565b61022f610d0b565b61022561037f3660046122b6565b610d1a565b61022561039236600461223a565b610d25565b6102256103a53660046121fe565b610d5d565b6103bd6103b8366004612546565b610dcf565b604051610209919061286d565b61022f610f96565b61022f6103e0366004612546565b610fa3565b600d5461010090046001600160a01b031661024f565b6102256104093660046122e0565b61110d565b61022561041c366004612466565b611250565b6101fd61042f3660046121cb565b6001600160a01b03918216600090815260056020908152604080832093909416825291909152205460ff1690565b61031a61046b3660046123ec565b611387565b61022561047e3660046121b0565b6113af565b60006001600160e01b031982166380ac58cd60e01b14806104b457506001600160e01b03198216635b5e139f60e01b145b806104cf57506301ffc9a760e01b6001600160e01b03198316145b92915050565b6007546001600160a01b031633146105085760405162461bcd60e51b81526004016104ff906127e7565b60405180910390fd5b600d805460ff1916911515919091179055565b60606000805461052a9061296d565b80601f01602080910402602001604051908101604052809291908181526020018280546105569061296d565b80156105a35780601f10610578576101008083540402835291602001916105a3565b820191906000526020600020905b81548152906001019060200180831161058657829003601f168201915b5050505050905090565b60006105b882611447565b6106195760405162461bcd60e51b815260206004820152602c60248201527f4552433732313a20617070726f76656420717565727920666f72206e6f6e657860448201526b34b9ba32b73a103a37b5b2b760a11b60648201526084016104ff565b506000908152600460205260409020546001600160a01b031690565b6000610640826108dc565b9050806001600160a01b0316836001600160a01b031614156106ae5760405162461bcd60e51b815260206004820152602160248201527f4552433732313a20617070726f76616c20746f2063757272656e74206f776e656044820152603960f91b60648201526084016104ff565b336001600160a01b03821614806106ca57506106ca813361042f565b61073c5760405162461bcd60e51b815260206004820152603860248201527f4552433732313a20617070726f76652063616c6c6572206973206e6f74206f7760448201527f6e6572206e6f7220617070726f76656420666f7220616c6c000000000000000060648201526084016104ff565b6107468383611464565b505050565b61075533826114d2565b6107715760405162461bcd60e51b81526004016104ff9061281c565b6107468383836115b8565b6007546001600160a01b031633146107a65760405162461bcd60e51b81526004016104ff906127e7565b806009836040516107b79190612656565b908152604051908190036020019020555050565b61074683838360405180602001604052806000815250610d25565b600d5461010090046001600160a01b03163314806108125750600d5461010090046001600160a01b0316155b80156108215750600d5460ff16155b61083d5760405162461bcd60e51b81526004016104ff90612753565b61084681611754565b50565b6007546001600160a01b031633146108735760405162461bcd60e51b81526004016104ff906127e7565b600d80546001600160a01b0390921661010002610100600160a81b0319909216919091179055565b6007546001600160a01b031633146108c55760405162461bcd60e51b81526004016104ff906127e7565b80516108d890600b906020840190611e73565b5050565b6000818152600260205260408120546001600160a01b0316806104cf5760405162461bcd60e51b815260206004820152602960248201527f4552433732313a206f776e657220717565727920666f72206e6f6e657869737460448201526832b73a103a37b5b2b760b91b60648201526084016104ff565b600b80546109609061296d565b80601f016020809104026020016040519081016040528092919081815260200182805461098c9061296d565b80156109d95780601f106109ae576101008083540402835291602001916109d9565b820191906000526020600020905b8154815290600101906020018083116109bc57829003601f168201915b505050505081565b60006001600160a01b038216610a4c5760405162461bcd60e51b815260206004820152602a60248201527f4552433732313a2062616c616e636520717565727920666f7220746865207a65604482015269726f206164647265737360b01b60648201526084016104ff565b506001600160a01b031660009081526003602052604090205490565b6007546001600160a01b03163314610a925760405162461bcd60e51b81526004016104ff906127e7565b610a9c6000611794565b565b60006104cf826108dc565b60606000610ab660085490565b67ffffffffffffffff811115610ace57610ace612a13565b604051908082528060200260200182016040528015610b3357816020015b610b20604051806080016040528060006001600160a01b031681526020016060815260200160608152602001606081525090565b815260200190600190039081610aec5790505b50905060005b600854811015610d05576000818152600a602090815260409182902082516080810190935280546001600160a01b0316835260018101805491939284929084019190610b849061296d565b80601f0160208091040260200160405190810160405280929190818152602001828054610bb09061296d565b8015610bfd5780601f10610bd257610100808354040283529160200191610bfd565b820191906000526020600020905b815481529060010190602001808311610be057829003601f168201915b5050505050815260200160028201805480602002602001604051908101604052809291908181526020018280548015610c7357602002820191906000526020600020906000905b825461010083900a900460ff16815260206001928301818104948501949093039092029101808411610c445790505b5050505050815260200160038201805480602002602001604051908101604052809291908181526020018280548015610ccb57602002820191906000526020600020905b815481526020019060010190808311610cb7575b505050505081525050838381518110610ce657610ce66129fd565b6020026020010181905250508080610cfd906129a2565b915050610b39565b50919050565b60606001805461052a9061296d565b6108d83383836117e6565b610d2f33836114d2565b610d4b5760405162461bcd60e51b81526004016104ff9061281c565b610d57848484846118b5565b50505050565b600d5461010090046001600160a01b0316331480610d895750600d5461010090046001600160a01b0316155b8015610d985750600d5460ff16155b610db45760405162461bcd60e51b81526004016104ff90612753565b610746838383604051806020016040528060008152506118b5565b610e03604051806080016040528060006001600160a01b031681526020016060815260200160608152602001606081525090565b6000828152600a602090815260409182902082516080810190935280546001600160a01b031683526001810180549192840191610e3f9061296d565b80601f0160208091040260200160405190810160405280929190818152602001828054610e6b9061296d565b8015610eb85780601f10610e8d57610100808354040283529160200191610eb8565b820191906000526020600020905b815481529060010190602001808311610e9b57829003601f168201915b5050505050815260200160028201805480602002602001604051908101604052809291908181526020018280548015610f2e57602002820191906000526020600020906000905b825461010083900a900460ff16815260206001928301818104948501949093039092029101808411610eff5790505b5050505050815260200160038201805480602002602001604051908101604052809291908181526020018280548015610f8657602002820191906000526020600020905b815481526020019060010190808311610f72575b5050505050815250509050919050565b600c80546109609061296d565b6060610fae82611447565b6110145760405162461bcd60e51b815260206004820152603160248201527f45524337323155524953746f726167653a2055524920717565727920666f72206044820152703737b732bc34b9ba32b73a103a37b5b2b760791b60648201526084016104ff565b6000828152600660205260408120805461102d9061296d565b80601f01602080910402602001604051908101604052809291908181526020018280546110599061296d565b80156110a65780601f1061107b576101008083540402835291602001916110a6565b820191906000526020600020905b81548152906001019060200180831161108957829003601f168201915b5050505050905060006110b76118e8565b90508051600014156110ca575092915050565b8151156110fc5780826040516020016110e4929190612672565b60405160208183030381529060405292505050919050565b611105846118f7565b949350505050565b600d5461010090046001600160a01b03163314806111395750600d5461010090046001600160a01b0316155b80156111485750600d5460ff16155b6111645760405162461bcd60e51b81526004016104ff90612753565b6040518060800160405280856001600160a01b0316815260200184815260200183815260200182815250600a600061119b60085490565b8152602080820192909252604001600020825181546001600160a01b0319166001600160a01b0390911617815582820151805191926111e292600185019290910190611e73565b50604082015180516111fe916002840191602090910190611ef7565b506060820151805161121a916003840191602090910190611f98565b509050506112308461122b60085490565b6119c2565b61124261123c60085490565b846119dc565b610d57600880546001019055565b600d5461010090046001600160a01b031633148061127c5750600d5461010090046001600160a01b0316155b801561128b5750600d5460ff16155b6112a75760405162461bcd60e51b81526004016104ff90612753565b806001600160a01b03166112ba836108dc565b6001600160a01b0316146113015760405162461bcd60e51b815260206004820152600e60248201526d2737ba102cb7bab9103a37b5b2b760911b60448201526064016104ff565b6000828152600a60209081526040909120845181546001600160a01b0319166001600160a01b039091161781558482015180518693611347926001850192910190611e73565b5060408201518051611363916002840191602090910190611ef7565b506060820151805161137f916003840191602090910190611f98565b505050505050565b60006009826040516113999190612656565b9081526020016040518091039020549050919050565b6007546001600160a01b031633146113d95760405162461bcd60e51b81526004016104ff906127e7565b6001600160a01b03811661143e5760405162461bcd60e51b815260206004820152602660248201527f4f776e61626c653a206e6577206f776e657220697320746865207a65726f206160448201526564647265737360d01b60648201526084016104ff565b61084681611794565b6000908152600260205260409020546001600160a01b0316151590565b600081815260046020526040902080546001600160a01b0319166001600160a01b0384169081179091558190611499826108dc565b6001600160a01b03167f8c5be1e5ebec7d5bd14f71427d1e84f3dd0314c0f7b2291e5b200ac8c7c3b92560405160405180910390a45050565b60006114dd82611447565b61153e5760405162461bcd60e51b815260206004820152602c60248201527f4552433732313a206f70657261746f7220717565727920666f72206e6f6e657860448201526b34b9ba32b73a103a37b5b2b760a11b60648201526084016104ff565b6000611549836108dc565b9050806001600160a01b0316846001600160a01b031614806115845750836001600160a01b0316611579846105ad565b6001600160a01b0316145b8061110557506001600160a01b0380821660009081526005602090815260408083209388168352929052205460ff16611105565b826001600160a01b03166115cb826108dc565b6001600160a01b03161461162f5760405162461bcd60e51b815260206004820152602560248201527f4552433732313a207472616e736665722066726f6d20696e636f72726563742060448201526437bbb732b960d91b60648201526084016104ff565b6001600160a01b0382166116915760405162461bcd60e51b8152602060048201526024808201527f4552433732313a207472616e7366657220746f20746865207a65726f206164646044820152637265737360e01b60648201526084016104ff565b61169c600082611464565b6001600160a01b03831660009081526003602052604081208054600192906116c590849061292a565b90915550506001600160a01b03821660009081526003602052604081208054600192906116f39084906128fe565b909155505060008181526002602052604080822080546001600160a01b0319166001600160a01b0386811691821790925591518493918716917fddf252ad1be2c89b69c2b068fc378daa952ba7f163c4a11628f55a4df523b3ef91a4505050565b61175d81611a67565b600081815260066020526040902080546117769061296d565b15905061084657600081815260066020526040812061084691611fd2565b600780546001600160a01b038381166001600160a01b0319831681179093556040519116919082907f8be0079c531659141344cd1fd0a4f28419497f9722a3daafe3b4186f6b6457e090600090a35050565b816001600160a01b0316836001600160a01b031614156118485760405162461bcd60e51b815260206004820152601960248201527f4552433732313a20617070726f766520746f2063616c6c65720000000000000060448201526064016104ff565b6001600160a01b03838116600081815260056020908152604080832094871680845294825291829020805460ff191686151590811790915591519182527f17307eab39ab6107e8899845ad3d59bd9653f200f220920489ca2b5937696c31910160405180910390a3505050565b6118c08484846115b8565b6118cc84848484611b02565b610d575760405162461bcd60e51b81526004016104ff90612795565b6060600b805461052a9061296d565b606061190282611447565b6119665760405162461bcd60e51b815260206004820152602f60248201527f4552433732314d657461646174613a2055524920717565727920666f72206e6f60448201526e3732bc34b9ba32b73a103a37b5b2b760891b60648201526084016104ff565b60006119706118e8565b9050600081511161199057604051806020016040528060008152506119bb565b8061199a84611c0f565b6040516020016119ab929190612672565b6040516020818303038152906040525b9392505050565b6108d8828260405180602001604052806000815250611d0d565b6119e582611447565b611a485760405162461bcd60e51b815260206004820152602e60248201527f45524337323155524953746f726167653a2055524920736574206f66206e6f6e60448201526d32bc34b9ba32b73a103a37b5b2b760911b60648201526084016104ff565b6000828152600660209081526040909120825161074692840190611e73565b6000611a72826108dc565b9050611a7f600083611464565b6001600160a01b0381166000908152600360205260408120805460019290611aa890849061292a565b909155505060008281526002602052604080822080546001600160a01b0319169055518391906001600160a01b038416907fddf252ad1be2c89b69c2b068fc378daa952ba7f163c4a11628f55a4df523b3ef908390a45050565b60006001600160a01b0384163b15611c0457604051630a85bd0160e11b81526001600160a01b0385169063150b7a0290611b469033908990889088906004016126a1565b602060405180830381600087803b158015611b6057600080fd5b505af1925050508015611b90575060408051601f3d908101601f19168201909252611b8d918101906123cf565b60015b611bea573d808015611bbe576040519150601f19603f3d011682016040523d82523d6000602084013e611bc3565b606091505b508051611be25760405162461bcd60e51b81526004016104ff90612795565b805181602001fd5b6001600160e01b031916630a85bd0160e11b149050611105565b506001949350505050565b606081611c335750506040805180820190915260018152600360fc1b602082015290565b8160005b8115611c5d5780611c47816129a2565b9150611c569050600a83612916565b9150611c37565b60008167ffffffffffffffff811115611c7857611c78612a13565b6040519080825280601f01601f191660200182016040528015611ca2576020820181803683370190505b5090505b841561110557611cb760018361292a565b9150611cc4600a866129bd565b611ccf9060306128fe565b60f81b818381518110611ce457611ce46129fd565b60200101906001600160f81b031916908160001a905350611d06600a86612916565b9450611ca6565b611d178383611d40565b611d246000848484611b02565b6107465760405162461bcd60e51b81526004016104ff90612795565b6001600160a01b038216611d965760405162461bcd60e51b815260206004820181905260248201527f4552433732313a206d696e7420746f20746865207a65726f206164647265737360448201526064016104ff565b611d9f81611447565b15611dec5760405162461bcd60e51b815260206004820152601c60248201527f4552433732313a20746f6b656e20616c7265616479206d696e7465640000000060448201526064016104ff565b6001600160a01b0382166000908152600360205260408120805460019290611e159084906128fe565b909155505060008181526002602052604080822080546001600160a01b0319166001600160a01b03861690811790915590518392907fddf252ad1be2c89b69c2b068fc378daa952ba7f163c4a11628f55a4df523b3ef908290a45050565b828054611e7f9061296d565b90600052602060002090601f016020900481019282611ea15760008555611ee7565b82601f10611eba57805160ff1916838001178555611ee7565b82800160010185558215611ee7579182015b82811115611ee7578251825591602001919060010190611ecc565b50611ef3929150612008565b5090565b82805482825590600052602060002090601f01602090048101928215611ee75791602002820160005b83821115611f5e57835183826101000a81548160ff021916908360ff1602179055509260200192600101602081600001049283019260010302611f20565b8015611f8b5782816101000a81549060ff0219169055600101602081600001049283019260010302611f5e565b5050611ef3929150612008565b828054828255906000526020600020908101928215611ee75791602002820182811115611ee7578251825591602001919060010190611ecc565b508054611fde9061296d565b6000825580601f10611fee575050565b601f01602090049060005260206000209081019061084691905b5b80821115611ef35760008155600101612009565b600067ffffffffffffffff83111561203757612037612a13565b61204a601f8401601f19166020016128a9565b905082815283838301111561205e57600080fd5b828260208301376000602084830101529392505050565b80356001600160a01b038116811461208c57600080fd5b919050565b600082601f8301126120a257600080fd5b813560206120b76120b2836128da565b6128a9565b80838252828201915082860187848660051b89010111156120d757600080fd5b60005b858110156120f6578135845292840192908401906001016120da565b5090979650505050505050565b600082601f83011261211457600080fd5b813560206121246120b2836128da565b80838252828201915082860187848660051b890101111561214457600080fd5b6000805b8681101561217257823560ff81168114612160578283fd5b85529385019391850191600101612148565b509198975050505050505050565b8035801515811461208c57600080fd5b600082601f8301126121a157600080fd5b6119bb8383356020850161201d565b6000602082840312156121c257600080fd5b6119bb82612075565b600080604083850312156121de57600080fd5b6121e783612075565b91506121f560208401612075565b90509250929050565b60008060006060848603121561221357600080fd5b61221c84612075565b925061222a60208501612075565b9150604084013590509250925092565b6000806000806080858703121561225057600080fd5b61225985612075565b935061226760208601612075565b925060408501359150606085013567ffffffffffffffff81111561228a57600080fd5b8501601f8101871361229b57600080fd5b6122aa8782356020840161201d565b91505092959194509250565b600080604083850312156122c957600080fd5b6122d283612075565b91506121f560208401612180565b600080600080608085870312156122f657600080fd5b6122ff85612075565b9350602085013567ffffffffffffffff8082111561231c57600080fd5b61232888838901612190565b9450604087013591508082111561233e57600080fd5b61234a88838901612103565b9350606087013591508082111561236057600080fd5b506122aa87828801612091565b6000806040838503121561238057600080fd5b61238983612075565b946020939093013593505050565b6000602082840312156123a957600080fd5b6119bb82612180565b6000602082840312156123c457600080fd5b81356119bb81612a29565b6000602082840312156123e157600080fd5b81516119bb81612a29565b6000602082840312156123fe57600080fd5b813567ffffffffffffffff81111561241557600080fd5b61110584828501612190565b6000806040838503121561243457600080fd5b823567ffffffffffffffff81111561244b57600080fd5b61245785828601612190565b95602094909401359450505050565b60008060006060848603121561247b57600080fd5b833567ffffffffffffffff8082111561249357600080fd5b90850190608082880312156124a757600080fd5b6124af612880565b6124b883612075565b81526020830135828111156124cc57600080fd5b6124d889828601612190565b6020830152506040830135828111156124f057600080fd5b6124fc89828601612103565b60408301525060608301358281111561251457600080fd5b61252089828601612091565b606083015250945050506020840135915061253d60408501612075565b90509250925092565b60006020828403121561255857600080fd5b5035919050565b600081518084526020808501945080840160005b8381101561258f57815187529582019590820190600101612573565b509495945050505050565b600081518084526125b2816020860160208601612941565b601f01601f19169290920160200192915050565b60018060a01b03815116825260006020808301516080828601526125ed608086018261259a565b60408581015187830391880191909152805180835290840192506000918401905b8083101561263157835160ff16825292840192600192909201919084019061260e565b5060608601519350868103606088015261264b818561255f565b979650505050505050565b60008251612668818460208701612941565b9190910192915050565b60008351612684818460208801612941565b835190830190612698818360208801612941565b01949350505050565b6001600160a01b03858116825284166020820152604081018390526080606082018190526000906126d49083018461259a565b9695505050505050565b6000602080830181845280855180835260408601915060408160051b870101925083870160005b8281101561273357603f198886030184526127218583516125c6565b94509285019290850190600101612705565b5092979650505050505050565b6020815260006119bb602083018461259a565b60208082526022908201527f4e6f7420676f6f6420616464726573732064656c656761746520636f6e74726160408201526118dd60f21b606082015260800190565b60208082526032908201527f4552433732313a207472616e7366657220746f206e6f6e20455243373231526560408201527131b2b4bb32b91034b6b83632b6b2b73a32b960711b606082015260800190565b6020808252818101527f4f776e61626c653a2063616c6c6572206973206e6f7420746865206f776e6572604082015260600190565b60208082526031908201527f4552433732313a207472616e736665722063616c6c6572206973206e6f74206f6040820152701ddb995c881b9bdc88185c1c1c9bdd9959607a1b606082015260800190565b6020815260006119bb60208301846125c6565b6040516080810167ffffffffffffffff811182821017156128a3576128a3612a13565b60405290565b604051601f8201601f1916810167ffffffffffffffff811182821017156128d2576128d2612a13565b604052919050565b600067ffffffffffffffff8211156128f4576128f4612a13565b5060051b60200190565b60008219821115612911576129116129d1565b500190565b600082612925576129256129e7565b500490565b60008282101561293c5761293c6129d1565b500390565b60005b8381101561295c578181015183820152602001612944565b83811115610d575750506000910152565b600181811c9082168061298157607f821691505b60208210811415610d0557634e487b7160e01b600052602260045260246000fd5b60006000198214156129b6576129b66129d1565b5060010190565b6000826129cc576129cc6129e7565b500690565b634e487b7160e01b600052601160045260246000fd5b634e487b7160e01b600052601260045260246000fd5b634e487b7160e01b600052603260045260246000fd5b634e487b7160e01b600052604160045260246000fd5b6001600160e01b03198116811461084657600080fdfea264697066735822122067f6a84a2a1f3eb20d41aba34979a07f7d943b81d580fb7a36a4de94693ec41064736f6c63430008060033",
  "immutableReferences": {},
  "source": "// SPDX-License-Identifier: MIT\r\n// ADMIN CONTROLLER\r\npragma solidity ^0.8.0;\r\n\r\nimport '@openzeppelin/contracts/token/ERC721/extensions/ERC721URIStorage.sol';\r\nimport '@openzeppelin/contracts/access/Ownable.sol';\r\nimport '@openzeppelin/contracts/utils/Counters.sol';\r\nimport './AuctionContract.sol';\r\n\r\ncontract TokenContract is ERC721URIStorage, Ownable {\r\n    using Strings for uint256;\r\n    using Counters for Counters.Counter;\r\n    Counters.Counter private _tokenIdTracker;\r\n    \r\n    /*\r\n    Object of Token\r\n     */\r\n    struct Token {\r\n        address addrOwner;\r\n        string uri;\r\n        uint8[] params8;\r\n        uint256[] params256;\r\n    }\r\n\r\n    mapping( string => uint ) paramsContract;\r\n    mapping( uint256 => Token ) private _tokenDetails;\r\n    string public baseURI;\r\n    string public baseExtension = \".json\";\r\n    bool paused = false;\r\n    address adressDelegateContract;\r\n\r\n    constructor(string memory name, string memory symbol, string memory _initBaseURI) ERC721(name, symbol){\r\n        setBaseURI(_initBaseURI);\r\n        \r\n    }\r\n\r\n    function _baseURI() internal view virtual override returns (string memory) {\r\n        return baseURI;\r\n    }\r\n\r\n    function setBaseURI(string memory _newBaseURI) public onlyOwner {\r\n        baseURI = _newBaseURI;\r\n    }\r\n\r\n    /*function tokenURI(uint256 tokenId) public view virtual override returns (string memory) {\r\n        require( _exists(tokenId), \"ERC721Metadata: URI query for nonexistent token\" );\r\n        string memory currentBaseURI = _baseURI();\r\n        return bytes(currentBaseURI).length > 0 ? string(abi.encodePacked(currentBaseURI, tokenId.toString(), baseExtension)) : \"\";\r\n    }*/\r\n\r\n    /**\r\n    All functions using this modifier can only be called by the delegation contract\r\n     */\r\n    modifier byDelegate() {\r\n        require((msg.sender == adressDelegateContract || adressDelegateContract == address(0))&& !paused,\"Not good address delegate contract\");\r\n        _;\r\n    }\r\n\r\n    /**\r\n    Temporarily lock the contract\r\n     */\r\n    function pause(bool _state) external onlyOwner {\r\n        paused = _state;\r\n    }\r\n\r\n    /**\r\n    Mint a token with parameter send in function argument \r\n     */\r\n    function mint(address sender, string memory uri, uint8[] memory params8, uint256[] memory params256) external byDelegate {\r\n        _tokenDetails[_tokenIdTracker.current()] = Token(sender,uri,params8,params256);\r\n        _safeMint(sender, _tokenIdTracker.current());\r\n        _setTokenURI(_tokenIdTracker.current(),uri);\r\n        _tokenIdTracker.increment();\r\n    }\r\n\r\n    /**\r\n    Safe transfer one token to another address\r\n     */\r\n    function transfer(address from, address to ,uint256 tokenId) external byDelegate {\r\n        _safeTransfer(from, to, tokenId, \"\");\r\n    }\r\n\r\n    /**\r\n    Set array of contract's parameter dynamicaly, possibility of add an infinite of parameters\r\n     */\r\n    function setParamsContract(string memory keyParams, uint valueParams) external onlyOwner {\r\n        paramsContract[keyParams] = valueParams;\r\n    }\r\n\r\n    /**\r\n    Get value of one element of array parameter of contract\r\n     */\r\n    function getParamsContract(string memory keyParams) external view returns (uint){\r\n        return paramsContract[keyParams];\r\n    }\r\n\r\n    /**\r\n    Update the only address that will be able to call on the token contract \r\n    */\r\n    function setAdressDelegateContract(address _adress) external onlyOwner {\r\n        adressDelegateContract = _adress;\r\n    }\r\n\r\n    function getAdressDelegateContract() external view returns (address){\r\n        return adressDelegateContract;\r\n    }\r\n\r\n    function getTokenDetails(uint256 tokenId) external view returns (Token memory){\r\n        return _tokenDetails[tokenId];\r\n    }\r\n\r\n    function getAllToken() external view returns (Token[] memory){\r\n        Token[] memory result = new Token[](_tokenIdTracker.current());\r\n        for(uint256 i = 0; i < _tokenIdTracker.current(); i++){\r\n            Token storage _token = _tokenDetails[i];\r\n            result[i] = _token;\r\n        }\r\n        return result;\r\n    }\r\n\r\n    function getOwnerOf(uint256 tokenId) external view returns (address) {\r\n        return ownerOf(tokenId);\r\n    }\r\n\r\n    /**\r\n    update the values of the token structure dynamicaly\r\n    */\r\n    function updateToken(Token memory _token,uint256 tokenId,address owner) external byDelegate {\r\n        require(ownerOf(tokenId) == owner,\"Not Your token\");\r\n        _tokenDetails[tokenId] = _token;\r\n    }\r\n    \r\n    /**\r\n    Burn a token (Useless for this project, but it's always good to have one)\r\n     */\r\n    function burn(uint256 tokenId) external byDelegate {\r\n        _burn(tokenId);\r\n    }\r\n\r\n}\r\n",
  "sourcePath": "C:\\Users\\KevinDell'ova\\Desktop\\Inverse contracts\\contracts\\TokenContract.sol",
  "compiler": {
    "name": "solc",
    "version": "0.8.6+commit.11564f7e.Emscripten.clang"
  },
  "schemaVersion": "3.4.4",
  "updatedAt": "2022-03-06T15:42:15.676Z",
  "devdoc": {
    "kind": "dev",
    "methods": {
      "approve(address,uint256)": {
        "details": "See {IERC721-approve}."
      },
      "balanceOf(address)": {
        "details": "See {IERC721-balanceOf}."
      },
      "getApproved(uint256)": {
        "details": "See {IERC721-getApproved}."
      },
      "isApprovedForAll(address,address)": {
        "details": "See {IERC721-isApprovedForAll}."
      },
      "name()": {
        "details": "See {IERC721Metadata-name}."
      },
      "owner()": {
        "details": "Returns the address of the current owner."
      },
      "ownerOf(uint256)": {
        "details": "See {IERC721-ownerOf}."
      },
      "renounceOwnership()": {
        "details": "Leaves the contract without owner. It will not be possible to call `onlyOwner` functions anymore. Can only be called by the current owner. NOTE: Renouncing ownership will leave the contract without an owner, thereby removing any functionality that is only available to the owner."
      },
      "safeTransferFrom(address,address,uint256)": {
        "details": "See {IERC721-safeTransferFrom}."
      },
      "safeTransferFrom(address,address,uint256,bytes)": {
        "details": "See {IERC721-safeTransferFrom}."
      },
      "setApprovalForAll(address,bool)": {
        "details": "See {IERC721-setApprovalForAll}."
      },
      "supportsInterface(bytes4)": {
        "details": "See {IERC165-supportsInterface}."
      },
      "symbol()": {
        "details": "See {IERC721Metadata-symbol}."
      },
      "tokenURI(uint256)": {
        "details": "See {IERC721Metadata-tokenURI}."
      },
      "transferFrom(address,address,uint256)": {
        "details": "See {IERC721-transferFrom}."
      },
      "transferOwnership(address)": {
        "details": "Transfers ownership of the contract to a new account (`newOwner`). Can only be called by the current owner."
      }
    },
    "version": 1
  },
  "userdoc": {
    "kind": "user",
    "methods": {
      "burn(uint256)": {
        "notice": "Burn a token (Useless for this project, but it's always good to have one)"
      },
      "getParamsContract(string)": {
        "notice": "Get value of one element of array parameter of contract"
      },
      "mint(address,string,uint8[],uint256[])": {
        "notice": "Mint a token with parameter send in function argument "
      },
      "pause(bool)": {
        "notice": "Temporarily lock the contract"
      },
      "setAdressDelegateContract(address)": {
        "notice": "Update the only address that will be able to call on the token contract "
      },
      "setParamsContract(string,uint256)": {
        "notice": "Set array of contract's parameter dynamicaly, possibility of add an infinite of parameters"
      },
      "transfer(address,address,uint256)": {
        "notice": "Safe transfer one token to another address"
      },
      "updateToken((address,string,uint8[],uint256[]),uint256,address)": {
        "notice": "update the values of the token structure dynamicaly"
      }
    },
    "version": 1
  }
}